{"abi":[{"type":"constructor","inputs":[{"name":"_accounts","type":"address","internalType":"contract ISubAccounts"}],"stateMutability":"nonpayable"},{"type":"function","name":"ACTION_TYPEHASH","inputs":[],"outputs":[{"name":"","type":"bytes32","internalType":"bytes32"}],"stateMutability":"view"},{"type":"function","name":"DEREGISTER_KEY_COOLDOWN","inputs":[],"outputs":[{"name":"","type":"uint256","internalType":"uint256"}],"stateMutability":"view"},{"type":"function","name":"WITHDRAW_COOLDOWN","inputs":[],"outputs":[{"name":"","type":"uint256","internalType":"uint256"}],"stateMutability":"view"},{"type":"function","name":"acceptOwnership","inputs":[],"outputs":[],"stateMutability":"nonpayable"},{"type":"function","name":"completeWithdrawAccount","inputs":[{"name":"accountId","type":"uint256","internalType":"uint256"}],"outputs":[],"stateMutability":"nonpayable"},{"type":"function","name":"createSubAccount","inputs":[{"name":"manager","type":"address","internalType":"contract IManager"}],"outputs":[{"name":"accountId","type":"uint256","internalType":"uint256"}],"stateMutability":"nonpayable"},{"type":"function","name":"depositSubAccount","inputs":[{"name":"accountId","type":"uint256","internalType":"uint256"}],"outputs":[],"stateMutability":"nonpayable"},{"type":"function","name":"depositSubAccountFor","inputs":[{"name":"accountId","type":"uint256","internalType":"uint256"},{"name":"recipient","type":"address","internalType":"address"}],"outputs":[],"stateMutability":"nonpayable"},{"type":"function","name":"deregisterSessionKey","inputs":[{"name":"sessionKey","type":"address","internalType":"address"}],"outputs":[],"stateMutability":"nonpayable"},{"type":"function","name":"domainSeparator","inputs":[],"outputs":[{"name":"","type":"bytes32","internalType":"bytes32"}],"stateMutability":"view"},{"type":"function","name":"getActionHash","inputs":[{"name":"action","type":"tuple","internalType":"struct IActionVerifier.Action","components":[{"name":"subaccountId","type":"uint256","internalType":"uint256"},{"name":"nonce","type":"uint256","internalType":"uint256"},{"name":"module","type":"address","internalType":"contract IMatchingModule"},{"name":"data","type":"bytes","internalType":"bytes"},{"name":"expiry","type":"uint256","internalType":"uint256"},{"name":"owner","type":"address","internalType":"address"},{"name":"signer","type":"address","internalType":"address"}]}],"outputs":[{"name":"","type":"bytes32","internalType":"bytes32"}],"stateMutability":"pure"},{"type":"function","name":"owner","inputs":[],"outputs":[{"name":"","type":"address","internalType":"address"}],"stateMutability":"view"},{"type":"function","name":"pendingOwner","inputs":[],"outputs":[{"name":"","type":"address","internalType":"address"}],"stateMutability":"view"},{"type":"function","name":"registerSessionKey","inputs":[{"name":"sessionKey","type":"address","internalType":"address"},{"name":"expiry","type":"uint256","internalType":"uint256"}],"outputs":[],"stateMutability":"nonpayable"},{"type":"function","name":"renounceOwnership","inputs":[],"outputs":[],"stateMutability":"nonpayable"},{"type":"function","name":"requestWithdrawAccount","inputs":[{"name":"accountId","type":"uint256","internalType":"uint256"}],"outputs":[],"stateMutability":"nonpayable"},{"type":"function","name":"sessionKeys","inputs":[{"name":"signer","type":"address","internalType":"address"},{"name":"owner","type":"address","internalType":"address"}],"outputs":[{"name":"","type":"uint256","internalType":"uint256"}],"stateMutability":"view"},{"type":"function","name":"subAccountToOwner","inputs":[{"name":"","type":"uint256","internalType":"uint256"}],"outputs":[{"name":"","type":"address","internalType":"address"}],"stateMutability":"view"},{"type":"function","name":"subAccounts","inputs":[],"outputs":[{"name":"","type":"address","internalType":"contract ISubAccounts"}],"stateMutability":"view"},{"type":"function","name":"transferOwnership","inputs":[{"name":"newOwner","type":"address","internalType":"address"}],"outputs":[],"stateMutability":"nonpayable"},{"type":"function","name":"withdrawTimestamp","inputs":[{"name":"","type":"uint256","internalType":"uint256"}],"outputs":[{"name":"","type":"uint256","internalType":"uint256"}],"stateMutability":"view"},{"type":"event","name":"DepositedSubAccount","inputs":[{"name":"accountId","type":"uint256","indexed":true,"internalType":"uint256"},{"name":"owner","type":"address","indexed":true,"internalType":"address"}],"anonymous":false},{"type":"event","name":"OwnershipTransferStarted","inputs":[{"name":"previousOwner","type":"address","indexed":true,"internalType":"address"},{"name":"newOwner","type":"address","indexed":true,"internalType":"address"}],"anonymous":false},{"type":"event","name":"OwnershipTransferred","inputs":[{"name":"previousOwner","type":"address","indexed":true,"internalType":"address"},{"name":"newOwner","type":"address","indexed":true,"internalType":"address"}],"anonymous":false},{"type":"event","name":"SessionKeyCooldown","inputs":[{"name":"owner","type":"address","indexed":false,"internalType":"address"},{"name":"sessionKeyPublicAddress","type":"address","indexed":false,"internalType":"address"}],"anonymous":false},{"type":"event","name":"SessionKeyRegistered","inputs":[{"name":"owner","type":"address","indexed":false,"internalType":"address"},{"name":"sessionKey","type":"address","indexed":false,"internalType":"address"},{"name":"expiry","type":"uint256","indexed":false,"internalType":"uint256"}],"anonymous":false},{"type":"event","name":"WithdrawAccountCooldown","inputs":[{"name":"accountId","type":"uint256","indexed":true,"internalType":"uint256"},{"name":"user","type":"address","indexed":false,"internalType":"address"}],"anonymous":false},{"type":"event","name":"WithdrewSubAccount","inputs":[{"name":"accountId","type":"uint256","indexed":true,"internalType":"uint256"}],"anonymous":false},{"type":"error","name":"OV_ActionExpired","inputs":[]},{"type":"error","name":"OV_InvalidActionOwner","inputs":[]},{"type":"error","name":"OV_InvalidSignature","inputs":[]},{"type":"error","name":"OV_NeedDeregister","inputs":[]},{"type":"error","name":"OV_SessionKeyInvalid","inputs":[]},{"type":"error","name":"OV_SignerNotOwnerOrSessionKeyExpired","inputs":[]},{"type":"error","name":"SAM_AlreadyRequestedWithdraw","inputs":[]},{"type":"error","name":"SAM_CooldownNotElapsed","inputs":[]},{"type":"error","name":"SAM_CooldownNotStarted","inputs":[]},{"type":"error","name":"SAM_NotOwnerAddress","inputs":[]}],"bytecode":{"object":"0x61016060405234801561001157600080fd5b506040516200126538038062001265833981016040819052610032916101b7565b604051806040016040528060088152602001674d61746368696e6760c01b815250604051806040016040528060038152602001620312e360ec1b8152508261008661008161013c60201b60201c565b610140565b6001600160a01b031660805281516020808401919091208251918301919091206101008290526101208190524660c0527f8b73c3c69bb8fe3d512ecc4cf759cc79239f7b179b0ffacaa9a75d522b39400f6101268184846040805160208101859052908101839052606081018290524660808201523060a082015260009060c0016040516020818303038152906040528051906020012090509392505050565b60a0523060e05261014052506101e79350505050565b3390565b600180546001600160a01b031916905561016481610167602090811b610a9e17901c565b50565b600080546001600160a01b038381166001600160a01b0319831681178455604051919092169283917f8be0079c531659141344cd1fd0a4f28419497f9722a3daafe3b4186f6b6457e09190a35050565b6000602082840312156101c957600080fd5b81516001600160a01b03811681146101e057600080fd5b9392505050565b60805160a05160c05160e0516101005161012051610140516110076200025e6000396000610cab01526000610cfa01526000610cd501526000610c2f01526000610c5901526000610c83015260008181610272015281816104b70152818161063a015281816107c501526108a801526110076000f3fe608060405234801561001057600080fd5b50600436106101775760003560e01c80638da5cb5b116100d8578063d41e4b761161008c578063ef81724011610066578063ef81724014610334578063f2fde38b14610347578063f698da251461035a57600080fd5b8063d41e4b76146102fd578063d8efddfc14610310578063e30c39781461032357600080fd5b806396ade1f9116100bd57806396ade1f9146102b6578063a39ee825146102e1578063ae60186b146102ea57600080fd5b80638da5cb5b1461029c578063950d91e9146102ad57600080fd5b80636c6011ba1161012f578063715018a611610114578063715018a614610265578063779e50121461026d57806379ba50971461029457600080fd5b80636c6011ba146102325780636d9122861461024557600080fd5b806347a90d441161016057806347a90d44146101a45780635a35b84a146101b757806363f1ddaa146101f157600080fd5b80630297d9211461017c5780631b0c2f0314610191575b600080fd5b61018f61018a366004610d4a565b610362565b005b61018f61019f366004610d4a565b610410565b61018f6101b2366004610d88565b610569565b6101de7f4d7a9f27c403ff9c0f19bce61d76d82f9aa29f8d6d4b0c5474607d9770d1af1781565b6040519081526020015b60405180910390f35b61021a6101ff366004610d4a565b6002602052600090815260409020546001600160a01b031681565b6040516001600160a01b0390911681526020016101e8565b61018f610240366004610db4565b610618565b6101de610253366004610d4a565b60036020526000908152604090205481565b61018f6106f6565b61021a7f000000000000000000000000000000000000000000000000000000000000000081565b61018f61070a565b6000546001600160a01b031661021a565b6101de61070881565b6101de6102c4366004610de4565b600460209081526000928352604080842090915290825290205481565b6101de61025881565b6101de6102f8366004610e12565b61079d565b61018f61030b366004610d4a565b610886565b61018f61031e366004610e12565b61095a565b6001546001600160a01b031661021a565b6101de610342366004610f02565b610a0d565b61018f610355366004610e12565b610a1e565b6101de610a8f565b6000818152600260205260409020546001600160a01b031633146103995760405163ce98768760e01b815260040160405180910390fd5b600081815260036020526040902054156103c6576040516305c20b0160e11b815260040160405180910390fd5b600081815260036020908152604091829020429055905133815282917f1e0acd1913e8ff4293f4b45b7e95b02a89e010b62bbe5e496a13738a2d25c1db910160405180910390a250565b600081815260036020526040812054900361043e57604051635c12bd3560e01b815260040160405180910390fd5b600081815260036020526040902054429061045c9061070890610fc0565b111561047b57604051637816e9ed60e01b815260040160405180910390fd5b600081815260026020526040908190205490516323b872dd60e01b81523060048201526001600160a01b039182166024820152604481018390527f0000000000000000000000000000000000000000000000000000000000000000909116906323b872dd90606401600060405180830381600087803b1580156104fd57600080fd5b505af1158015610511573d6000803e3d6000fd5b5050506000828152600360209081526040808320839055600290915280822080546001600160a01b0319169055518392507f53a0f15ecd2c4989821244d3c7363d7de154e125eac5b2a7c9bb008152778de19190a250565b6001600160a01b038216600090815260046020908152604080832033845290915290205481116105ac5760405163c89c41cf60e01b815260040160405180910390fd5b6001600160a01b038216600081815260046020908152604080832033808552908352928190208590558051928352908201929092529081018290527f502ff3b6c1e0193848b383e87dd1b67d644b16e3009829682df8d40159af74109060600160405180910390a15050565b6040516323b872dd60e01b8152336004820152306024820152604481018390527f00000000000000000000000000000000000000000000000000000000000000006001600160a01b0316906323b872dd90606401600060405180830381600087803b15801561068657600080fd5b505af115801561069a573d6000803e3d6000fd5b50505060008381526002602052604080822080546001600160a01b0319166001600160a01b038616908117909155905190925084917f043a568d47b1a65cdc989ff14c921411b62abf40132dc4b5e78675ba8d0bc9df91a35050565b6106fe610aee565b6107086000610b48565b565b60015433906001600160a01b031681146107915760405162461bcd60e51b815260206004820152602960248201527f4f776e61626c6532537465703a2063616c6c6572206973206e6f74207468652060448201527f6e6577206f776e6572000000000000000000000000000000000000000000000060648201526084015b60405180910390fd5b61079a81610b48565b50565b60405163099ab95d60e11b81523060048201526001600160a01b0382811660248301526000917f00000000000000000000000000000000000000000000000000000000000000009091169063133572ba906044016020604051808303816000875af1158015610810573d6000803e3d6000fd5b505050506040513d601f19601f820116820180604052508101906108349190610fe1565b60008181526002602052604080822080546001600160a01b0319163390811790915590519293509183917f043a568d47b1a65cdc989ff14c921411b62abf40132dc4b5e78675ba8d0bc9df91a3919050565b6040516323b872dd60e01b8152336004820152306024820152604481018290527f00000000000000000000000000000000000000000000000000000000000000006001600160a01b0316906323b872dd90606401600060405180830381600087803b1580156108f457600080fd5b505af1158015610908573d6000803e3d6000fd5b50505060008281526002602052604080822080546001600160a01b03191633908117909155905190925083917f043a568d47b1a65cdc989ff14c921411b62abf40132dc4b5e78675ba8d0bc9df91a350565b6001600160a01b038116600090815260046020908152604080832033845290915290205442111561099e576040516317ff2d3160e31b815260040160405180910390fd5b6109aa61025842610fc0565b6001600160a01b038216600081815260046020908152604080832033808552908352928190209490945583519182528101919091527ffef81711f318ffb08f403c419703c0b2092578bccbb5040a7ace8105cae945b5910160405180910390a150565b6000610a1882610b61565b92915050565b610a26610aee565b600180546001600160a01b0383166001600160a01b03199091168117909155610a576000546001600160a01b031690565b6001600160a01b03167f38d16b8cac22d99fc7c124b9cd0de2d3fa1faef420bfe791d8c362d765e2270060405160405180910390a350565b6000610a99610c22565b905090565b600080546001600160a01b038381166001600160a01b0319831681178455604051919092169283917f8be0079c531659141344cd1fd0a4f28419497f9722a3daafe3b4186f6b6457e09190a35050565b6000546001600160a01b031633146107085760405162461bcd60e51b815260206004820181905260248201527f4f776e61626c653a2063616c6c6572206973206e6f7420746865206f776e65726044820152606401610788565b600180546001600160a01b031916905561079a81610a9e565b60007f4d7a9f27c403ff9c0f19bce61d76d82f9aa29f8d6d4b0c5474607d9770d1af1782600001518360200151846040015185606001518051906020012086608001518760a001518860c00151604051602001610c05989796959493929190978852602088019690965260408701949094526001600160a01b039283166060870152608086019190915260a085015290811660c08401521660e08201526101000190565b604051602081830303815290604052805190602001209050919050565b6000306001600160a01b037f000000000000000000000000000000000000000000000000000000000000000016148015610c7b57507f000000000000000000000000000000000000000000000000000000000000000046145b15610ca557507f000000000000000000000000000000000000000000000000000000000000000090565b604080517f00000000000000000000000000000000000000000000000000000000000000006020808301919091527f0000000000000000000000000000000000000000000000000000000000000000828401527f000000000000000000000000000000000000000000000000000000000000000060608301524660808301523060a0808401919091528351808403909101815260c09092019092528051910120610a99565b600060208284031215610d5c57600080fd5b5035919050565b6001600160a01b038116811461079a57600080fd5b8035610d8381610d63565b919050565b60008060408385031215610d9b57600080fd5b8235610da681610d63565b946020939093013593505050565b60008060408385031215610dc757600080fd5b823591506020830135610dd981610d63565b809150509250929050565b60008060408385031215610df757600080fd5b8235610e0281610d63565b91506020830135610dd981610d63565b600060208284031215610e2457600080fd5b8135610e2f81610d63565b9392505050565b634e487b7160e01b600052604160045260246000fd5b60405160e0810167ffffffffffffffff81118282101715610e6f57610e6f610e36565b60405290565b600082601f830112610e8657600080fd5b813567ffffffffffffffff80821115610ea157610ea1610e36565b604051601f8301601f19908116603f01168101908282118183101715610ec957610ec9610e36565b81604052838152866020858801011115610ee257600080fd5b836020870160208301376000602085830101528094505050505092915050565b600060208284031215610f1457600080fd5b813567ffffffffffffffff80821115610f2c57600080fd5b9083019060e08286031215610f4057600080fd5b610f48610e4c565b8235815260208301356020820152610f6260408401610d78565b6040820152606083013582811115610f7957600080fd5b610f8587828601610e75565b60608301525060808301356080820152610fa160a08401610d78565b60a0820152610fb260c08401610d78565b60c082015295945050505050565b80820180821115610a1857634e487b7160e01b600052601160045260246000fd5b600060208284031215610ff357600080fd5b505191905056fea164736f6c6343000812000a","linkReferences":{}},"methodIdentifiers":{"ACTION_TYPEHASH()":"5a35b84a","DEREGISTER_KEY_COOLDOWN()":"a39ee825","WITHDRAW_COOLDOWN()":"950d91e9","acceptOwnership()":"79ba5097","completeWithdrawAccount(uint256)":"1b0c2f03","createSubAccount(address)":"ae60186b","depositSubAccount(uint256)":"d41e4b76","depositSubAccountFor(uint256,address)":"6c6011ba","deregisterSessionKey(address)":"d8efddfc","domainSeparator()":"f698da25","getActionHash((uint256,uint256,address,bytes,uint256,address,address))":"ef817240","owner()":"8da5cb5b","pendingOwner()":"e30c3978","registerSessionKey(address,uint256)":"47a90d44","renounceOwnership()":"715018a6","requestWithdrawAccount(uint256)":"0297d921","sessionKeys(address,address)":"96ade1f9","subAccountToOwner(uint256)":"63f1ddaa","subAccounts()":"779e5012","transferOwnership(address)":"f2fde38b","withdrawTimestamp(uint256)":"6d912286"},"id":18}