{"abi":[{"type":"function","name":"PRECISE_UNIT","inputs":[],"outputs":[{"name":"","type":"uint256","internalType":"uint256"}],"stateMutability":"view"},{"type":"function","name":"UNIT","inputs":[],"outputs":[{"name":"","type":"uint256","internalType":"uint256"}],"stateMutability":"view"},{"type":"function","name":"decimals","inputs":[],"outputs":[{"name":"","type":"uint8","internalType":"uint8"}],"stateMutability":"view"},{"type":"function","name":"highPrecisionDecimals","inputs":[],"outputs":[{"name":"","type":"uint8","internalType":"uint8"}],"stateMutability":"view"},{"type":"function","name":"preciseUnit","inputs":[],"outputs":[{"name":"","type":"uint256","internalType":"uint256"}],"stateMutability":"pure"},{"type":"function","name":"unit","inputs":[],"outputs":[{"name":"","type":"uint256","internalType":"uint256"}],"stateMutability":"pure"}],"bytecode":{"object":"0x61022e61003a600b82828239805160001a60731461002d57634e487b7160e01b600052600060045260246000fd5b30600052607381538281f3fe730000000000000000000000000000000000000000301460806040526004361061007c5760003560e01c80639d8e21771161005a5780639d8e2177146100be578063d5e5e6e6146100c6578063def4419d146100ce57600080fd5b8063313ce56714610081578063864029e7146100a0578063907af6c0146100b6575b600080fd5b610089601281565b60405160ff90911681526020015b60405180910390f35b6100a86100d6565b604051908152602001610097565b6100a86100e5565b6100a86100f8565b6100a8610104565b610089601b81565b6100e2601b600a61020e565b81565b60006100f36012600a61020e565b905090565b6100e26012600a61020e565b60006100f3601b600a61020e565b634e487b7160e01b600052601160045260246000fd5b600181815b8085111561016357816000190482111561014957610149610112565b8085161561015657918102915b93841c939080029061012d565b509250929050565b60008261017a57506001610208565b8161018757506000610208565b816001811461019d57600281146101a7576101c3565b6001915050610208565b60ff8411156101b8576101b8610112565b50506001821b610208565b5060208310610133831016604e8410600b84101617156101e6575081810a610208565b6101f08383610128565b806000190482111561020457610204610112565b0290505b92915050565b600061021a838361016b565b939250505056fea164736f6c6343000812000a","linkReferences":{}},"methodIdentifiers":{"PRECISE_UNIT()":"864029e7","UNIT()":"9d8e2177","decimals()":"313ce567","highPrecisionDecimals()":"def4419d","preciseUnit()":"d5e5e6e6","unit()":"907af6c0"},"id":0}