{"abi":[{"type":"constructor","inputs":[{"name":"_accounts","type":"address","internalType":"contract ISubAccounts"}],"stateMutability":"nonpayable"},{"type":"function","name":"ACTION_TYPEHASH","inputs":[],"outputs":[{"name":"","type":"bytes32","internalType":"bytes32"}],"stateMutability":"view"},{"type":"function","name":"DEREGISTER_KEY_COOLDOWN","inputs":[],"outputs":[{"name":"","type":"uint256","internalType":"uint256"}],"stateMutability":"view"},{"type":"function","name":"WITHDRAW_COOLDOWN","inputs":[],"outputs":[{"name":"","type":"uint256","internalType":"uint256"}],"stateMutability":"view"},{"type":"function","name":"acceptOwnership","inputs":[],"outputs":[],"stateMutability":"nonpayable"},{"type":"function","name":"allowedModules","inputs":[{"name":"module","type":"address","internalType":"address"}],"outputs":[{"name":"","type":"bool","internalType":"bool"}],"stateMutability":"view"},{"type":"function","name":"completeWithdrawAccount","inputs":[{"name":"accountId","type":"uint256","internalType":"uint256"}],"outputs":[],"stateMutability":"nonpayable"},{"type":"function","name":"createSubAccount","inputs":[{"name":"manager","type":"address","internalType":"contract IManager"}],"outputs":[{"name":"accountId","type":"uint256","internalType":"uint256"}],"stateMutability":"nonpayable"},{"type":"function","name":"depositSubAccount","inputs":[{"name":"accountId","type":"uint256","internalType":"uint256"}],"outputs":[],"stateMutability":"nonpayable"},{"type":"function","name":"depositSubAccountFor","inputs":[{"name":"accountId","type":"uint256","internalType":"uint256"},{"name":"recipient","type":"address","internalType":"address"}],"outputs":[],"stateMutability":"nonpayable"},{"type":"function","name":"deregisterSessionKey","inputs":[{"name":"sessionKey","type":"address","internalType":"address"}],"outputs":[],"stateMutability":"nonpayable"},{"type":"function","name":"domainSeparator","inputs":[],"outputs":[{"name":"","type":"bytes32","internalType":"bytes32"}],"stateMutability":"view"},{"type":"function","name":"getActionHash","inputs":[{"name":"action","type":"tuple","internalType":"struct IActionVerifier.Action","components":[{"name":"subaccountId","type":"uint256","internalType":"uint256"},{"name":"nonce","type":"uint256","internalType":"uint256"},{"name":"module","type":"address","internalType":"contract IMatchingModule"},{"name":"data","type":"bytes","internalType":"bytes"},{"name":"expiry","type":"uint256","internalType":"uint256"},{"name":"owner","type":"address","internalType":"address"},{"name":"signer","type":"address","internalType":"address"}]}],"outputs":[{"name":"","type":"bytes32","internalType":"bytes32"}],"stateMutability":"pure"},{"type":"function","name":"owner","inputs":[],"outputs":[{"name":"","type":"address","internalType":"address"}],"stateMutability":"view"},{"type":"function","name":"pendingOwner","inputs":[],"outputs":[{"name":"","type":"address","internalType":"address"}],"stateMutability":"view"},{"type":"function","name":"registerSessionKey","inputs":[{"name":"sessionKey","type":"address","internalType":"address"},{"name":"expiry","type":"uint256","internalType":"uint256"}],"outputs":[],"stateMutability":"nonpayable"},{"type":"function","name":"renounceOwnership","inputs":[],"outputs":[],"stateMutability":"nonpayable"},{"type":"function","name":"requestWithdrawAccount","inputs":[{"name":"accountId","type":"uint256","internalType":"uint256"}],"outputs":[],"stateMutability":"nonpayable"},{"type":"function","name":"sessionKeys","inputs":[{"name":"signer","type":"address","internalType":"address"},{"name":"owner","type":"address","internalType":"address"}],"outputs":[{"name":"","type":"uint256","internalType":"uint256"}],"stateMutability":"view"},{"type":"function","name":"setAllowedModule","inputs":[{"name":"module","type":"address","internalType":"address"},{"name":"allowed","type":"bool","internalType":"bool"}],"outputs":[],"stateMutability":"nonpayable"},{"type":"function","name":"setTradeExecutor","inputs":[{"name":"tradeExecutor","type":"address","internalType":"address"},{"name":"canExecute","type":"bool","internalType":"bool"}],"outputs":[],"stateMutability":"nonpayable"},{"type":"function","name":"subAccountToOwner","inputs":[{"name":"","type":"uint256","internalType":"uint256"}],"outputs":[{"name":"","type":"address","internalType":"address"}],"stateMutability":"view"},{"type":"function","name":"subAccounts","inputs":[],"outputs":[{"name":"","type":"address","internalType":"contract ISubAccounts"}],"stateMutability":"view"},{"type":"function","name":"tradeExecutors","inputs":[{"name":"tradeExecutor","type":"address","internalType":"address"}],"outputs":[{"name":"canExecuteTrades","type":"bool","internalType":"bool"}],"stateMutability":"view"},{"type":"function","name":"transferOwnership","inputs":[{"name":"newOwner","type":"address","internalType":"address"}],"outputs":[],"stateMutability":"nonpayable"},{"type":"function","name":"verifyAndMatch","inputs":[{"name":"actions","type":"tuple[]","internalType":"struct IActionVerifier.Action[]","components":[{"name":"subaccountId","type":"uint256","internalType":"uint256"},{"name":"nonce","type":"uint256","internalType":"uint256"},{"name":"module","type":"address","internalType":"contract IMatchingModule"},{"name":"data","type":"bytes","internalType":"bytes"},{"name":"expiry","type":"uint256","internalType":"uint256"},{"name":"owner","type":"address","internalType":"address"},{"name":"signer","type":"address","internalType":"address"}]},{"name":"signatures","type":"bytes[]","internalType":"bytes[]"},{"name":"actionData","type":"bytes","internalType":"bytes"}],"outputs":[],"stateMutability":"nonpayable"},{"type":"function","name":"withdrawERC20","inputs":[{"name":"token","type":"address","internalType":"address"},{"name":"recipient","type":"address","internalType":"address"},{"name":"amount","type":"uint256","internalType":"uint256"}],"outputs":[],"stateMutability":"nonpayable"},{"type":"function","name":"withdrawTimestamp","inputs":[{"name":"","type":"uint256","internalType":"uint256"}],"outputs":[{"name":"","type":"uint256","internalType":"uint256"}],"stateMutability":"view"},{"type":"event","name":"DepositedSubAccount","inputs":[{"name":"accountId","type":"uint256","indexed":true,"internalType":"uint256"},{"name":"owner","type":"address","indexed":true,"internalType":"address"}],"anonymous":false},{"type":"event","name":"ModuleAllowed","inputs":[{"name":"module","type":"address","indexed":true,"internalType":"address"},{"name":"allowed","type":"bool","indexed":false,"internalType":"bool"}],"anonymous":false},{"type":"event","name":"OwnershipTransferStarted","inputs":[{"name":"previousOwner","type":"address","indexed":true,"internalType":"address"},{"name":"newOwner","type":"address","indexed":true,"internalType":"address"}],"anonymous":false},{"type":"event","name":"OwnershipTransferred","inputs":[{"name":"previousOwner","type":"address","indexed":true,"internalType":"address"},{"name":"newOwner","type":"address","indexed":true,"internalType":"address"}],"anonymous":false},{"type":"event","name":"SessionKeyCooldown","inputs":[{"name":"owner","type":"address","indexed":false,"internalType":"address"},{"name":"sessionKeyPublicAddress","type":"address","indexed":false,"internalType":"address"}],"anonymous":false},{"type":"event","name":"SessionKeyRegistered","inputs":[{"name":"owner","type":"address","indexed":false,"internalType":"address"},{"name":"sessionKey","type":"address","indexed":false,"internalType":"address"},{"name":"expiry","type":"uint256","indexed":false,"internalType":"uint256"}],"anonymous":false},{"type":"event","name":"TradeExecutorSet","inputs":[{"name":"executor","type":"address","indexed":true,"internalType":"address"},{"name":"canExecute","type":"bool","indexed":false,"internalType":"bool"}],"anonymous":false},{"type":"event","name":"WithdrawAccountCooldown","inputs":[{"name":"accountId","type":"uint256","indexed":true,"internalType":"uint256"},{"name":"user","type":"address","indexed":false,"internalType":"address"}],"anonymous":false},{"type":"event","name":"WithdrewSubAccount","inputs":[{"name":"accountId","type":"uint256","indexed":true,"internalType":"uint256"}],"anonymous":false},{"type":"error","name":"M_AccountAlreadyExists","inputs":[]},{"type":"error","name":"M_AccountNotReturned","inputs":[]},{"type":"error","name":"M_ArrayLengthMismatch","inputs":[]},{"type":"error","name":"M_MismatchedModule","inputs":[]},{"type":"error","name":"M_OnlyAllowedModule","inputs":[]},{"type":"error","name":"M_OnlyTradeExecutor","inputs":[]},{"type":"error","name":"OV_ActionExpired","inputs":[]},{"type":"error","name":"OV_InvalidActionOwner","inputs":[]},{"type":"error","name":"OV_InvalidSignature","inputs":[]},{"type":"error","name":"OV_NeedDeregister","inputs":[]},{"type":"error","name":"OV_SessionKeyInvalid","inputs":[]},{"type":"error","name":"OV_SignerNotOwnerOrSessionKeyExpired","inputs":[]},{"type":"error","name":"SAM_AlreadyRequestedWithdraw","inputs":[]},{"type":"error","name":"SAM_CooldownNotElapsed","inputs":[]},{"type":"error","name":"SAM_CooldownNotStarted","inputs":[]},{"type":"error","name":"SAM_NotOwnerAddress","inputs":[]}],"bytecode":{"object":"0x6101606040523480156200001257600080fd5b506040516200265e3803806200265e8339810160408190526200003591620001c5565b80604051806040016040528060088152602001674d61746368696e6760c01b815250604051806040016040528060038152602001620312e360ec1b815250826200008e620000886200014760201b60201c565b6200014b565b6001600160a01b031660805281516020808401919091208251918301919091206101008290526101208190524660c0527f8b73c3c69bb8fe3d512ecc4cf759cc79239f7b179b0ffacaa9a75d522b39400f6200012f8184846040805160208101859052908101839052606081018290524660808201523060a082015260009060c0016040516020818303038152906040528051906020012090509392505050565b60a0523060e0526101405250620001f7945050505050565b3390565b600180546001600160a01b0319169055620001728162000175602090811b62000ecf17901c565b50565b600080546001600160a01b038381166001600160a01b0319831681178455604051919092169283917f8be0079c531659141344cd1fd0a4f28419497f9722a3daafe3b4186f6b6457e09190a35050565b600060208284031215620001d857600080fd5b81516001600160a01b0381168114620001f057600080fd5b9392505050565b60805160a05160c05160e0516101005161012051610140516123d46200028a6000396000611790015260006117d2015260006117b1015260006117150152600061173f015260006117690152600081816102da0152818161059b0152818161079f01528181610b9601528181610cd9015281816110ba015281816111740152818161130f015261142d01526123d46000f3fe608060405234801561001057600080fd5b50600436106101b95760003560e01c80638ba5a0c2116100f9578063c8c4e0b211610097578063e30c397811610071578063e30c397814610407578063ef81724014610418578063f2fde38b1461042b578063f698da251461043e57600080fd5b8063c8c4e0b2146103be578063d41e4b76146103e1578063d8efddfc146103f457600080fd5b806396ade1f9116100d357806396ade1f914610364578063a39ee8251461038f578063ae60186b14610398578063b1b62825146103ab57600080fd5b80638ba5a0c2146103175780638da5cb5b1461034a578063950d91e91461035b57600080fd5b80636c6011ba1161016657806374d906c31161014057806374d906c3146102c2578063779e5012146102d557806379ba5097146102fc5780637fe37ab41461030457600080fd5b80636c6011ba146102875780636d9122861461029a578063715018a6146102ba57600080fd5b806347a90d441161019757806347a90d44146101f95780635a35b84a1461020c57806363f1ddaa1461024657600080fd5b80630297d921146101be5780631b0c2f03146101d357806344004cc1146101e6575b600080fd5b6101d16101cc366004611be7565b610446565b005b6101d16101e1366004611be7565b6104f4565b6101d16101f4366004611c25565b61064d565b6101d1610207366004611c66565b6106ce565b6102337f4d7a9f27c403ff9c0f19bce61d76d82f9aa29f8d6d4b0c5474607d9770d1af1781565b6040519081526020015b60405180910390f35b61026f610254366004611be7565b6002602052600090815260409020546001600160a01b031681565b6040516001600160a01b03909116815260200161023d565b6101d1610295366004611c92565b61077d565b6102336102a8366004611be7565b60036020526000908152604090205481565b6101d161085b565b6101d16102d0366004611eef565b61086f565b61026f7f000000000000000000000000000000000000000000000000000000000000000081565b6101d1610a73565b6101d1610312366004611ff5565b610b06565b61033a610325366004612023565b60066020526000908152604090205460ff1681565b604051901515815260200161023d565b6000546001600160a01b031661026f565b61023361070881565b610233610372366004612040565b600460209081526000928352604080842090915290825290205481565b61023361025881565b6102336103a6366004612023565b610b6e565b6101d16103b9366004611ff5565b610c57565b61033a6103cc366004612023565b60056020526000908152604090205460ff1681565b6101d16103ef366004611be7565b610cb7565b6101d1610402366004612023565b610d8b565b6001546001600160a01b031661026f565b61023361042636600461206e565b610e3e565b6101d1610439366004612023565b610e4f565b610233610ec0565b6000818152600260205260409020546001600160a01b0316331461047d5760405163ce98768760e01b815260040160405180910390fd5b600081815260036020526040902054156104aa576040516305c20b0160e11b815260040160405180910390fd5b600081815260036020908152604091829020429055905133815282917f1e0acd1913e8ff4293f4b45b7e95b02a89e010b62bbe5e496a13738a2d25c1db910160405180910390a250565b600081815260036020526040812054900361052257604051635c12bd3560e01b815260040160405180910390fd5b600081815260036020526040902054429061054090610708906120c1565b111561055f57604051637816e9ed60e01b815260040160405180910390fd5b600081815260026020526040908190205490516323b872dd60e01b81523060048201526001600160a01b039182166024820152604481018390527f0000000000000000000000000000000000000000000000000000000000000000909116906323b872dd90606401600060405180830381600087803b1580156105e157600080fd5b505af11580156105f5573d6000803e3d6000fd5b5050506000828152600360209081526040808320839055600290915280822080546001600160a01b0319169055518392507f53a0f15ecd2c4989821244d3c7363d7de154e125eac5b2a7c9bb008152778de19190a250565b610655610f1f565b60405163a9059cbb60e01b81526001600160a01b0383811660048301526024820183905284169063a9059cbb906044016020604051808303816000875af11580156106a4573d6000803e3d6000fd5b505050506040513d601f19601f820116820180604052508101906106c891906120d4565b50505050565b6001600160a01b038216600090815260046020908152604080832033845290915290205481116107115760405163c89c41cf60e01b815260040160405180910390fd5b6001600160a01b038216600081815260046020908152604080832033808552908352928190208590558051928352908201929092529081018290527f502ff3b6c1e0193848b383e87dd1b67d644b16e3009829682df8d40159af74109060600160405180910390a15050565b6040516323b872dd60e01b8152336004820152306024820152604481018390527f00000000000000000000000000000000000000000000000000000000000000006001600160a01b0316906323b872dd90606401600060405180830381600087803b1580156107eb57600080fd5b505af11580156107ff573d6000803e3d6000fd5b50505060008381526002602052604080822080546001600160a01b0319166001600160a01b038616908117909155905190925084917f043a568d47b1a65cdc989ff14c921411b62abf40132dc4b5e78675ba8d0bc9df91a35050565b610863610f1f565b61086d6000610f79565b565b3360009081526005602052604090205460ff1661089f576040516397edd0fb60e01b815260040160405180910390fd5b6000836000815181106108b4576108b46120f1565b6020908102919091018101516040908101516001600160a01b0381166000908152600690935291205490915060ff166109005760405163c07382c560e01b815260040160405180910390fd5b82518451146109225760405163760c807b60e01b815260040160405180910390fd5b6000845167ffffffffffffffff81111561093e5761093e611cc2565b60405190808252806020026020018201604052801561099657816020015b6040805160a081018252600080825260208083018290529282018190526060808301526080820152825260001990920191018161095c5790505b50905060005b8551811015610a6057826001600160a01b03168682815181106109c1576109c16120f1565b6020026020010151604001516001600160a01b0316146109f457604051633ada085b60e01b815260040160405180910390fd5b610a30868281518110610a0957610a096120f1565b6020026020010151868381518110610a2357610a236120f1565b6020026020010151610f92565b828281518110610a4257610a426120f1565b60200260200101819052508080610a5890612107565b91505061099c565b50610a6c82828561107c565b5050505050565b60015433906001600160a01b03168114610afa5760405162461bcd60e51b815260206004820152602960248201527f4f776e61626c6532537465703a2063616c6c6572206973206e6f74207468652060448201527f6e6577206f776e6572000000000000000000000000000000000000000000000060648201526084015b60405180910390fd5b610b0381610f79565b50565b610b0e610f1f565b6001600160a01b038216600081815260056020908152604091829020805460ff191685151590811790915591519182527f086c53cdda86f1b7928b08ada9442961c88dde3dcd4f6df31979ebe2863282ec91015b60405180910390a25050565b60405163099ab95d60e11b81523060048201526001600160a01b0382811660248301526000917f00000000000000000000000000000000000000000000000000000000000000009091169063133572ba906044016020604051808303816000875af1158015610be1573d6000803e3d6000fd5b505050506040513d601f19601f82011682018060405250810190610c059190612120565b60008181526002602052604080822080546001600160a01b0319163390811790915590519293509183917f043a568d47b1a65cdc989ff14c921411b62abf40132dc4b5e78675ba8d0bc9df91a3919050565b610c5f610f1f565b6001600160a01b038216600081815260066020908152604091829020805460ff191685151590811790915591519182527fc928b2b9cf6e950a7b00cdb08c281cd9edd475d8c6639d066e4d619c0b38b50c9101610b62565b6040516323b872dd60e01b8152336004820152306024820152604481018290527f00000000000000000000000000000000000000000000000000000000000000006001600160a01b0316906323b872dd90606401600060405180830381600087803b158015610d2557600080fd5b505af1158015610d39573d6000803e3d6000fd5b50505060008281526002602052604080822080546001600160a01b03191633908117909155905190925083917f043a568d47b1a65cdc989ff14c921411b62abf40132dc4b5e78675ba8d0bc9df91a350565b6001600160a01b0381166000908152600460209081526040808320338452909152902054421115610dcf576040516317ff2d3160e31b815260040160405180910390fd5b610ddb610258426120c1565b6001600160a01b038216600081815260046020908152604080832033808552908352928190209490945583519182528101919091527ffef81711f318ffb08f403c419703c0b2092578bccbb5040a7ace8105cae945b5910160405180910390a150565b6000610e4982611647565b92915050565b610e57610f1f565b600180546001600160a01b0383166001600160a01b03199091168117909155610e886000546001600160a01b031690565b6001600160a01b03167f38d16b8cac22d99fc7c124b9cd0de2d3fa1faef420bfe791d8c362d765e2270060405160405180910390a350565b6000610eca611708565b905090565b600080546001600160a01b038381166001600160a01b0319831681178455604051919092169283917f8be0079c531659141344cd1fd0a4f28419497f9722a3daafe3b4186f6b6457e09190a35050565b6000546001600160a01b0316331461086d5760405162461bcd60e51b815260206004820181905260248201527f4f776e61626c653a2063616c6c6572206973206e6f7420746865206f776e65726044820152606401610af1565b600180546001600160a01b0319169055610b0381610ecf565b6040805160a08101825260008082526020820181905291810182905260608082015260808101919091528260800151421115610fe157604051633536eebd60e01b815260040160405180910390fd5b60c0830151835160009081526002602052604090205460a085015161101092916001600160a01b0316906117f6565b6110278360c0015161102185611647565b846118a7565b6040518060a00160405280846000015181526020018460a001516001600160a01b0316815260200184604001516001600160a01b03168152602001846060015181526020018460200151815250905092915050565b60005b82518110156112515782818151811061109a5761109a6120f1565b6020026020010151600001516000031561124157836001600160a01b03167f00000000000000000000000000000000000000000000000000000000000000006001600160a01b0316636352211e8584815181106110f9576110f96120f1565b6020026020010151600001516040518263ffffffff1660e01b815260040161112391815260200190565b602060405180830381865afa158015611140573d6000803e3d6000fd5b505050506040513d601f19601f820116820180604052508101906111649190612139565b6001600160a01b031614611241577f00000000000000000000000000000000000000000000000000000000000000006001600160a01b03166323b872dd30868685815181106111b5576111b56120f1565b6020908102919091010151516040517fffffffff0000000000000000000000000000000000000000000000000000000060e086901b1681526001600160a01b0393841660048201529290911660248301526044820152606401600060405180830381600087803b15801561122857600080fd5b505af115801561123c573d6000803e3d6000fd5b505050505b61124a81612107565b905061107f565b50600080846001600160a01b031663b6a745e085856040518363ffffffff1660e01b81526004016112839291906121a6565b6000604051808303816000875af11580156112a2573d6000803e3d6000fd5b505050506040513d6000823e601f3d908101601f191682016040526112ca91908101906122c0565b9150915060005b84518110156113f2578481815181106112ec576112ec6120f1565b6020026020010151600001516000141580156113c55750306001600160a01b03167f00000000000000000000000000000000000000000000000000000000000000006001600160a01b0316636352211e87848151811061134e5761134e6120f1565b6020026020010151600001516040518263ffffffff1660e01b815260040161137891815260200190565b602060405180830381865afa158015611395573d6000803e3d6000fd5b505050506040513d601f19601f820116820180604052508101906113b99190612139565b6001600160a01b031614155b156113e257604051627a725960e01b815260040160405180910390fd5b6113eb81612107565b90506112d1565b5080518251146114155760405163760c807b60e01b815260040160405180910390fd5b60005b825181101561163f57306001600160a01b03167f00000000000000000000000000000000000000000000000000000000000000006001600160a01b0316636352211e85848151811061146c5761146c6120f1565b60200260200101516040518263ffffffff1660e01b815260040161149291815260200190565b602060405180830381865afa1580156114af573d6000803e3d6000fd5b505050506040513d601f19601f820116820180604052508101906114d39190612139565b6001600160a01b0316146114f957604051627a725960e01b815260040160405180910390fd5b60006001600160a01b03166002600085848151811061151a5761151a6120f1565b6020908102919091018101518252810191909152604001600020546001600160a01b03161461155c57604051630e05839b60e41b815260040160405180910390fd5b81818151811061156e5761156e6120f1565b60200260200101516002600085848151811061158c5761158c6120f1565b6020026020010151815260200190815260200160002060006101000a8154816001600160a01b0302191690836001600160a01b031602179055508181815181106115d8576115d86120f1565b60200260200101516001600160a01b03168382815181106115fb576115fb6120f1565b60200260200101517f043a568d47b1a65cdc989ff14c921411b62abf40132dc4b5e78675ba8d0bc9df60405160405180910390a361163881612107565b9050611418565b505050505050565b60007f4d7a9f27c403ff9c0f19bce61d76d82f9aa29f8d6d4b0c5474607d9770d1af1782600001518360200151846040015185606001518051906020012086608001518760a001518860c001516040516020016116eb989796959493929190978852602088019690965260408701949094526001600160a01b039283166060870152608086019190915260a085015290811660c08401521660e08201526101000190565b604051602081830303815290604052805190602001209050919050565b6000306001600160a01b037f00000000000000000000000000000000000000000000000000000000000000001614801561176157507f000000000000000000000000000000000000000000000000000000000000000046145b1561178b57507f000000000000000000000000000000000000000000000000000000000000000090565b610eca7f00000000000000000000000000000000000000000000000000000000000000007f00000000000000000000000000000000000000000000000000000000000000007f00000000000000000000000000000000000000000000000000000000000000006118d7565b6001600160a01b038216158015906118205750806001600160a01b0316826001600160a01b031614155b1561183e5760405163dd223ec160e01b815260040160405180910390fd5b806001600160a01b0316836001600160a01b03161415801561188457506001600160a01b0380841660009081526004602090815260408083209385168352929052205442115b156118a25760405163fcc6c15560e01b815260040160405180910390fd5b505050565b6118ba836118b484611921565b8361196f565b6118a2576040516332604cfd60e11b815260040160405180910390fd5b6040805160208101859052908101839052606081018290524660808201523060a082015260009060c0016040516020818303038152906040528051906020012090505b9392505050565b6000610e4961192e611708565b8360405161190160f01b6020820152602281018390526042810182905260009060620160405160208183030381529060405280519060200120905092915050565b600080600061197e8585611ade565b909250905060008160048111156119975761199761237c565b1480156119b55750856001600160a01b0316826001600160a01b0316145b156119c55760019250505061191a565b600080876001600160a01b0316631626ba7e60e01b88886040516024016119ed929190612392565b60408051601f198184030181529181526020820180517bffffffffffffffffffffffffffffffffffffffffffffffffffffffff167fffffffff00000000000000000000000000000000000000000000000000000000909416939093179092529051611a5891906123ab565b600060405180830381855afa9150503d8060008114611a93576040519150601f19603f3d011682016040523d82523d6000602084013e611a98565b606091505b5091509150818015611aab575080516020145b8015611ad257508051630b135d3f60e11b90611ad09083016020908101908401612120565b145b98975050505050505050565b6000808251604103611b145760208301516040840151606085015160001a611b0887828585611b23565b94509450505050611b1c565b506000905060025b9250929050565b6000807f7fffffffffffffffffffffffffffffff5d576e7357a4501ddfe92f46681b20a0831115611b5a5750600090506003611bde565b6040805160008082526020820180845289905260ff881692820192909252606081018690526080810185905260019060a0016020604051602081039080840390855afa158015611bae573d6000803e3d6000fd5b5050604051601f1901519150506001600160a01b038116611bd757600060019250925050611bde565b9150600090505b94509492505050565b600060208284031215611bf957600080fd5b5035919050565b6001600160a01b0381168114610b0357600080fd5b8035611c2081611c00565b919050565b600080600060608486031215611c3a57600080fd5b8335611c4581611c00565b92506020840135611c5581611c00565b929592945050506040919091013590565b60008060408385031215611c7957600080fd5b8235611c8481611c00565b946020939093013593505050565b60008060408385031215611ca557600080fd5b823591506020830135611cb781611c00565b809150509250929050565b634e487b7160e01b600052604160045260246000fd5b60405160e0810167ffffffffffffffff81118282101715611cfb57611cfb611cc2565b60405290565b604051601f8201601f1916810167ffffffffffffffff81118282101715611d2a57611d2a611cc2565b604052919050565b600067ffffffffffffffff821115611d4c57611d4c611cc2565b5060051b60200190565b600082601f830112611d6757600080fd5b813567ffffffffffffffff811115611d8157611d81611cc2565b611d94601f8201601f1916602001611d01565b818152846020838601011115611da957600080fd5b816020850160208301376000918101602001919091529392505050565b600060e08284031215611dd857600080fd5b611de0611cd8565b90508135815260208201356020820152611dfc60408301611c15565b6040820152606082013567ffffffffffffffff811115611e1b57600080fd5b611e2784828501611d56565b60608301525060808201356080820152611e4360a08301611c15565b60a0820152611e5460c08301611c15565b60c082015292915050565b600082601f830112611e7057600080fd5b81356020611e85611e8083611d32565b611d01565b82815260059290921b84018101918181019086841115611ea457600080fd5b8286015b84811015611ee457803567ffffffffffffffff811115611ec85760008081fd5b611ed68986838b0101611d56565b845250918301918301611ea8565b509695505050505050565b600080600060608486031215611f0457600080fd5b833567ffffffffffffffff80821115611f1c57600080fd5b818601915086601f830112611f3057600080fd5b81356020611f40611e8083611d32565b82815260059290921b8401810191818101908a841115611f5f57600080fd5b8286015b84811015611f9757803586811115611f7b5760008081fd5b611f898d86838b0101611dc6565b845250918301918301611f63565b5097505087013592505080821115611fae57600080fd5b611fba87838801611e5f565b93506040860135915080821115611fd057600080fd5b50611fdd86828701611d56565b9150509250925092565b8015158114610b0357600080fd5b6000806040838503121561200857600080fd5b823561201381611c00565b91506020830135611cb781611fe7565b60006020828403121561203557600080fd5b813561191a81611c00565b6000806040838503121561205357600080fd5b823561205e81611c00565b91506020830135611cb781611c00565b60006020828403121561208057600080fd5b813567ffffffffffffffff81111561209757600080fd5b6120a384828501611dc6565b949350505050565b634e487b7160e01b600052601160045260246000fd5b80820180821115610e4957610e496120ab565b6000602082840312156120e657600080fd5b815161191a81611fe7565b634e487b7160e01b600052603260045260246000fd5b600060018201612119576121196120ab565b5060010190565b60006020828403121561213257600080fd5b5051919050565b60006020828403121561214b57600080fd5b815161191a81611c00565b60005b83811015612171578181015183820152602001612159565b50506000910152565b60008151808452612192816020860160208601612156565b601f01601f19169290920160200192915050565b60006040808301818452808651808352606092508286019150828160051b8701016020808a0160005b8481101561223c57898403605f19018652815180518552838101516001600160a01b03908116858701528982015116898601528781015160a08987018190529061221b8288018261217a565b608093840151979093019690965250958301959350908201906001016121cf565b50508782039088015261224f818961217a565b9998505050505050505050565b600082601f83011261226d57600080fd5b8151602061227d611e8083611d32565b82815260059290921b8401810191818101908684111561229c57600080fd5b8286015b84811015611ee45780516122b381611c00565b83529183019183016122a0565b600080604083850312156122d357600080fd5b825167ffffffffffffffff808211156122eb57600080fd5b818501915085601f8301126122ff57600080fd5b8151602061230f611e8083611d32565b82815260059290921b8401810191818101908984111561232e57600080fd5b948201945b8386101561234c57855182529482019490820190612333565b9188015191965090935050508082111561236557600080fd5b506123728582860161225c565b9150509250929050565b634e487b7160e01b600052602160045260246000fd5b8281526040602082015260006120a3604083018461217a565b600082516123bd818460208701612156565b919091019291505056fea164736f6c6343000812000a","linkReferences":{}},"methodIdentifiers":{"ACTION_TYPEHASH()":"5a35b84a","DEREGISTER_KEY_COOLDOWN()":"a39ee825","WITHDRAW_COOLDOWN()":"950d91e9","acceptOwnership()":"79ba5097","allowedModules(address)":"8ba5a0c2","completeWithdrawAccount(uint256)":"1b0c2f03","createSubAccount(address)":"ae60186b","depositSubAccount(uint256)":"d41e4b76","depositSubAccountFor(uint256,address)":"6c6011ba","deregisterSessionKey(address)":"d8efddfc","domainSeparator()":"f698da25","getActionHash((uint256,uint256,address,bytes,uint256,address,address))":"ef817240","owner()":"8da5cb5b","pendingOwner()":"e30c3978","registerSessionKey(address,uint256)":"47a90d44","renounceOwnership()":"715018a6","requestWithdrawAccount(uint256)":"0297d921","sessionKeys(address,address)":"96ade1f9","setAllowedModule(address,bool)":"b1b62825","setTradeExecutor(address,bool)":"7fe37ab4","subAccountToOwner(uint256)":"63f1ddaa","subAccounts()":"779e5012","tradeExecutors(address)":"c8c4e0b2","transferOwnership(address)":"f2fde38b","verifyAndMatch((uint256,uint256,address,bytes,uint256,address,address)[],bytes[],bytes)":"74d906c3","withdrawERC20(address,address,uint256)":"44004cc1","withdrawTimestamp(uint256)":"6d912286"},"id":19}