{"abi":[{"type":"constructor","inputs":[{"name":"subAccounts_","type":"address","internalType":"contract ISubAccounts"},{"name":"cashAsset_","type":"address","internalType":"contract ICashAsset"},{"name":"option_","type":"address","internalType":"contract IOptionAsset"},{"name":"perp_","type":"address","internalType":"contract IPerpAsset"},{"name":"baseAsset_","type":"address","internalType":"contract IWrappedERC20Asset"},{"name":"liquidation_","type":"address","internalType":"contract IDutchAuction"},{"name":"feeds_","type":"tuple","internalType":"struct IPMRM.Feeds","components":[{"name":"spotFeed","type":"address","internalType":"contract ISpotFeed"},{"name":"stableFeed","type":"address","internalType":"contract ISpotFeed"},{"name":"forwardFeed","type":"address","internalType":"contract IForwardFeed"},{"name":"interestRateFeed","type":"address","internalType":"contract IInterestRateFeed"},{"name":"volFeed","type":"address","internalType":"contract IVolFeed"}]},{"name":"viewer_","type":"address","internalType":"contract IBasePortfolioViewer"},{"name":"lib_","type":"address","internalType":"contract IPMRMLib"}],"stateMutability":"nonpayable"},{"type":"function","name":"accId","inputs":[],"outputs":[{"name":"","type":"uint256","internalType":"uint256"}],"stateMutability":"view"},{"type":"function","name":"acceptOwnership","inputs":[],"outputs":[],"stateMutability":"nonpayable"},{"type":"function","name":"adjustmentsPaused","inputs":[],"outputs":[{"name":"","type":"bool","internalType":"bool"}],"stateMutability":"view"},{"type":"function","name":"arrangePortfolio","inputs":[{"name":"accountId","type":"uint256","internalType":"uint256"}],"outputs":[{"name":"portfolio","type":"tuple","internalType":"struct IPMRM.Portfolio","components":[{"name":"spotPrice","type":"uint256","internalType":"uint256"},{"name":"perpPrice","type":"uint256","internalType":"uint256"},{"name":"stablePrice","type":"uint256","internalType":"uint256"},{"name":"cash","type":"int256","internalType":"int256"},{"name":"expiries","type":"tuple[]","internalType":"struct IPMRM.ExpiryHoldings[]","components":[{"name":"expiry","type":"uint256","internalType":"uint256"},{"name":"secToExpiry","type":"uint256","internalType":"uint256"},{"name":"options","type":"tuple[]","internalType":"struct IPMRM.StrikeHolding[]","components":[{"name":"strike","type":"uint256","internalType":"uint256"},{"name":"vol","type":"uint256","internalType":"uint256"},{"name":"amount","type":"int256","internalType":"int256"},{"name":"isCall","type":"bool","internalType":"bool"},{"name":"seenInFilter","type":"bool","internalType":"bool"}]},{"name":"forwardFixedPortion","type":"uint256","internalType":"uint256"},{"name":"forwardVariablePortion","type":"uint256","internalType":"uint256"},{"name":"rate","type":"uint256","internalType":"uint256"},{"name":"minConfidence","type":"uint256","internalType":"uint256"},{"name":"netOptions","type":"uint256","internalType":"uint256"},{"name":"mtm","type":"int256","internalType":"int256"},{"name":"basisScenarioUpMtM","type":"int256","internalType":"int256"},{"name":"basisScenarioDownMtM","type":"int256","internalType":"int256"},{"name":"volShockUp","type":"uint256","internalType":"uint256"},{"name":"volShockDown","type":"uint256","internalType":"uint256"},{"name":"staticDiscount","type":"uint256","internalType":"uint256"}]},{"name":"perpPosition","type":"int256","internalType":"int256"},{"name":"basePosition","type":"uint256","internalType":"uint256"},{"name":"baseValue","type":"uint256","internalType":"uint256"},{"name":"totalMtM","type":"int256","internalType":"int256"},{"name":"basisContingency","type":"int256","internalType":"int256"},{"name":"staticContingency","type":"uint256","internalType":"uint256"},{"name":"confidenceContingency","type":"uint256","internalType":"uint256"},{"name":"minConfidence","type":"uint256","internalType":"uint256"},{"name":"perpValue","type":"int256","internalType":"int256"}]}],"stateMutability":"view"},{"type":"function","name":"baseAsset","inputs":[],"outputs":[{"name":"","type":"address","internalType":"contract IWrappedERC20Asset"}],"stateMutability":"view"},{"type":"function","name":"cashAsset","inputs":[],"outputs":[{"name":"","type":"address","internalType":"contract ICashAsset"}],"stateMutability":"view"},{"type":"function","name":"executeBid","inputs":[{"name":"accountId","type":"uint256","internalType":"uint256"},{"name":"liquidatorId","type":"uint256","internalType":"uint256"},{"name":"portion","type":"uint256","internalType":"uint256"},{"name":"bidAmount","type":"uint256","internalType":"uint256"},{"name":"reservedCash","type":"uint256","internalType":"uint256"}],"outputs":[],"stateMutability":"nonpayable"},{"type":"function","name":"feeBypassedCaller","inputs":[{"name":"sender","type":"address","internalType":"address"}],"outputs":[{"name":"","type":"bool","internalType":"bool"}],"stateMutability":"view"},{"type":"function","name":"feeCharged","inputs":[{"name":"","type":"uint256","internalType":"uint256"},{"name":"","type":"uint256","internalType":"uint256"}],"outputs":[{"name":"","type":"uint256","internalType":"uint256"}],"stateMutability":"view"},{"type":"function","name":"feeRecipientAcc","inputs":[],"outputs":[{"name":"","type":"uint256","internalType":"uint256"}],"stateMutability":"view"},{"type":"function","name":"forwardFeed","inputs":[],"outputs":[{"name":"","type":"address","internalType":"contract IForwardFeed"}],"stateMutability":"view"},{"type":"function","name":"getMargin","inputs":[{"name":"accountId","type":"uint256","internalType":"uint256"},{"name":"isInitial","type":"bool","internalType":"bool"}],"outputs":[{"name":"","type":"int256","internalType":"int256"}],"stateMutability":"view"},{"type":"function","name":"getMarginAndMarkToMarket","inputs":[{"name":"accountId","type":"uint256","internalType":"uint256"},{"name":"isInitial","type":"bool","internalType":"bool"},{"name":"scenarioId","type":"uint256","internalType":"uint256"}],"outputs":[{"name":"margin","type":"int256","internalType":"int256"},{"name":"mtm","type":"int256","internalType":"int256"}],"stateMutability":"view"},{"type":"function","name":"getScenarios","inputs":[],"outputs":[{"name":"","type":"tuple[]","internalType":"struct IPMRM.Scenario[]","components":[{"name":"spotShock","type":"uint256","internalType":"uint256"},{"name":"volShock","type":"uint8","internalType":"enum IPMRM.VolShockDirection"}]}],"stateMutability":"view"},{"type":"function","name":"guardian","inputs":[],"outputs":[{"name":"","type":"address","internalType":"address"}],"stateMutability":"view"},{"type":"function","name":"handleAdjustment","inputs":[{"name":"accountId","type":"uint256","internalType":"uint256"},{"name":"tradeId","type":"uint256","internalType":"uint256"},{"name":"caller","type":"address","internalType":"address"},{"name":"assetDeltas","type":"tuple[]","internalType":"struct ISubAccounts.AssetDelta[]","components":[{"name":"asset","type":"address","internalType":"contract IAsset"},{"name":"subId","type":"uint96","internalType":"uint96"},{"name":"delta","type":"int256","internalType":"int256"}]},{"name":"managerData","type":"bytes","internalType":"bytes"}],"outputs":[],"stateMutability":"nonpayable"},{"type":"function","name":"interestRateFeed","inputs":[],"outputs":[{"name":"","type":"address","internalType":"contract IInterestRateFeed"}],"stateMutability":"view"},{"type":"function","name":"lib","inputs":[],"outputs":[{"name":"","type":"address","internalType":"contract IPMRMLib"}],"stateMutability":"view"},{"type":"function","name":"liquidation","inputs":[],"outputs":[{"name":"","type":"address","internalType":"contract IDutchAuction"}],"stateMutability":"view"},{"type":"function","name":"maxAccountSize","inputs":[],"outputs":[{"name":"","type":"uint256","internalType":"uint256"}],"stateMutability":"view"},{"type":"function","name":"maxExpiries","inputs":[],"outputs":[{"name":"","type":"uint256","internalType":"uint256"}],"stateMutability":"view"},{"type":"function","name":"minOIFee","inputs":[],"outputs":[{"name":"","type":"uint256","internalType":"uint256"}],"stateMutability":"view"},{"type":"function","name":"option","inputs":[],"outputs":[{"name":"","type":"address","internalType":"contract IOptionAsset"}],"stateMutability":"view"},{"type":"function","name":"owner","inputs":[],"outputs":[{"name":"","type":"address","internalType":"address"}],"stateMutability":"view"},{"type":"function","name":"payLiquidationFee","inputs":[{"name":"accountId","type":"uint256","internalType":"uint256"},{"name":"recipient","type":"uint256","internalType":"uint256"},{"name":"cashAmount","type":"uint256","internalType":"uint256"}],"outputs":[],"stateMutability":"nonpayable"},{"type":"function","name":"pendingOwner","inputs":[],"outputs":[{"name":"","type":"address","internalType":"address"}],"stateMutability":"view"},{"type":"function","name":"perp","inputs":[],"outputs":[{"name":"","type":"address","internalType":"contract IPerpAsset"}],"stateMutability":"view"},{"type":"function","name":"renounceOwnership","inputs":[],"outputs":[],"stateMutability":"nonpayable"},{"type":"function","name":"setAdjustmentsPaused","inputs":[{"name":"_paused","type":"bool","internalType":"bool"}],"outputs":[],"stateMutability":"nonpayable"},{"type":"function","name":"setFeeBypassedCaller","inputs":[{"name":"caller","type":"address","internalType":"address"},{"name":"bypassed","type":"bool","internalType":"bool"}],"outputs":[],"stateMutability":"nonpayable"},{"type":"function","name":"setFeeRecipient","inputs":[{"name":"_newAcc","type":"uint256","internalType":"uint256"}],"outputs":[],"stateMutability":"nonpayable"},{"type":"function","name":"setForwardFeed","inputs":[{"name":"_forwardFeed","type":"address","internalType":"contract IForwardFeed"}],"outputs":[],"stateMutability":"nonpayable"},{"type":"function","name":"setGuardian","inputs":[{"name":"_guardian","type":"address","internalType":"address"}],"outputs":[],"stateMutability":"nonpayable"},{"type":"function","name":"setInterestRateFeed","inputs":[{"name":"_interestRateFeed","type":"address","internalType":"contract IInterestRateFeed"}],"outputs":[],"stateMutability":"nonpayable"},{"type":"function","name":"setLiquidation","inputs":[{"name":"_liquidation","type":"address","internalType":"contract IDutchAuction"}],"outputs":[],"stateMutability":"nonpayable"},{"type":"function","name":"setMaxAccountSize","inputs":[{"name":"_maxAccountSize","type":"uint256","internalType":"uint256"}],"outputs":[],"stateMutability":"nonpayable"},{"type":"function","name":"setMaxExpiries","inputs":[{"name":"_maxExpiries","type":"uint256","internalType":"uint256"}],"outputs":[],"stateMutability":"nonpayable"},{"type":"function","name":"setMinOIFee","inputs":[{"name":"newMinOIFee","type":"uint256","internalType":"uint256"}],"outputs":[],"stateMutability":"nonpayable"},{"type":"function","name":"setScenarios","inputs":[{"name":"_scenarios","type":"tuple[]","internalType":"struct IPMRM.Scenario[]","components":[{"name":"spotShock","type":"uint256","internalType":"uint256"},{"name":"volShock","type":"uint8","internalType":"enum IPMRM.VolShockDirection"}]}],"outputs":[],"stateMutability":"nonpayable"},{"type":"function","name":"setSpotFeed","inputs":[{"name":"_spotFeed","type":"address","internalType":"contract ISpotFeed"}],"outputs":[],"stateMutability":"nonpayable"},{"type":"function","name":"setStableFeed","inputs":[{"name":"_stableFeed","type":"address","internalType":"contract ISpotFeed"}],"outputs":[],"stateMutability":"nonpayable"},{"type":"function","name":"setTrustedRiskAssessor","inputs":[{"name":"riskAssessor","type":"address","internalType":"address"},{"name":"trusted","type":"bool","internalType":"bool"}],"outputs":[],"stateMutability":"nonpayable"},{"type":"function","name":"setVolFeed","inputs":[{"name":"_volFeed","type":"address","internalType":"contract IVolFeed"}],"outputs":[],"stateMutability":"nonpayable"},{"type":"function","name":"setWhitelistedCallee","inputs":[{"name":"callee","type":"address","internalType":"address"},{"name":"whitelisted","type":"bool","internalType":"bool"}],"outputs":[],"stateMutability":"nonpayable"},{"type":"function","name":"settleInterest","inputs":[{"name":"accountId","type":"uint256","internalType":"uint256"}],"outputs":[],"stateMutability":"nonpayable"},{"type":"function","name":"settleOptions","inputs":[{"name":"_option","type":"address","internalType":"contract IOptionAsset"},{"name":"accountId","type":"uint256","internalType":"uint256"}],"outputs":[],"stateMutability":"nonpayable"},{"type":"function","name":"settlePerpsWithIndex","inputs":[{"name":"accountId","type":"uint256","internalType":"uint256"}],"outputs":[],"stateMutability":"nonpayable"},{"type":"function","name":"spotFeed","inputs":[],"outputs":[{"name":"","type":"address","internalType":"contract ISpotFeed"}],"stateMutability":"view"},{"type":"function","name":"stableFeed","inputs":[],"outputs":[{"name":"","type":"address","internalType":"contract ISpotFeed"}],"stateMutability":"view"},{"type":"function","name":"subAccounts","inputs":[],"outputs":[{"name":"","type":"address","internalType":"contract ISubAccounts"}],"stateMutability":"view"},{"type":"function","name":"transferOwnership","inputs":[{"name":"newOwner","type":"address","internalType":"address"}],"outputs":[],"stateMutability":"nonpayable"},{"type":"function","name":"trustedRiskAssessor","inputs":[{"name":"","type":"address","internalType":"address"}],"outputs":[{"name":"","type":"bool","internalType":"bool"}],"stateMutability":"view"},{"type":"function","name":"viewer","inputs":[],"outputs":[{"name":"","type":"address","internalType":"contract IBasePortfolioViewer"}],"stateMutability":"view"},{"type":"function","name":"volFeed","inputs":[],"outputs":[{"name":"","type":"address","internalType":"contract IVolFeed"}],"stateMutability":"view"},{"type":"event","name":"AdjustmentsPausedSet","inputs":[{"name":"paused","type":"bool","indexed":false,"internalType":"bool"}],"anonymous":false},{"type":"event","name":"CalleeWhitelisted","inputs":[{"name":"callee","type":"address","indexed":false,"internalType":"address"}],"anonymous":false},{"type":"event","name":"FeeBypassedCallerSet","inputs":[{"name":"caller","type":"address","indexed":false,"internalType":"address"},{"name":"bypassed","type":"bool","indexed":false,"internalType":"bool"}],"anonymous":false},{"type":"event","name":"FeeRecipientSet","inputs":[{"name":"_newAcc","type":"uint256","indexed":false,"internalType":"uint256"}],"anonymous":false},{"type":"event","name":"ForwardFeedUpdated","inputs":[{"name":"forwardFeed","type":"address","indexed":false,"internalType":"contract IForwardFeed"}],"anonymous":false},{"type":"event","name":"GuardianSet","inputs":[{"name":"guardian","type":"address","indexed":false,"internalType":"address"}],"anonymous":false},{"type":"event","name":"InterestRateFeedUpdated","inputs":[{"name":"interestRateFeed","type":"address","indexed":false,"internalType":"contract IInterestRateFeed"}],"anonymous":false},{"type":"event","name":"LiquidationSet","inputs":[{"name":"liquidation","type":"address","indexed":false,"internalType":"address"}],"anonymous":false},{"type":"event","name":"MaxAccountSizeUpdated","inputs":[{"name":"maxAccountSize","type":"uint256","indexed":false,"internalType":"uint256"}],"anonymous":false},{"type":"event","name":"MaxExpiriesUpdated","inputs":[{"name":"maxExpiries","type":"uint256","indexed":false,"internalType":"uint256"}],"anonymous":false},{"type":"event","name":"MinOIFeeSet","inputs":[{"name":"minOIFee","type":"uint256","indexed":false,"internalType":"uint256"}],"anonymous":false},{"type":"event","name":"OptionSettled","inputs":[{"name":"accountId","type":"uint256","indexed":true,"internalType":"uint256"},{"name":"option","type":"address","indexed":false,"internalType":"address"},{"name":"subId","type":"uint256","indexed":false,"internalType":"uint256"},{"name":"amount","type":"int256","indexed":false,"internalType":"int256"},{"name":"value","type":"int256","indexed":false,"internalType":"int256"}],"anonymous":false},{"type":"event","name":"OwnershipTransferStarted","inputs":[{"name":"previousOwner","type":"address","indexed":true,"internalType":"address"},{"name":"newOwner","type":"address","indexed":true,"internalType":"address"}],"anonymous":false},{"type":"event","name":"OwnershipTransferred","inputs":[{"name":"previousOwner","type":"address","indexed":true,"internalType":"address"},{"name":"newOwner","type":"address","indexed":true,"internalType":"address"}],"anonymous":false},{"type":"event","name":"PerpSettled","inputs":[{"name":"accountId","type":"uint256","indexed":true,"internalType":"uint256"},{"name":"perp","type":"address","indexed":false,"internalType":"address"},{"name":"pnl","type":"int256","indexed":false,"internalType":"int256"},{"name":"funding","type":"int256","indexed":false,"internalType":"int256"}],"anonymous":false},{"type":"event","name":"ScenariosUpdated","inputs":[{"name":"scenarios","type":"tuple[]","indexed":false,"internalType":"struct IPMRM.Scenario[]","components":[{"name":"spotShock","type":"uint256","internalType":"uint256"},{"name":"volShock","type":"uint8","internalType":"enum IPMRM.VolShockDirection"}]}],"anonymous":false},{"type":"event","name":"SpotFeedUpdated","inputs":[{"name":"spotFeed","type":"address","indexed":false,"internalType":"contract ISpotFeed"}],"anonymous":false},{"type":"event","name":"StableFeedUpdated","inputs":[{"name":"stableFeed","type":"address","indexed":false,"internalType":"contract ISpotFeed"}],"anonymous":false},{"type":"event","name":"TrustedRiskAssessorUpdated","inputs":[{"name":"riskAssessor","type":"address","indexed":false,"internalType":"address"},{"name":"trusted","type":"bool","indexed":false,"internalType":"bool"}],"anonymous":false},{"type":"event","name":"VolFeedUpdated","inputs":[{"name":"volFeed","type":"address","indexed":false,"internalType":"contract IVolFeed"}],"anonymous":false},{"type":"error","name":"BM_AccountUnderLiquidation","inputs":[]},{"type":"error","name":"BM_AdjustmentsPaused","inputs":[]},{"type":"error","name":"BM_AssetCapExceeded","inputs":[]},{"type":"error","name":"BM_GuardianOnly","inputs":[]},{"type":"error","name":"BM_InvalidBidPortion","inputs":[]},{"type":"error","name":"BM_InvalidLiquidation","inputs":[]},{"type":"error","name":"BM_InvalidMaxAccountSize","inputs":[]},{"type":"error","name":"BM_MinOIFeeTooHigh","inputs":[]},{"type":"error","name":"BM_NotImplemented","inputs":[]},{"type":"error","name":"BM_OnlyAccounts","inputs":[]},{"type":"error","name":"BM_OnlyLiquidationModule","inputs":[]},{"type":"error","name":"BM_UnauthorizedCall","inputs":[]},{"type":"error","name":"PMRM_FindInArrayError","inputs":[]},{"type":"error","name":"PMRM_InsufficientMargin","inputs":[]},{"type":"error","name":"PMRM_InvalidMaxExpiries","inputs":[]},{"type":"error","name":"PMRM_InvalidScenarios","inputs":[]},{"type":"error","name":"PMRM_InvalidSpotShock","inputs":[]},{"type":"error","name":"PMRM_OptionExpired","inputs":[]},{"type":"error","name":"PMRM_TooManyAssets","inputs":[]},{"type":"error","name":"PMRM_TooManyExpiries","inputs":[]},{"type":"error","name":"PMRM_UnsupportedAsset","inputs":[]}],"bytecode":{"object":"0x61016060405260806004556000600755600b6013553480156200002157600080fd5b5060405162005e5538038062005e5583398101604081905262000044916200023c565b8888858462000053336200019a565b6001600160a01b03848116608081905284821660a052600280546001600160a01b031990811686851617909155600380549091169284169290921790915560405163099ab95d60e11b81523060048201819052602482015263133572ba906044016020604051808303816000875af1158015620000d4573d6000803e3d6000fd5b505050506040513d601f19601f82011682018060405250810190620000fa9190620003a3565b60c05250506001600d5550508251600e80546001600160a01b03199081166001600160a01b0393841617909155602085015160118054831691841691909117905560408501516012805483169184169190911790556060850151600f80548316918416919091179055608090940151601080549095169082161790935582166101405250918216610120525091821660e052166101005250620003bd9050565b600180546001600160a01b0319169055620001c181620001c4602090811b62001dd617901c565b50565b600080546001600160a01b038381166001600160a01b0319831681178455604051919092169283917f8be0079c531659141344cd1fd0a4f28419497f9722a3daafe3b4186f6b6457e09190a35050565b6001600160a01b0381168114620001c157600080fd5b8051620002378162000214565b919050565b6000806000806000806000806000898b036101a08112156200025d57600080fd5b8a516200026a8162000214565b60208c0151909a506200027d8162000214565b60408c0151909950620002908162000214565b60608c0151909850620002a38162000214565b60808c0151909750620002b68162000214565b60a08c0151909650620002c98162000214565b945060a060bf1982011215620002de57600080fd5b5060405160a081016001600160401b03811182821017156200031057634e487b7160e01b600052604160045260246000fd5b6040526200032160c08c016200022a565b81526200033160e08c016200022a565b6020820152620003456101008c016200022a565b6040820152620003596101208c016200022a565b60608201526200036d6101408c016200022a565b60808201529250620003836101608b016200022a565b9150620003946101808b016200022a565b90509295985092959850929598565b600060208284031215620003b657600080fd5b5051919050565b60805160a05160c05160e0516101005161012051610140516158ae620005a76000396000818161063501528181610f4a01528181611125015281816129a301528181612e1401528181612e460152612f5c015260008181610796015281816115820152613d8101526000818161071c01528181610db6015281816114440152818161149d015281816128e801528181613cb001528181613cf70152818161404901526140a201526000818161036c015281816109da015281816115270152818161356b01528181613a5b01528181613f580152613fb101526000818161065c015281816132c501526133dd0152600081816104dd01528181610bf501528181610cef015281816114cd01528181611c28015281816122200152818161231701528181612cc301528181612d3c01528181613048015281816131d2015281816132f00152818161340f01528181613c6d01526145db0152600081816105a001528181610a5601528181610b6c01528181610e7401528181610ef801528181610ff1015281816113d80152818161164901528181611c9901528181611e99015281816120270152818161229101528181612448015281816125c401528181612dad01528181613008015281816131420152818161324301528181613361015261349301526158ae6000f3fe608060405234801561001057600080fd5b50600436106103625760003560e01c80638a0dac4a116101c8578063bfa4c00c11610104578063ec344f9e116100a2578063f2dfbf661161007c578063f2dfbf6614610801578063f2fde38b14610814578063f30878c114610827578063f4d0508a1461083a57600080fd5b8063ec344f9e146107dc578063f1f8c61f146107e5578063f2979b75146107ee57600080fd5b8063c8a2ba0a116100de578063c8a2ba0a1461077e578063cdf456e114610791578063d901b19a146107b8578063e30c3978146107cb57600080fd5b8063bfa4c00c14610717578063c09bc5e71461073e578063c454b6131461076957600080fd5b8063a27b1edb11610171578063ac06ba051161014b578063ac06ba05146106ca578063ada655c6146106de578063ada7a7d1146106f1578063bafb798d1461070457600080fd5b8063a27b1edb14610691578063a5158299146106a4578063ab919ee3146106b757600080fd5b806392801230116101a2578063928012301461063057806396964a22146106575780639e4c9ebd1461067e57600080fd5b80638a0dac4a146105f95780638a1d37951461060c5780638da5cb5b1461061f57600080fd5b80635b75ad78116102a257806372c9ab3c1161024057806379ba50971161021a57806379ba5097146105c25780637a6640ef146105ca5780637ecbf012146105d357806381609552146105e657600080fd5b806372c9ab3c1461057557806372fc6b8314610588578063779e50121461059b57600080fd5b806361a9d4b81161027c57806361a9d4b814610512578063623bb445146105325780636691bc0414610545578063715018a61461056d57600080fd5b80635b75ad78146104b55780635cd93cf3146104d85780635d935799146104ff57600080fd5b806334f959571161030f578063452a9320116102e9578063452a93201461046557806351dd58ce14610478578063555449ad1461048b578063559501821461049e57600080fd5b806334f959571461040c5780633c792cec1461041f5780633f210eea1461043257600080fd5b806318c5ff191161034057806318c5ff19146103d35780632976993e146103e657806331a7e4d9146103f957600080fd5b8063010035af146103675780630dfe9868146103ab5780630ef960fd146103c0575b600080fd5b61038e7f000000000000000000000000000000000000000000000000000000000000000081565b6040516001600160a01b0390911681526020015b60405180910390f35b6103be6103b9366004614635565b61084d565b005b6103be6103ce36600461466e565b6108b9565b6103be6103e136600461468b565b610916565b6103be6103f436600461466e565b610982565b6103be6104073660046146a4565b6109d8565b6103be61041a36600461468b565b610a38565b6103be61042d3660046146d0565b610aff565b61045561044036600461466e565b600a6020526000908152604090205460ff1681565b60405190151581526020016103a2565b60065461038e906001600160a01b031681565b6103be61048636600461470b565b610d1e565b60125461038e906001600160a01b031681565b6104a760075481565b6040519081526020016103a2565b6104556104c336600461466e565b600c6020526000908152604090205460ff1681565b61038e7f000000000000000000000000000000000000000000000000000000000000000081565b6103be61050d36600461468b565b610db1565b61052561052036600461468b565b610dde565b6040516103a29190614926565b6104a7610540366004614939565b610eef565b61055861055336600461495e565b610fe6565b604080519283526020830191909152016103a2565b6103be6111ae565b6103be61058336600461468b565b6111c2565b600f5461038e906001600160a01b031681565b61038e7f000000000000000000000000000000000000000000000000000000000000000081565b6103be61122d565b6104a760135481565b60105461038e906001600160a01b031681565b6103be6105f4366004614635565b6112bd565b6103be61060736600461466e565b611321565b6103be61061a36600461466e565b611377565b6000546001600160a01b031661038e565b61038e7f000000000000000000000000000000000000000000000000000000000000000081565b6104a77f000000000000000000000000000000000000000000000000000000000000000081565b6103be61068c366004614add565b6113cd565b6103be61069f36600461468b565b611788565b6103be6106b2366004614c28565b6117f0565b6103be6106c536600461466e565b611a03565b60065461045590600160a01b900460ff1681565b6103be6106ec36600461466e565b611a80565b6103be6106ff366004614ce8565b611ad6565b6103be61071236600461466e565b611b19565b61038e7f000000000000000000000000000000000000000000000000000000000000000081565b6104a761074c366004614d14565b600860209081526000928352604080842090915290825290205481565b610771611b6f565b6040516103a29190614db3565b600e5461038e906001600160a01b031681565b61038e7f000000000000000000000000000000000000000000000000000000000000000081565b6103be6107c636600461468b565b611c11565b6001546001600160a01b031661038e565b6104a760055481565b6104a760045481565b6103be6107fc366004614635565b611d08565b60025461038e906001600160a01b031681565b6103be61082236600461466e565b611d65565b60035461038e906001600160a01b031681565b60115461038e906001600160a01b031681565b610855611e26565b6001600160a01b0382166000818152600a6020908152604091829020805460ff19168515159081179091558251938452908301527ffe22902e101a7d32772c344b8b3b712867377b636a6f475c1f3dc1ff1e400a8591015b60405180910390a15050565b6108c1611e26565b601280546001600160a01b0319166001600160a01b0383169081179091556040519081527ff85f7d4f807a71bc2b53099542745c7baff0f7a5334bea36ccf1c678a36b18ca906020015b60405180910390a150565b61091e611e26565b6013548111158061092f5750601e81115b1561094d57604051630272ee0160e21b815260040160405180910390fd5b60138190556040518181527f520b49625076bfb12eef67bed24aff3e10e13f167ab1b8f8435bbd2e96ebb7939060200161090b565b61098a611e26565b600e80546001600160a01b0319166001600160a01b0383169081179091556040519081527f3211cac5b55f404fa2b229afea47bb8de6ea68f8a8a9718411e34a40643eca8b9060200161090b565b7f00000000000000000000000000000000000000000000000000000000000000006001600160a01b0316826001600160a01b031614610a2a57604051630d8a76e760e31b815260040160405180910390fd5b610a348282611e80565b5050565b610a40611e26565b6040516331a9108f60e11b8152600481018290527f00000000000000000000000000000000000000000000000000000000000000006001600160a01b031690636352211e90602401602060405180830381865afa158015610aa5573d6000803e3d6000fd5b505050506040513d601f19601f82011682018060405250810190610ac99190614dc6565b5060058190556040518181527f6188b2fb9e3b84fa4dcf3d2bcaa36307428592228e6c84f2dca669d01e33b5b49060200161090b565b6002546001600160a01b03163314610b2a5760405163640c523760e11b815260040160405180910390fd5b670de0b6b3a7640000831115610b5357604051631f75638760e11b815260040160405180910390fd5b60405163c756970160e01b8152600481018690526000907f00000000000000000000000000000000000000000000000000000000000000006001600160a01b03169063c756970190602401600060405180830381865afa158015610bbb573d6000803e3d6000fd5b505050506040513d6000823e601f3d908101601f19168201604052610be39190810190614de3565b905060005b8151811015610ce15760007f00000000000000000000000000000000000000000000000000000000000000006001600160a01b0316838381518110610c2f57610c2f614eaa565b6020026020010151600001516001600160a01b031603610c5557610c5284612381565b90505b610cce8888858581518110610c6c57610c6c614eaa565b602002602001015160000151868681518110610c8a57610c8a614eaa565b602002602001015160200151610cc98b878a8a81518110610cad57610cad614eaa565b602002602001015160400151610cc39190614ed6565b9061241d565b612446565b5080610cd981614efd565b915050610be8565b508215610d1657610d1685877f0000000000000000000000000000000000000000000000000000000000000000600087612446565b505050505050565b6006546001600160a01b03163314610d4957604051636185c77160e01b815260040160405180910390fd5b60068054821515600160a01b027fffffffffffffffffffffff00ffffffffffffffffffffffffffffffffffffffff9091161790556040517f3360d551bcfe073c6757f77fbd04ace2c3116867f1e161f1a1402944ba4b23e99061090b90831515815260200190565b610ddb7f000000000000000000000000000000000000000000000000000000000000000082612634565b50565b610e50604051806101c0016040528060008152602001600081526020016000815260200160008152602001606081526020016000815260200160008152602001600081526020016000815260200160008152602001600081526020016000815260200160008152602001600081525090565b60405163c756970160e01b815260048101839052610ee99083906001600160a01b037f0000000000000000000000000000000000000000000000000000000000000000169063c7569701906024015b600060405180830381865afa158015610ebc573d6000803e3d6000fd5b505050506040513d6000823e601f3d908101601f19168201604052610ee49190810190614de3565b612698565b92915050565b600080610f44847f00000000000000000000000000000000000000000000000000000000000000006001600160a01b031663c7569701876040518263ffffffff1660e01b8152600401610e9f91815260200190565b905060007f00000000000000000000000000000000000000000000000000000000000000006001600160a01b0316636a259c7a838660146040518463ffffffff1660e01b8152600401610f9993929190614f16565b606060405180830381865afa158015610fb6573d6000803e3d6000fd5b505050506040513d601f19601f82011682018060405250810190610fda9190614f96565b50909695505050505050565b600080600061103d867f00000000000000000000000000000000000000000000000000000000000000006001600160a01b031663c7569701896040518263ffffffff1660e01b8152600401610e9f91815260200190565b60408051600180825281830190925291925060009190816020015b60408051808201909152600080825260208201528152602001906001900390816110585790505090506014858154811061109457611094614eaa565b9060005260206000209060020201604051806040016040529081600082015481526020016001820160009054906101000a900460ff1660028111156110db576110db614d36565b60028111156110ec576110ec614d36565b815250508160008151811061110357611103614eaa565b6020908102919091010152604051633512ce3d60e11b81526001600160a01b037f00000000000000000000000000000000000000000000000000000000000000001690636a259c7a9061115e9085908a908690600401614fc4565b606060405180830381865afa15801561117b573d6000803e3d6000fd5b505050506040513d601f19601f8201168201806040525081019061119f9190614f96565b50909890975095505050505050565b6111b6611e26565b6111c06000612a27565b565b6111ca611e26565b60088110806111da57506101f481115b156111f857604051633f1499b560e11b815260040160405180910390fd5b60048190556040518181527fa5bdc74d2265a65a385ad0a92f7eb657b8a57fd18f5219252d88c0625eef72a89060200161090b565b60015433906001600160a01b031681146112b45760405162461bcd60e51b815260206004820152602960248201527f4f776e61626c6532537465703a2063616c6c6572206973206e6f74207468652060448201527f6e6577206f776e6572000000000000000000000000000000000000000000000060648201526084015b60405180910390fd5b610ddb81612a27565b6112c5611e26565b6001600160a01b0382166000818152600c6020908152604091829020805460ff19168515159081179091558251938452908301527f9d6e57eceb8eee5486a53878b18931c26d8f8963be71557d11fda70f1d3cad4791016108ad565b611329611e26565b600680546001600160a01b0319166001600160a01b0383169081179091556040519081527fe6c09ffe4572dc9ceaa5ddde4ae41befa655d6fdfe8052077af0970f700e942e9060200161090b565b61137f611e26565b600f80546001600160a01b0319166001600160a01b0383169081179091556040519081527f7d477364690418969d2f6491a83c9484610f0c46e22ea3df3c26cc1b41e3ca399060200161090b565b336001600160a01b037f0000000000000000000000000000000000000000000000000000000000000000161461141657604051637593f62d60e11b815260040160405180910390fd5b61141e612a40565b61142c868686868686612a99565b61143586612b44565b6000805b845181101561162f577f00000000000000000000000000000000000000000000000000000000000000006001600160a01b031685828151811061147e5761147e614eaa565b6020026020010151600001516001600160a01b0316036114cb576114c27f000000000000000000000000000000000000000000000000000000000000000089612bcf565b6001915061161d565b7f00000000000000000000000000000000000000000000000000000000000000006001600160a01b031685828151811061150757611507614eaa565b6020026020010151600001516001600160a01b03161415801561157957507f00000000000000000000000000000000000000000000000000000000000000006001600160a01b031685828151811061156157611561614eaa565b6020026020010151600001516001600160a01b031614155b80156115d457507f00000000000000000000000000000000000000000000000000000000000000006001600160a01b03168582815181106115bc576115bc614eaa565b6020026020010151600001516001600160a01b031614155b156115f257604051630d8a76e760e31b815260040160405180910390fd5b600085828151811061160657611606614eaa565b602002602001015160400151121561161d57600191505b8061162781614efd565b915050611439565b5060405163c756970160e01b8152600481018890526000907f00000000000000000000000000000000000000000000000000000000000000006001600160a01b03169063c756970190602401600060405180830381865afa158015611698573d6000803e3d6000fd5b505050506040513d6000823e601f3d908101601f191682016040526116c09190810190614de3565b9050600454815111801561174657508051600354604051633c1300ad60e11b81526001600160a01b0390911690637826015a906117039085908a90600401614ff1565b602060405180830381865afa158015611720573d6000803e3d6000fd5b505050506040513d601f19601f8201168201806040525081019061174491906150b2565b105b15611764576040516399a3048560e01b815260040160405180910390fd5b8161177057505061177e565b61177b868983612de0565b50505b610d166001600d55565b611790611e26565b69021e19e0c9bab24000008111156117bb576040516341223a1160e01b815260040160405180910390fd5b60078190556040518181527fe3631fec67d43d2a999ccd93a63bb27d3212a076d248804ff91659e1d55b48909060200161090b565b6117f8611e26565b80511580611807575060288151115b1561182557604051637027693d60e01b815260040160405180910390fd5b60005b815181101561197c576729a2241af62c000082828151811061184c5761184c614eaa565b60200260200101516000015111156118775760405163a64fd28760e01b815260040160405180910390fd5b60145481106118f357601482828151811061189457611894614eaa565b6020908102919091018101518254600181810185556000948552938390208251600292830290910190815592820151838501805493959193909260ff19909116919084908111156118e7576118e7614d36565b0217905550505061196a565b81818151811061190557611905614eaa565b60200260200101516014828154811061192057611920614eaa565b90600052602060002090600202016000820151816000015560208201518160010160006101000a81548160ff0219169083600281111561196257611962614d36565b021790555050505b8061197481614efd565b915050611828565b5060145481515b818110156119d357601480548061199c5761199c6150cb565b600082815260208120600260001990930192830201908155600101805460ff191690559055806119cb81614efd565b915050611983565b507f7f7690a00e29674f73d0b3cc104203d77f221faee6da93a98fdf34951fd3d7d1826040516108ad9190614db3565b611a0b611e26565b6001600160a01b038116611a3257604051632fada7c960e21b815260040160405180910390fd5b600280546001600160a01b0319166001600160a01b0383169081179091556040519081527fb42211a759ba7ea2ad7cb3759d646b525d87e1eac61aad629bf9ec51dd1e16889060200161090b565b611a88611e26565b601080546001600160a01b0319166001600160a01b0383169081179091556040519081527f7bcc92b277e317d410c1ee832676307f55ffa68d97669669ce94710c4ccc81f09060200161090b565b6002546001600160a01b03163314611b015760405163640c523760e11b815260040160405180910390fd5b611b148383611b0f84612381565b613006565b505050565b611b21611e26565b601180546001600160a01b0319166001600160a01b0383169081179091556040519081527f56350b5af3e9d3edbabc6b2f8478a39ed6e0a7ed59a682bf3049201b9be932ab9060200161090b565b60606014805480602002602001604051908101604052809291908181526020016000905b82821015611c085783829060005260206000209060020201604051806040016040529081600082015481526020016001820160009054906101000a900460ff166002811115611be457611be4614d36565b6002811115611bf557611bf5614d36565b8152505081526020019060010190611b93565b50505050905090565b6040805160a0810182528281526001600160a01b037f000000000000000000000000000000000000000000000000000000000000000081166020830190815260008385018181526060850182815260808601928352955163b99b453360e01b8152945160048601529151831660248501529051604484015292516064830152915160848201527f00000000000000000000000000000000000000000000000000000000000000009091169063b99b45339060a4016020604051808303816000875af1158015611ce4573d6000803e3d6000fd5b505050506040513d601f19601f82011682018060405250810190610a3491906150b2565b611d10611e26565b6001600160a01b0382166000818152600b6020908152604091829020805460ff191685151517905590519182527f9334f1cf560b8678d242a97ff8aa0f60f61c40b3b7e3bd1a1b6759bb0cec6b9e91016108ad565b611d6d611e26565b600180546001600160a01b0383166001600160a01b03199091168117909155611d9e6000546001600160a01b031690565b6001600160a01b03167f38d16b8cac22d99fc7c124b9cd0de2d3fa1faef420bfe791d8c362d765e2270060405160405180910390a350565b600080546001600160a01b038381166001600160a01b0319831681178455604051919092169283917f8be0079c531659141344cd1fd0a4f28419497f9722a3daafe3b4186f6b6457e09190a35050565b6000546001600160a01b031633146111c05760405162461bcd60e51b815260206004820181905260248201527f4f776e61626c653a2063616c6c6572206973206e6f7420746865206f776e657260448201526064016112ab565b60405163c756970160e01b8152600481018290526000907f00000000000000000000000000000000000000000000000000000000000000006001600160a01b03169063c756970190602401600060405180830381865afa158015611ee8573d6000803e3d6000fd5b505050506040513d6000823e601f3d908101601f19168201604052611f109190810190614de3565b90506000805b825181101561220857846001600160a01b0316838281518110611f3b57611f3b614eaa565b6020026020010151600001516001600160a01b0316036121f657600080866001600160a01b0316633a420c75868581518110611f7957611f79614eaa565b602002602001015160200151878681518110611f9757611f97614eaa565b6020026020010151604001516040518363ffffffff1660e01b8152600401611fc9929190918252602082015260400190565b6040805180830381865afa158015611fe5573d6000803e3d6000fd5b505050506040513d601f19601f8201168201806040525081019061200991906150e1565b91509150806120195750506121f6565b6120238285615106565b93507f00000000000000000000000000000000000000000000000000000000000000006001600160a01b031663b99b45336040518060a001604052808981526020018a6001600160a01b0316815260200188878151811061208657612086614eaa565b60200260200101516020015181526020018887815181106120a9576120a9614eaa565b6020026020010151604001516120be9061512e565b815260006020918201526040805160e085901b6001600160e01b031916815283516004820152918301516001600160a01b03166024830152820151604482015260608201516064820152608090910151608482015260a4016020604051808303816000875af1158015612135573d6000803e3d6000fd5b505050506040513d601f19601f8201168201806040525081019061215991906150b2565b50857fd20a68b2eb88f6253c7ea7a4295e50e29e78bb75bdcc708abf30969d67116b7a8887868151811061218f5761218f614eaa565b6020026020010151602001518887815181106121ad576121ad614eaa565b602002602001015160400151866040516121eb94939291906001600160a01b0394909416845260208401929092526040830152606082015260800190565b60405180910390a250505b8061220081614efd565b915050611f16565b506040805160a0810182528481526001600160a01b037f000000000000000000000000000000000000000000000000000000000000000081166020830190815260008385018181526060850187815260808601928352955163b99b453360e01b8152945160048601529151831660248501529051604484015292516064830152915160848201527f00000000000000000000000000000000000000000000000000000000000000009091169063b99b45339060a4016020604051808303816000875af11580156122dc573d6000803e3d6000fd5b505050506040513d601f19601f8201168201806040525081019061230091906150b2565b5060405163014780ef60e21b8152600481018290527f00000000000000000000000000000000000000000000000000000000000000006001600160a01b03169063051e03bc90602401600060405180830381600087803b15801561236357600080fd5b505af1158015612377573d6000803e3d6000fd5b5050505050505050565b60007f7fffffffffffffffffffffffffffffffffffffffffffffffffffffffffffffff8211156124195760405162461bcd60e51b815260206004820152602860248201527f53616665436173743a2076616c756520646f65736e27742066697420696e206160448201527f6e20696e7432353600000000000000000000000000000000000000000000000060648201526084016112ab565b5090565b600061242b6012600a61522e565b612435838561523a565b61243f919061526a565b9392505050565b7f00000000000000000000000000000000000000000000000000000000000000006001600160a01b031663b99b45336040518060a00160405280888152602001866001600160a01b03168152602001856bffffffffffffffffffffffff168152602001846124b39061512e565b815260006020918201526040805160e085901b6001600160e01b031916815283516004820152918301516001600160a01b03166024830152820151604482015260608201516064820152608090910151608482015260a4016020604051808303816000875af115801561252a573d6000803e3d6000fd5b505050506040513d601f19601f8201168201806040525081019061254e91906150b2565b506040805160a0810182528581526001600160a01b03858116602083019081526bffffffffffffffffffffffff861683850190815260608401868152600060808601908152955163b99b453360e01b815294516004860152915183166024850152516044840152516064830152915160848201527f00000000000000000000000000000000000000000000000000000000000000009091169063b99b45339060a4015b6020604051808303816000875af1158015612610573d6000803e3d6000fd5b505050506040513d601f19601f82011682018060405250810190610d1691906150b2565b60405163b6baa38960e01b8152600481018290526001600160a01b0383169063b6baa38990602401600060405180830381600087803b15801561267657600080fd5b505af115801561268a573d6000803e3d6000fd5b50505050610a348282612bcf565b61270a604051806101c0016040528060008152602001600081526020016000815260200160008152602001606081526020016000815260200160008152602001600081526020016000815260200160008152602001600081526020016000815260200160008152602001600081525090565b600080612716846134c5565b915091508167ffffffffffffffff81111561273357612733614996565b6040519080825280602002602001820160405280156127d657816020015b6127c3604051806101c0016040528060008152602001600081526020016060815260200160008152602001600081526020016000815260200160008152602001600081526020016000815260200160008152602001600081526020016000815260200160008152602001600081525090565b8152602001906001900390816127515790505b506080840152600e5460408051630acdc9a760e21b815281516001600160a01b0390931692632b37269c926004808401939192918290030181865afa158015612823573d6000803e3d6000fd5b505050506040513d601f19601f8201168201806040525081019061284791906152a6565b610180850152835260115460408051630acdc9a760e21b815281516000936001600160a01b031692632b37269c92600480820193918290030181865afa158015612895573d6000803e3d6000fd5b505050506040513d601f19601f820116820180604052508101906128b991906152a6565b506040850181905290506128cd84836136ce565b6128d986858785613a2f565b60a08401511561298c576000807f00000000000000000000000000000000000000000000000000000000000000006001600160a01b03166390f76b186040518163ffffffff1660e01b81526004016040805180830381865afa158015612943573d6000803e3d6000fd5b505050506040513d601f19601f8201168201806040525081019061296791906152a6565b6020880182905261018088015191935091506129839082613dd4565b61018087015250505b60405163d176159f60e01b81526001600160a01b037f0000000000000000000000000000000000000000000000000000000000000000169063d176159f906129d8908790600401614926565b600060405180830381865afa1580156129f5573d6000803e3d6000fd5b505050506040513d6000823e601f3d908101601f19168201604052612a1d91908101906154e7565b9695505050505050565b600180546001600160a01b0319169055610ddb81611dd6565b6002600d5403612a925760405162461bcd60e51b815260206004820152601f60248201527f5265656e7472616e637947756172643a207265656e7472616e742063616c6c0060448201526064016112ab565b6002600d55565b600654600160a01b900460ff1615612ac4576040516383d3980b60e01b815260040160405180910390fd5b612acf858383613dea565b600354604051632e5579f160e21b815230600482015260248101889052604481018790526001600160a01b039091169063b955e7c49060640160006040518083038186803b158015612b2057600080fd5b505afa158015612b34573d6000803e3d6000fd5b50505050610d1684878786613f29565b60025460405163c9008b4360e01b8152600481018390526001600160a01b039091169063c9008b4390602401602060405180830381865afa158015612b8d573d6000803e3d6000fd5b505050506040513d601f19601f82011682018060405250810190612bb191906155df565b15610ddb57604051633969adab60e11b815260040160405180910390fd5b604051637540fec360e01b81526004810182905260009081906001600160a01b03851690637540fec39060240160408051808303816000875af1158015612c1a573d6000803e3d6000fd5b505050506040513d601f19601f82011682018060405250810190612c3e91906152a6565b90925090506000612c4f8284615106565b604080516001600160a01b03881681526020810186905290810184905290915084907fc599cf717cd036b5d2f5cbf8668ba551a23391949e9e796508447eb17fb010139060600160405180910390a280600003612cad575050505050565b60405163014780ef60e21b8152600481018290527f00000000000000000000000000000000000000000000000000000000000000006001600160a01b03169063051e03bc90602401600060405180830381600087803b158015612d0f57600080fd5b505af1158015612d23573d6000803e3d6000fd5b50506040805160a0810182528781526001600160a01b037f000000000000000000000000000000000000000000000000000000000000000081166020830190815260008385018181526060850189815260808601928352955163b99b453360e01b8152945160048601529151831660248501529051604484015292516064830152915160848201527f0000000000000000000000000000000000000000000000000000000000000000909116925063b99b4533915060a4016125f1565b6000612dec8383612698565b6001600160a01b0385166000908152600c602052604090205490915060ff1615612f425760007f00000000000000000000000000000000000000000000000000000000000000006001600160a01b0316636a259c7a8360007f00000000000000000000000000000000000000000000000000000000000000006001600160a01b031663b8d806146040518163ffffffff1660e01b8152600401600060405180830381865afa158015612ea2573d6000803e3d6000fd5b505050506040513d6000823e601f3d908101601f19168201604052612eca91908101906155fc565b6040518463ffffffff1660e01b8152600401612ee893929190614fc4565b606060405180830381865afa158015612f05573d6000803e3d6000fd5b505050506040513d601f19601f82011682018060405250810190612f299190614f96565b5050905060008112612f3c575050505050565b50612fed565b604051633512ce3d60e11b81526000906001600160a01b037f00000000000000000000000000000000000000000000000000000000000000001690636a259c7a90612f97908590600190601490600401614f16565b606060405180830381865afa158015612fb4573d6000803e3d6000fd5b505050506040513d601f19601f82011682018060405250810190612fd89190614f96565b5050905060008112612feb575050505050565b505b604051630a40457b60e01b815260040160405180910390fd5b7f00000000000000000000000000000000000000000000000000000000000000006001600160a01b031663b99b45336040518060a001604052808681526020017f00000000000000000000000000000000000000000000000000000000000000006001600160a01b0316815260200160008152602001846130869061512e565b815260006020918201526040805160e085901b6001600160e01b031916815283516004820152918301516001600160a01b03166024830152820151604482015260608201516064820152608090910151608482015260a4016020604051808303816000875af11580156130fd573d6000803e3d6000fd5b505050506040513d601f19601f8201168201806040525081019061312191906150b2565b50604051635298145760e01b81526004810183905230906001600160a01b037f00000000000000000000000000000000000000000000000000000000000000001690635298145790602401602060405180830381865afa158015613189573d6000803e3d6000fd5b505050506040513d601f19601f820116820180604052508101906131ad9190614dc6565b6001600160a01b0316036132b9576040805160a0810182528381526001600160a01b037f000000000000000000000000000000000000000000000000000000000000000081166020830190815260008385018181526060850187815260808601928352955163b99b453360e01b8152945160048601529151831660248501529051604484015292516064830152915160848201527f00000000000000000000000000000000000000000000000000000000000000009091169063b99b45339060a4015b6020604051808303816000875af115801561328f573d6000803e3d6000fd5b505050506040513d601f19601f820116820180604052508101906132b391906150b2565b50505050565b6040805160a0810182527f000000000000000000000000000000000000000000000000000000000000000081526001600160a01b037f000000000000000000000000000000000000000000000000000000000000000081166020830190815260008385018181526060850187815260808601928352955163b99b453360e01b8152945160048601529151831660248501529051604484015292516064830152915160848201527f00000000000000000000000000000000000000000000000000000000000000009091169063b99b45339060a4016020604051808303816000875af11580156133ac573d6000803e3d6000fd5b505050506040513d601f19601f820116820180604052508101906133d091906150b2565b506040805160c0810182527f00000000000000000000000000000000000000000000000000000000000000008152602081018481526001600160a01b037f000000000000000000000000000000000000000000000000000000000000000081168385019081526000606085018181526080860188815260a0870183815297516315a3e7ff60e31b815296516004880152945160248701529151831660448601529051606485015291516084840152925160a483015260e060c483015260e48201527f00000000000000000000000000000000000000000000000000000000000000009091169063ad1f3ff89061010401613270565b805160135460009160609181106134de576013546134e0565b805b67ffffffffffffffff8111156134f8576134f8614996565b60405190808252806020026020018201604052801561353d57816020015b60408051808201909152600080825260208201528152602001906001900390816135165790505b50915060005b818110156136c757600085828151811061355f5761355f614eaa565b602002602001015190507f00000000000000000000000000000000000000000000000000000000000000006001600160a01b031681600001516001600160a01b0316036136b65760006135bd6135b8836020015161410f565b614193565b505090506000805b8781101561364457828782815181106135e0576135e0614eaa565b60200260200101516000015167ffffffffffffffff16036136325786818151811061360d5761360d614eaa565b6020026020010151602001805180919061362690614efd565b90525060019150613644565b8061363c81614efd565b9150506135c5565b50806136b357601354870361366c5760405163e0d70cbf60e01b815260040160405180910390fd5b6040805180820190915267ffffffffffffffff8316815260016020820152868861369581614efd565b9950815181106136a7576136a7614eaa565b60200260200101819052505b50505b506136c081614efd565b9050613543565b5050915091565b60005b826080015151811015611b14576012548251600091829182916001600160a01b0316906380f1d2669087908790811061370c5761370c614eaa565b6020908102919091010151516040516001600160e01b031960e084901b16815267ffffffffffffffff9091166004820152602401606060405180830381865afa15801561375d573d6000803e3d6000fd5b505050506040513d601f19601f820116820180604052508101906137819190614f96565b600f548851939650919450925060009182916001600160a01b03169063b0487ff6908990899081106137b5576137b5614eaa565b6020908102919091010151516040516001600160e01b031960e084901b16815267ffffffffffffffff90911660048201526024016040805180830381865afa158015613805573d6000803e3d6000fd5b505050506040513d601f19601f8201168201806040525081019061382991906152a6565b9150915060006138398483613dd4565b905060004267ffffffffffffffff1689898151811061385a5761385a614eaa565b60200260200101516000015167ffffffffffffffff161161387c5760006138af565b4289898151811061388f5761388f614eaa565b60200260200101516000015167ffffffffffffffff166138af91906156b1565b9050604051806101c001604052808a8a815181106138cf576138cf614eaa565b60200260200101516000015167ffffffffffffffff1681526020018267ffffffffffffffff1681526020018a8a8151811061390c5761390c614eaa565b60200260200101516020015167ffffffffffffffff81111561393057613930614996565b60405190808252806020026020018201604052801561399757816020015b6139846040518060a001604052806000815260200160008152602001600081526020016000151581526020016000151581525090565b81526020019060019003908161394e5790505b5081526020018881526020018781526020016139bc6139b76000886141cc565b6141db565b815260200183815260200160008152602001600081526020016000815260200160008152602001600081526020016000815260200160008152508a608001518981518110613a0c57613a0c614eaa565b60200260200101819052505050505050505080613a2890614efd565b90506136d1565b60005b8251811015613dcd576000838281518110613a4f57613a4f614eaa565b602002602001015190507f00000000000000000000000000000000000000000000000000000000000000006001600160a01b031681600001516001600160a01b031603613c61576000806000613aab6135b8856020015161410f565b9250925092506000613ac78960800151858b608001515161422d565b9050600089608001518281518110613ae157613ae1614eaa565b602090810291909101015160105490915060009081906001600160a01b03166396159550613b0e88614286565b613b178a61430e565b6040516001600160e01b031960e085901b1681526fffffffffffffffffffffffffffffffff909216600483015267ffffffffffffffff1660248201526044016040805180830381865afa158015613b72573d6000803e3d6000fd5b505050506040513d601f19601f82011682018060405250810190613b9691906152a6565b91509150613ba8818460c00151613dd4565b60c08401526040880151613bbb9061438e565b8360e001818151613bcc91906156c4565b90525089516000908b9086908110613be657613be6614eaa565b60200260200101516020018051613bfc906156d7565b908181525090506040518060a001604052808881526020018481526020018a60400151815260200187151581526020016000151581525084604001518281518110613c4957613c49614eaa565b60200260200101819052505050505050505050613dbc565b80516001600160a01b037f00000000000000000000000000000000000000000000000000000000000000008116911603613ca45760408101516060860152613dbc565b80516001600160a01b037f00000000000000000000000000000000000000000000000000000000000000008116911603613d755760408181015160a087015251633d26161d60e11b8152600481018790527f00000000000000000000000000000000000000000000000000000000000000006001600160a01b031690637a4c2c3a90602401602060405180830381865afa158015613d46573d6000803e3d6000fd5b505050506040513d601f19601f82011682018060405250810190613d6a91906150b2565b6101a0860152613dbc565b80516001600160a01b037f00000000000000000000000000000000000000000000000000000000000000008116911603613dbc57613db681604001516141db565b60c08601525b50613dc681614efd565b9050613a32565b5050505050565b6000818310613de3578161243f565b5090919050565b801580613df8575082600954145b15613e0257505050565b60098390556000613e15828401846156ee565b905060005b8151811015613dcd57600b6000838381518110613e3957613e39614eaa565b602090810291909101810151516001600160a01b031682528101919091526040016000205460ff16613e7e5760405163319f196160e21b815260040160405180910390fd5b818181518110613e9057613e90614eaa565b6020026020010151600001516001600160a01b0316636f13e0ac838381518110613ebc57613ebc614eaa565b6020026020010151602001516040518263ffffffff1660e01b8152600401613ee4919061583c565b600060405180830381600087803b158015613efe57600080fd5b505af1158015613f12573d6000803e3d6000fd5b505050508080613f2190614efd565b915050613e1a565b6001600160a01b0384166000908152600a602052604090205460ff166132b3576000805b8251811015614104577f00000000000000000000000000000000000000000000000000000000000000006001600160a01b0316838281518110613f9257613f92614eaa565b6020026020010151600001516001600160a01b031603614047576140367f0000000000000000000000000000000000000000000000000000000000000000601260009054906101000a90046001600160a01b0316858481518110613ff857613ff8614eaa565b60200260200101516040015186858151811061401657614016614eaa565b6020026020010151602001516bffffffffffffffffffffffff16886143a1565b61404090836156c4565b91506140f2565b7f00000000000000000000000000000000000000000000000000000000000000006001600160a01b031683828151811061408357614083614eaa565b6020026020010151600001516001600160a01b0316036140f2576140e57f00000000000000000000000000000000000000000000000000000000000000008483815181106140d3576140d3614eaa565b602002602001015160400151866144c2565b6140ef90836156c4565b91505b806140fc81614efd565b915050613f4d565b50613dcd84826145bc565b60006bffffffffffffffffffffffff8211156124195760405162461bcd60e51b815260206004820152602660248201527f53616665436173743a2076616c756520646f65736e27742066697420696e203960448201527f362062697473000000000000000000000000000000000000000000000000000060648201526084016112ab565b63ffffffff81166000806141ba602085901c677fffffffffffffff166402540be40061588a565b92949293605f1c600116151592915050565b6000818313613de3578161243f565b6000808212156124195760405162461bcd60e51b815260206004820181905260248201527f53616665436173743a2076616c7565206d75737420626520706f73697469766560448201526064016112ab565b6000805b8281101561426c578385828151811061424c5761424c614eaa565b6020026020010151600001510361426457905061243f565b600101614231565b50604051631865561760e11b815260040160405180910390fd5b60006fffffffffffffffffffffffffffffffff8211156124195760405162461bcd60e51b815260206004820152602760248201527f53616665436173743a2076616c756520646f65736e27742066697420696e203160448201527f323820626974730000000000000000000000000000000000000000000000000060648201526084016112ab565b600067ffffffffffffffff8211156124195760405162461bcd60e51b815260206004820152602660248201527f53616665436173743a2076616c756520646f65736e27742066697420696e203660448201527f342062697473000000000000000000000000000000000000000000000000000060648201526084016112ab565b6000808212156124195781600003610ee9565b6000806143b06135b88561410f565b50506040516359a7971b60e11b815267ffffffffffffffff821660048201529091506000906001600160a01b0388169063b34f2e36906024016040805180830381865afa158015614405573d6000803e3d6000fd5b505050506040513d601f19601f8201168201806040525081019061442991906152a6565b50600354604051633699645560e01b81526001600160a01b038b8116600483015260248201899052604482018a9052606482018890526084820184905292935091169063369964559060a401602060405180830381865afa158015614492573d6000803e3d6000fd5b505050506040513d601f19601f820116820180604052508101906144b691906150b2565b98975050505050505050565b600080846001600160a01b03166390f76b186040518163ffffffff1660e01b81526004016040805180830381865afa158015614502573d6000803e3d6000fd5b505050506040513d601f19601f8201168201806040525081019061452691906152a6565b50600354604051633699645560e01b81526001600160a01b0388811660048301526000602483015260448201889052606482018790526084820184905292935091169063369964559060a401602060405180830381865afa15801561458f573d6000803e3d6000fd5b505050506040513d601f19601f820116820180604052508101906145b391906150b2565b95945050505050565b8015806145c95750600554155b156145d2575050565b610a34826005547f00000000000000000000000000000000000000000000000000000000000000006000610cc9866007546000818311613de3578161243f565b6001600160a01b0381168114610ddb57600080fd5b8015158114610ddb57600080fd5b6000806040838503121561464857600080fd5b823561465381614612565b9150602083013561466381614627565b809150509250929050565b60006020828403121561468057600080fd5b813561243f81614612565b60006020828403121561469d57600080fd5b5035919050565b600080604083850312156146b757600080fd5b82356146c281614612565b946020939093013593505050565b600080600080600060a086880312156146e857600080fd5b505083359560208501359550604085013594606081013594506080013592509050565b60006020828403121561471d57600080fd5b813561243f81614627565b600081518084526020808501945080840160005b838110156147865781518051885283810151848901526040808201519089015260608082015115159089015260809081015115159088015260a0909601959082019060010161473c565b509495945050505050565b600081518084526020808501808196508360051b8101915082860160005b8581101561486f57828403895281516101c081518652868201518787015260408083015182828901526147e483890182614728565b606085810151908a0152608080860151908a015260a080860151908a015260c080860151908a015260e080860151908a015261010080860151908a015261012080860151908a015261014080860151908a015261016080860151908a015261018080860151908a01526101a094850151949098019390935250505097840197908401906001016147af565b5091979650505050505050565b60006101c08251845260208301516020850152604083015160408501526060830151606085015260808301518160808601526148ba82860182614791565b60a0858101519087015260c0808601519087015260e08086015190870152610100808601519087015261012080860151908701526101408086015190870152610160808601519087015261018080860151908701526101a0948501519490950193909352509192915050565b60208152600061243f602083018461487c565b6000806040838503121561494c57600080fd5b82359150602083013561466381614627565b60008060006060848603121561497357600080fd5b83359250602084013561498581614627565b929592945050506040919091013590565b634e487b7160e01b600052604160045260246000fd5b6040516060810167ffffffffffffffff811182821017156149cf576149cf614996565b60405290565b6040805190810167ffffffffffffffff811182821017156149cf576149cf614996565b60405160a0810167ffffffffffffffff811182821017156149cf576149cf614996565b6040516101c0810167ffffffffffffffff811182821017156149cf576149cf614996565b604051601f8201601f1916810167ffffffffffffffff81118282101715614a6857614a68614996565b604052919050565b600067ffffffffffffffff821115614a8a57614a8a614996565b5060051b60200190565b60008083601f840112614aa657600080fd5b50813567ffffffffffffffff811115614abe57600080fd5b602083019150836020828501011115614ad657600080fd5b9250929050565b60008060008060008060a08789031215614af657600080fd5b8635955060208088013595506040880135614b1081614612565b9450606088013567ffffffffffffffff80821115614b2d57600080fd5b818a0191508a601f830112614b4157600080fd5b8135614b54614b4f82614a70565b614a3f565b81815260609091028301840190848101908d831115614b7257600080fd5b938501935b82851015614be3576060858f031215614b905760008081fd5b614b986149ac565b8535614ba381614612565b8152858701356bffffffffffffffffffffffff81168114614bc45760008081fd5b8188015260408681013590820152825260609094019390850190614b77565b9750505060808a0135925080831115614bfb57600080fd5b5050614c0989828a01614a94565b979a9699509497509295939492505050565b60038110610ddb57600080fd5b60006020808385031215614c3b57600080fd5b823567ffffffffffffffff811115614c5257600080fd5b8301601f81018513614c6357600080fd5b8035614c71614b4f82614a70565b81815260069190911b82018301908381019087831115614c9057600080fd5b928401925b82841015614cdd5760408489031215614cae5760008081fd5b614cb66149d5565b8435815285850135614cc781614c1b565b8187015282526040939093019290840190614c95565b979650505050505050565b600080600060608486031215614cfd57600080fd5b505081359360208301359350604090920135919050565b60008060408385031215614d2757600080fd5b50508035926020909101359150565b634e487b7160e01b600052602160045260246000fd5b60038110614d6a57634e487b7160e01b600052602160045260246000fd5b9052565b600081518084526020808501945080840160005b8381101561478657815180518852830151614d9f84890182614d4c565b506040969096019590820190600101614d82565b60208152600061243f6020830184614d6e565b600060208284031215614dd857600080fd5b815161243f81614612565b60006020808385031215614df657600080fd5b825167ffffffffffffffff811115614e0d57600080fd5b8301601f81018513614e1e57600080fd5b8051614e2c614b4f82614a70565b81815260609182028301840191848201919088841115614e4b57600080fd5b938501935b83851015614e9e5780858a031215614e685760008081fd5b614e706149ac565b8551614e7b81614612565b815285870151878201526040808701519082015283529384019391850191614e50565b50979650505050505050565b634e487b7160e01b600052603260045260246000fd5b634e487b7160e01b600052601160045260246000fd5b8181036000831280158383131683831282161715614ef657614ef6614ec0565b5092915050565b600060018201614f0f57614f0f614ec0565b5060010190565b606081526000614f29606083018661487c565b60208515158185015260408483038186015282865480855283850191508760005283600020945060005b81811015614f87578554835260ff600187015416614f7386850182614d4c565b506002959095019491830191600101614f53565b50909998505050505050505050565b600080600060608486031215614fab57600080fd5b8351925060208401519150604084015190509250925092565b606081526000614fd7606083018661487c565b84151560208401528281036040840152612a1d8185614d6e565b6040808252835182820181905260009190606090818501906020808901865b8381101561504657815180516001600160a01b031686528381015184870152870151878601529385019390820190600101615010565b5050868303818801528751808452888201938201925060005b818110156150a357845180516001600160a01b03168552838101516bffffffffffffffffffffffff168486015287015187850152938201939285019260010161505f565b50919998505050505050505050565b6000602082840312156150c457600080fd5b5051919050565b634e487b7160e01b600052603160045260246000fd5b600080604083850312156150f457600080fd5b82519150602083015161466381614627565b808201828112600083128015821682158216171561512657615126614ec0565b505092915050565b6000600160ff1b820161514357615143614ec0565b5060000390565b600181815b8085111561518557816000190482111561516b5761516b614ec0565b8085161561517857918102915b93841c939080029061514f565b509250929050565b60008261519c57506001610ee9565b816151a957506000610ee9565b81600181146151bf57600281146151c9576151e5565b6001915050610ee9565b60ff8411156151da576151da614ec0565b50506001821b610ee9565b5060208310610133831016604e8410600b8410161715615208575081810a610ee9565b615212838361514a565b806000190482111561522657615226614ec0565b029392505050565b600061243f838361518d565b80820260008212600160ff1b8414161561525657615256614ec0565b8181058314821517610ee957610ee9614ec0565b60008261528757634e487b7160e01b600052601260045260246000fd5b600160ff1b8214600019841416156152a1576152a1614ec0565b500590565b600080604083850312156152b957600080fd5b505080516020909101519092909150565b600082601f8301126152db57600080fd5b815160206152eb614b4f83614a70565b82815260a0928302850182019282820191908785111561530a57600080fd5b8387015b858110156153775781818a0312156153265760008081fd5b61532e6149f8565b8151815285820151868201526040808301519082015260608083015161535381614627565b9082015260808281015161536681614627565b90820152845292840192810161530e565b5090979650505050505050565b600082601f83011261539557600080fd5b815160206153a5614b4f83614a70565b82815260059290921b840181019181810190868411156153c457600080fd5b8286015b848110156154dc57805167ffffffffffffffff808211156153e95760008081fd5b908801906101c0828b03601f19018113156154045760008081fd5b61540c614a1b565b87840151815260408085015189830152606080860151858111156154305760008081fd5b61543e8f8c838a01016152ca565b8385015250608094508486015181840152505060a0808501518483015260c0935083850151818301525060e08085015184830152610100935083850151818301525061012080850151848301526101409350838501518183015250610160808501518483015261018093508385015181830152506101a0808501518483015282850151818301525080875250505050838301925083810190506153c8565b509695505050505050565b6000602082840312156154f957600080fd5b815167ffffffffffffffff8082111561551157600080fd5b908301906101c0828603121561552657600080fd5b61552e614a1b565b8251815260208301516020820152604083015160408201526060830151606082015260808301518281111561556257600080fd5b61556e87828601615384565b60808301525060a0838101519082015260c0808401519082015260e08084015190820152610100808401519082015261012080840151908201526101408084015190820152610160808401519082015261018080840151908201526101a09283015192810192909252509392505050565b6000602082840312156155f157600080fd5b815161243f81614627565b6000602080838503121561560f57600080fd5b825167ffffffffffffffff81111561562657600080fd5b8301601f8101851361563757600080fd5b8051615645614b4f82614a70565b81815260069190911b8201830190838101908783111561566457600080fd5b928401925b82841015614cdd57604084890312156156825760008081fd5b61568a6149d5565b845181528585015161569b81614c1b565b8187015282526040939093019290840190615669565b81810381811115610ee957610ee9614ec0565b80820180821115610ee957610ee9614ec0565b6000816156e6576156e6614ec0565b506000190190565b6000602080838503121561570157600080fd5b823567ffffffffffffffff8082111561571957600080fd5b818501915085601f83011261572d57600080fd5b813561573b614b4f82614a70565b81815260059190911b8301840190848101908883111561575a57600080fd5b8585015b8381101561582f578035858111156157765760008081fd5b86016040601f19828d03810182131561578f5760008081fd5b6157976149d5565b8a8401356157a481614612565b815283830135898111156157b85760008081fd5b8085019450508d603f8501126157ce5760008081fd5b8a840135898111156157e2576157e2614996565b6157f28c84601f84011601614a3f565b92508083528e848287010111156158095760008081fd5b808486018d85013760009083018c0152808b01919091528552505091860191860161575e565b5098975050505050505050565b600060208083528351808285015260005b818110156158695785810183015185820160400152820161584d565b506000604082860101526040601f19601f8301168501019250505092915050565b8082028115828204841417610ee957610ee9614ec056fea164736f6c6343000812000a","linkReferences":{}},"methodIdentifiers":{"accId()":"96964a22","acceptOwnership()":"79ba5097","adjustmentsPaused()":"ac06ba05","arrangePortfolio(uint256)":"61a9d4b8","baseAsset()":"cdf456e1","cashAsset()":"5cd93cf3","executeBid(uint256,uint256,uint256,uint256,uint256)":"3c792cec","feeBypassedCaller(address)":"3f210eea","feeCharged(uint256,uint256)":"c09bc5e7","feeRecipientAcc()":"ec344f9e","forwardFeed()":"555449ad","getMargin(uint256,bool)":"623bb445","getMarginAndMarkToMarket(uint256,bool,uint256)":"6691bc04","getScenarios()":"c454b613","guardian()":"452a9320","handleAdjustment(uint256,uint256,address,(address,uint96,int256)[],bytes)":"9e4c9ebd","interestRateFeed()":"72fc6b83","lib()":"92801230","liquidation()":"f2dfbf66","maxAccountSize()":"f1f8c61f","maxExpiries()":"7a6640ef","minOIFee()":"55950182","option()":"010035af","owner()":"8da5cb5b","payLiquidationFee(uint256,uint256,uint256)":"ada7a7d1","pendingOwner()":"e30c3978","perp()":"bfa4c00c","renounceOwnership()":"715018a6","setAdjustmentsPaused(bool)":"51dd58ce","setFeeBypassedCaller(address,bool)":"0dfe9868","setFeeRecipient(uint256)":"34f95957","setForwardFeed(address)":"0ef960fd","setGuardian(address)":"8a0dac4a","setInterestRateFeed(address)":"8a1d3795","setLiquidation(address)":"ab919ee3","setMaxAccountSize(uint256)":"72c9ab3c","setMaxExpiries(uint256)":"18c5ff19","setMinOIFee(uint256)":"a27b1edb","setScenarios((uint256,uint8)[])":"a5158299","setSpotFeed(address)":"2976993e","setStableFeed(address)":"bafb798d","setTrustedRiskAssessor(address,bool)":"81609552","setVolFeed(address)":"ada655c6","setWhitelistedCallee(address,bool)":"f2979b75","settleInterest(uint256)":"d901b19a","settleOptions(address,uint256)":"31a7e4d9","settlePerpsWithIndex(uint256)":"5d935799","spotFeed()":"c8a2ba0a","stableFeed()":"f4d0508a","subAccounts()":"779e5012","transferOwnership(address)":"f2fde38b","trustedRiskAssessor(address)":"5b75ad78","viewer()":"f30878c1","volFeed()":"7ecbf012"},"id":38}