{"abi":[{"type":"constructor","inputs":[{"name":"subAccounts_","type":"address","internalType":"contract ISubAccounts"},{"name":"cashAsset_","type":"address","internalType":"contract ICashAsset"},{"name":"option_","type":"address","internalType":"contract IOptionAsset"},{"name":"perp_","type":"address","internalType":"contract IPerpAsset"},{"name":"baseAsset_","type":"address","internalType":"contract IWrappedERC20Asset"},{"name":"liquidation_","type":"address","internalType":"contract IDutchAuction"},{"name":"feeds_","type":"tuple","internalType":"struct IPMRM.Feeds","components":[{"name":"spotFeed","type":"address","internalType":"contract ISpotFeed"},{"name":"stableFeed","type":"address","internalType":"contract ISpotFeed"},{"name":"forwardFeed","type":"address","internalType":"contract IForwardFeed"},{"name":"interestRateFeed","type":"address","internalType":"contract IInterestRateFeed"},{"name":"volFeed","type":"address","internalType":"contract IVolFeed"}]},{"name":"viewer_","type":"address","internalType":"contract IBasePortfolioViewer"},{"name":"lib_","type":"address","internalType":"contract IPMRMLib"}],"stateMutability":"nonpayable"},{"type":"function","name":"accId","inputs":[],"outputs":[{"name":"","type":"uint256","internalType":"uint256"}],"stateMutability":"view"},{"type":"function","name":"acceptOwnership","inputs":[],"outputs":[],"stateMutability":"nonpayable"},{"type":"function","name":"adjustmentsPaused","inputs":[],"outputs":[{"name":"","type":"bool","internalType":"bool"}],"stateMutability":"view"},{"type":"function","name":"arrangePortfolio","inputs":[{"name":"accountId","type":"uint256","internalType":"uint256"}],"outputs":[{"name":"portfolio","type":"tuple","internalType":"struct IPMRM.Portfolio","components":[{"name":"spotPrice","type":"uint256","internalType":"uint256"},{"name":"perpPrice","type":"uint256","internalType":"uint256"},{"name":"stablePrice","type":"uint256","internalType":"uint256"},{"name":"cash","type":"int256","internalType":"int256"},{"name":"expiries","type":"tuple[]","internalType":"struct IPMRM.ExpiryHoldings[]","components":[{"name":"expiry","type":"uint256","internalType":"uint256"},{"name":"secToExpiry","type":"uint256","internalType":"uint256"},{"name":"options","type":"tuple[]","internalType":"struct IPMRM.StrikeHolding[]","components":[{"name":"strike","type":"uint256","internalType":"uint256"},{"name":"vol","type":"uint256","internalType":"uint256"},{"name":"amount","type":"int256","internalType":"int256"},{"name":"isCall","type":"bool","internalType":"bool"},{"name":"seenInFilter","type":"bool","internalType":"bool"}]},{"name":"forwardFixedPortion","type":"uint256","internalType":"uint256"},{"name":"forwardVariablePortion","type":"uint256","internalType":"uint256"},{"name":"rate","type":"uint256","internalType":"uint256"},{"name":"minConfidence","type":"uint256","internalType":"uint256"},{"name":"netOptions","type":"uint256","internalType":"uint256"},{"name":"mtm","type":"int256","internalType":"int256"},{"name":"basisScenarioUpMtM","type":"int256","internalType":"int256"},{"name":"basisScenarioDownMtM","type":"int256","internalType":"int256"},{"name":"volShockUp","type":"uint256","internalType":"uint256"},{"name":"volShockDown","type":"uint256","internalType":"uint256"},{"name":"staticDiscount","type":"uint256","internalType":"uint256"}]},{"name":"perpPosition","type":"int256","internalType":"int256"},{"name":"basePosition","type":"uint256","internalType":"uint256"},{"name":"baseValue","type":"uint256","internalType":"uint256"},{"name":"totalMtM","type":"int256","internalType":"int256"},{"name":"basisContingency","type":"int256","internalType":"int256"},{"name":"staticContingency","type":"uint256","internalType":"uint256"},{"name":"confidenceContingency","type":"uint256","internalType":"uint256"},{"name":"minConfidence","type":"uint256","internalType":"uint256"},{"name":"perpValue","type":"int256","internalType":"int256"}]}],"stateMutability":"view"},{"type":"function","name":"baseAsset","inputs":[],"outputs":[{"name":"","type":"address","internalType":"contract IWrappedERC20Asset"}],"stateMutability":"view"},{"type":"function","name":"cashAsset","inputs":[],"outputs":[{"name":"","type":"address","internalType":"contract ICashAsset"}],"stateMutability":"view"},{"type":"function","name":"executeBid","inputs":[{"name":"accountId","type":"uint256","internalType":"uint256"},{"name":"liquidatorId","type":"uint256","internalType":"uint256"},{"name":"portion","type":"uint256","internalType":"uint256"},{"name":"bidAmount","type":"uint256","internalType":"uint256"},{"name":"reservedCash","type":"uint256","internalType":"uint256"}],"outputs":[],"stateMutability":"nonpayable"},{"type":"function","name":"feeBypassedCaller","inputs":[{"name":"sender","type":"address","internalType":"address"}],"outputs":[{"name":"","type":"bool","internalType":"bool"}],"stateMutability":"view"},{"type":"function","name":"feeCharged","inputs":[{"name":"","type":"uint256","internalType":"uint256"},{"name":"","type":"uint256","internalType":"uint256"}],"outputs":[{"name":"","type":"uint256","internalType":"uint256"}],"stateMutability":"view"},{"type":"function","name":"feeRecipientAcc","inputs":[],"outputs":[{"name":"","type":"uint256","internalType":"uint256"}],"stateMutability":"view"},{"type":"function","name":"forwardFeed","inputs":[],"outputs":[{"name":"","type":"address","internalType":"contract IForwardFeed"}],"stateMutability":"view"},{"type":"function","name":"getMargin","inputs":[{"name":"accountId","type":"uint256","internalType":"uint256"},{"name":"isInitial","type":"bool","internalType":"bool"}],"outputs":[{"name":"","type":"int256","internalType":"int256"}],"stateMutability":"view"},{"type":"function","name":"getMarginAndMarkToMarket","inputs":[{"name":"accountId","type":"uint256","internalType":"uint256"},{"name":"isInitial","type":"bool","internalType":"bool"},{"name":"scenarioId","type":"uint256","internalType":"uint256"}],"outputs":[{"name":"margin","type":"int256","internalType":"int256"},{"name":"mtm","type":"int256","internalType":"int256"}],"stateMutability":"view"},{"type":"function","name":"getScenarios","inputs":[],"outputs":[{"name":"","type":"tuple[]","internalType":"struct IPMRM.Scenario[]","components":[{"name":"spotShock","type":"uint256","internalType":"uint256"},{"name":"volShock","type":"uint8","internalType":"enum IPMRM.VolShockDirection"}]}],"stateMutability":"view"},{"type":"function","name":"guardian","inputs":[],"outputs":[{"name":"","type":"address","internalType":"address"}],"stateMutability":"view"},{"type":"function","name":"handleAdjustment","inputs":[{"name":"accountId","type":"uint256","internalType":"uint256"},{"name":"tradeId","type":"uint256","internalType":"uint256"},{"name":"caller","type":"address","internalType":"address"},{"name":"assetDeltas","type":"tuple[]","internalType":"struct ISubAccounts.AssetDelta[]","components":[{"name":"asset","type":"address","internalType":"contract IAsset"},{"name":"subId","type":"uint96","internalType":"uint96"},{"name":"delta","type":"int256","internalType":"int256"}]},{"name":"managerData","type":"bytes","internalType":"bytes"}],"outputs":[],"stateMutability":"nonpayable"},{"type":"function","name":"interestRateFeed","inputs":[],"outputs":[{"name":"","type":"address","internalType":"contract IInterestRateFeed"}],"stateMutability":"view"},{"type":"function","name":"lib","inputs":[],"outputs":[{"name":"","type":"address","internalType":"contract IPMRMLib"}],"stateMutability":"view"},{"type":"function","name":"liquidation","inputs":[],"outputs":[{"name":"","type":"address","internalType":"contract IDutchAuction"}],"stateMutability":"view"},{"type":"function","name":"maxAccountSize","inputs":[],"outputs":[{"name":"","type":"uint256","internalType":"uint256"}],"stateMutability":"view"},{"type":"function","name":"maxExpiries","inputs":[],"outputs":[{"name":"","type":"uint256","internalType":"uint256"}],"stateMutability":"view"},{"type":"function","name":"minOIFee","inputs":[],"outputs":[{"name":"","type":"uint256","internalType":"uint256"}],"stateMutability":"view"},{"type":"function","name":"option","inputs":[],"outputs":[{"name":"","type":"address","internalType":"contract IOptionAsset"}],"stateMutability":"view"},{"type":"function","name":"owner","inputs":[],"outputs":[{"name":"","type":"address","internalType":"address"}],"stateMutability":"view"},{"type":"function","name":"payLiquidationFee","inputs":[{"name":"accountId","type":"uint256","internalType":"uint256"},{"name":"recipient","type":"uint256","internalType":"uint256"},{"name":"cashAmount","type":"uint256","internalType":"uint256"}],"outputs":[],"stateMutability":"nonpayable"},{"type":"function","name":"pendingOwner","inputs":[],"outputs":[{"name":"","type":"address","internalType":"address"}],"stateMutability":"view"},{"type":"function","name":"perp","inputs":[],"outputs":[{"name":"","type":"address","internalType":"contract IPerpAsset"}],"stateMutability":"view"},{"type":"function","name":"renounceOwnership","inputs":[],"outputs":[],"stateMutability":"nonpayable"},{"type":"function","name":"setAdjustmentsPaused","inputs":[{"name":"_paused","type":"bool","internalType":"bool"}],"outputs":[],"stateMutability":"nonpayable"},{"type":"function","name":"setFeeBypassedCaller","inputs":[{"name":"caller","type":"address","internalType":"address"},{"name":"bypassed","type":"bool","internalType":"bool"}],"outputs":[],"stateMutability":"nonpayable"},{"type":"function","name":"setFeeRecipient","inputs":[{"name":"_newAcc","type":"uint256","internalType":"uint256"}],"outputs":[],"stateMutability":"nonpayable"},{"type":"function","name":"setForwardFeed","inputs":[{"name":"_forwardFeed","type":"address","internalType":"contract IForwardFeed"}],"outputs":[],"stateMutability":"nonpayable"},{"type":"function","name":"setGuardian","inputs":[{"name":"_guardian","type":"address","internalType":"address"}],"outputs":[],"stateMutability":"nonpayable"},{"type":"function","name":"setInterestRateFeed","inputs":[{"name":"_interestRateFeed","type":"address","internalType":"contract IInterestRateFeed"}],"outputs":[],"stateMutability":"nonpayable"},{"type":"function","name":"setLiquidation","inputs":[{"name":"_liquidation","type":"address","internalType":"contract IDutchAuction"}],"outputs":[],"stateMutability":"nonpayable"},{"type":"function","name":"setMaxAccountSize","inputs":[{"name":"_maxAccountSize","type":"uint256","internalType":"uint256"}],"outputs":[],"stateMutability":"nonpayable"},{"type":"function","name":"setMaxExpiries","inputs":[{"name":"_maxExpiries","type":"uint256","internalType":"uint256"}],"outputs":[],"stateMutability":"nonpayable"},{"type":"function","name":"setMinOIFee","inputs":[{"name":"newMinOIFee","type":"uint256","internalType":"uint256"}],"outputs":[],"stateMutability":"nonpayable"},{"type":"function","name":"setScenarios","inputs":[{"name":"_scenarios","type":"tuple[]","internalType":"struct IPMRM.Scenario[]","components":[{"name":"spotShock","type":"uint256","internalType":"uint256"},{"name":"volShock","type":"uint8","internalType":"enum IPMRM.VolShockDirection"}]}],"outputs":[],"stateMutability":"nonpayable"},{"type":"function","name":"setSpotFeed","inputs":[{"name":"_spotFeed","type":"address","internalType":"contract ISpotFeed"}],"outputs":[],"stateMutability":"nonpayable"},{"type":"function","name":"setStableFeed","inputs":[{"name":"_stableFeed","type":"address","internalType":"contract ISpotFeed"}],"outputs":[],"stateMutability":"nonpayable"},{"type":"function","name":"setTrustedRiskAssessor","inputs":[{"name":"riskAssessor","type":"address","internalType":"address"},{"name":"trusted","type":"bool","internalType":"bool"}],"outputs":[],"stateMutability":"nonpayable"},{"type":"function","name":"setVolFeed","inputs":[{"name":"_volFeed","type":"address","internalType":"contract IVolFeed"}],"outputs":[],"stateMutability":"nonpayable"},{"type":"function","name":"setWhitelistedCallee","inputs":[{"name":"callee","type":"address","internalType":"address"},{"name":"whitelisted","type":"bool","internalType":"bool"}],"outputs":[],"stateMutability":"nonpayable"},{"type":"function","name":"settleInterest","inputs":[{"name":"accountId","type":"uint256","internalType":"uint256"}],"outputs":[],"stateMutability":"nonpayable"},{"type":"function","name":"settleOptions","inputs":[{"name":"_option","type":"address","internalType":"contract IOptionAsset"},{"name":"accountId","type":"uint256","internalType":"uint256"}],"outputs":[],"stateMutability":"nonpayable"},{"type":"function","name":"settlePerpsWithIndex","inputs":[{"name":"accountId","type":"uint256","internalType":"uint256"}],"outputs":[],"stateMutability":"nonpayable"},{"type":"function","name":"spotFeed","inputs":[],"outputs":[{"name":"","type":"address","internalType":"contract ISpotFeed"}],"stateMutability":"view"},{"type":"function","name":"stableFeed","inputs":[],"outputs":[{"name":"","type":"address","internalType":"contract ISpotFeed"}],"stateMutability":"view"},{"type":"function","name":"subAccounts","inputs":[],"outputs":[{"name":"","type":"address","internalType":"contract ISubAccounts"}],"stateMutability":"view"},{"type":"function","name":"transferOwnership","inputs":[{"name":"newOwner","type":"address","internalType":"address"}],"outputs":[],"stateMutability":"nonpayable"},{"type":"function","name":"trustedRiskAssessor","inputs":[{"name":"","type":"address","internalType":"address"}],"outputs":[{"name":"","type":"bool","internalType":"bool"}],"stateMutability":"view"},{"type":"function","name":"viewer","inputs":[],"outputs":[{"name":"","type":"address","internalType":"contract IBasePortfolioViewer"}],"stateMutability":"view"},{"type":"function","name":"volFeed","inputs":[],"outputs":[{"name":"","type":"address","internalType":"contract IVolFeed"}],"stateMutability":"view"},{"type":"event","name":"AdjustmentsPausedSet","inputs":[{"name":"paused","type":"bool","indexed":false,"internalType":"bool"}],"anonymous":false},{"type":"event","name":"CalleeWhitelisted","inputs":[{"name":"callee","type":"address","indexed":false,"internalType":"address"}],"anonymous":false},{"type":"event","name":"FeeBypassedCallerSet","inputs":[{"name":"caller","type":"address","indexed":false,"internalType":"address"},{"name":"bypassed","type":"bool","indexed":false,"internalType":"bool"}],"anonymous":false},{"type":"event","name":"FeeRecipientSet","inputs":[{"name":"_newAcc","type":"uint256","indexed":false,"internalType":"uint256"}],"anonymous":false},{"type":"event","name":"ForwardFeedUpdated","inputs":[{"name":"forwardFeed","type":"address","indexed":false,"internalType":"contract IForwardFeed"}],"anonymous":false},{"type":"event","name":"GuardianSet","inputs":[{"name":"guardian","type":"address","indexed":false,"internalType":"address"}],"anonymous":false},{"type":"event","name":"InterestRateFeedUpdated","inputs":[{"name":"interestRateFeed","type":"address","indexed":false,"internalType":"contract IInterestRateFeed"}],"anonymous":false},{"type":"event","name":"LiquidationSet","inputs":[{"name":"liquidation","type":"address","indexed":false,"internalType":"address"}],"anonymous":false},{"type":"event","name":"MaxAccountSizeUpdated","inputs":[{"name":"maxAccountSize","type":"uint256","indexed":false,"internalType":"uint256"}],"anonymous":false},{"type":"event","name":"MaxExpiriesUpdated","inputs":[{"name":"maxExpiries","type":"uint256","indexed":false,"internalType":"uint256"}],"anonymous":false},{"type":"event","name":"MinOIFeeSet","inputs":[{"name":"minOIFee","type":"uint256","indexed":false,"internalType":"uint256"}],"anonymous":false},{"type":"event","name":"OptionSettled","inputs":[{"name":"accountId","type":"uint256","indexed":true,"internalType":"uint256"},{"name":"option","type":"address","indexed":false,"internalType":"address"},{"name":"subId","type":"uint256","indexed":false,"internalType":"uint256"},{"name":"amount","type":"int256","indexed":false,"internalType":"int256"},{"name":"value","type":"int256","indexed":false,"internalType":"int256"}],"anonymous":false},{"type":"event","name":"OwnershipTransferStarted","inputs":[{"name":"previousOwner","type":"address","indexed":true,"internalType":"address"},{"name":"newOwner","type":"address","indexed":true,"internalType":"address"}],"anonymous":false},{"type":"event","name":"OwnershipTransferred","inputs":[{"name":"previousOwner","type":"address","indexed":true,"internalType":"address"},{"name":"newOwner","type":"address","indexed":true,"internalType":"address"}],"anonymous":false},{"type":"event","name":"PerpSettled","inputs":[{"name":"accountId","type":"uint256","indexed":true,"internalType":"uint256"},{"name":"perp","type":"address","indexed":false,"internalType":"address"},{"name":"pnl","type":"int256","indexed":false,"internalType":"int256"},{"name":"funding","type":"int256","indexed":false,"internalType":"int256"}],"anonymous":false},{"type":"event","name":"ScenariosUpdated","inputs":[{"name":"scenarios","type":"tuple[]","indexed":false,"internalType":"struct IPMRM.Scenario[]","components":[{"name":"spotShock","type":"uint256","internalType":"uint256"},{"name":"volShock","type":"uint8","internalType":"enum IPMRM.VolShockDirection"}]}],"anonymous":false},{"type":"event","name":"ShadowTrustedVsUntrustedRiskAssessment","inputs":[{"name":"accountId","type":"uint256","indexed":false,"internalType":"uint256"},{"name":"trustedMM","type":"int256","indexed":false,"internalType":"int256"},{"name":"untrustedMM","type":"int256","indexed":false,"internalType":"int256"},{"name":"untrustedIM","type":"int256","indexed":false,"internalType":"int256"}],"anonymous":false},{"type":"event","name":"SpotFeedUpdated","inputs":[{"name":"spotFeed","type":"address","indexed":false,"internalType":"contract ISpotFeed"}],"anonymous":false},{"type":"event","name":"StableFeedUpdated","inputs":[{"name":"stableFeed","type":"address","indexed":false,"internalType":"contract ISpotFeed"}],"anonymous":false},{"type":"event","name":"TrustedRiskAssessorUpdated","inputs":[{"name":"riskAssessor","type":"address","indexed":false,"internalType":"address"},{"name":"trusted","type":"bool","indexed":false,"internalType":"bool"}],"anonymous":false},{"type":"event","name":"VolFeedUpdated","inputs":[{"name":"volFeed","type":"address","indexed":false,"internalType":"contract IVolFeed"}],"anonymous":false},{"type":"error","name":"BM_AccountUnderLiquidation","inputs":[]},{"type":"error","name":"BM_AdjustmentsPaused","inputs":[]},{"type":"error","name":"BM_AssetCapExceeded","inputs":[]},{"type":"error","name":"BM_GuardianOnly","inputs":[]},{"type":"error","name":"BM_InvalidBidPortion","inputs":[]},{"type":"error","name":"BM_InvalidLiquidation","inputs":[]},{"type":"error","name":"BM_InvalidMaxAccountSize","inputs":[]},{"type":"error","name":"BM_MinOIFeeTooHigh","inputs":[]},{"type":"error","name":"BM_NotImplemented","inputs":[]},{"type":"error","name":"BM_OnlyAccounts","inputs":[]},{"type":"error","name":"BM_OnlyLiquidationModule","inputs":[]},{"type":"error","name":"BM_UnauthorizedCall","inputs":[]},{"type":"error","name":"PMRM_FindInArrayError","inputs":[]},{"type":"error","name":"PMRM_InsufficientMargin","inputs":[]},{"type":"error","name":"PMRM_InvalidMaxExpiries","inputs":[]},{"type":"error","name":"PMRM_InvalidScenarios","inputs":[]},{"type":"error","name":"PMRM_InvalidSpotShock","inputs":[]},{"type":"error","name":"PMRM_OptionExpired","inputs":[]},{"type":"error","name":"PMRM_TooManyAssets","inputs":[]},{"type":"error","name":"PMRM_TooManyExpiries","inputs":[]},{"type":"error","name":"PMRM_UnsupportedAsset","inputs":[]}],"bytecode":{"object":"0x61016060405260806004556000600755600b6013553480156200002157600080fd5b5060405162005fd838038062005fd883398101604081905262000044916200023c565b8888858462000053336200019a565b6001600160a01b03848116608081905284821660a052600280546001600160a01b031990811686851617909155600380549091169284169290921790915560405163099ab95d60e11b81523060048201819052602482015263133572ba906044016020604051808303816000875af1158015620000d4573d6000803e3d6000fd5b505050506040513d601f19601f82011682018060405250810190620000fa9190620003a3565b60c05250506001600d5550508251600e80546001600160a01b03199081166001600160a01b0393841617909155602085015160118054831691841691909117905560408501516012805483169184169190911790556060850151600f80548316918416919091179055608090940151601080549095169082161790935582166101405250918216610120525091821660e052166101005250620003bd9050565b600180546001600160a01b0319169055620001c181620001c4602090811b62001dd617901c565b50565b600080546001600160a01b038381166001600160a01b0319831681178455604051919092169283917f8be0079c531659141344cd1fd0a4f28419497f9722a3daafe3b4186f6b6457e09190a35050565b6001600160a01b0381168114620001c157600080fd5b8051620002378162000214565b919050565b6000806000806000806000806000898b036101a08112156200025d57600080fd5b8a516200026a8162000214565b60208c0151909a506200027d8162000214565b60408c0151909950620002908162000214565b60608c0151909850620002a38162000214565b60808c0151909750620002b68162000214565b60a08c0151909650620002c98162000214565b945060a060bf1982011215620002de57600080fd5b5060405160a081016001600160401b03811182821017156200031057634e487b7160e01b600052604160045260246000fd5b6040526200032160c08c016200022a565b81526200033160e08c016200022a565b6020820152620003456101008c016200022a565b6040820152620003596101208c016200022a565b60608201526200036d6101408c016200022a565b60808201529250620003836101608b016200022a565b9150620003946101808b016200022a565b90509295985092959850929598565b600060208284031215620003b657600080fd5b5051919050565b60805160a05160c05160e051610100516101205161014051615a23620005b56000396000818161063501528181610f4a01528181611125015281816129a301528181612e1401528181612e4601528181612f3101528181612fca01526130db015260008181610796015281816115820152613f0001526000818161071c01528181610db6015281816114440152818161149d015281816128e801528181613e2f01528181613e76015281816141c8015261422101526000818161036c015281816109da01528181611527015281816136ea01528181613bda015281816140d7015261413001526000818161065c01528181613444015261355c0152600081816104dd01528181610bf501528181610cef015281816114cd01528181611c28015281816122200152818161231701528181612cc301528181612d3c015281816131c7015281816133510152818161346f0152818161358e01528181613dec015261475a0152600081816105a001528181610a5601528181610b6c01528181610e7401528181610ef801528181610ff1015281816113d80152818161164901528181611c9901528181611e99015281816120270152818161229101528181612448015281816125c401528181612dad01528181613187015281816132c1015281816133c2015281816134e001526136120152615a236000f3fe608060405234801561001057600080fd5b50600436106103625760003560e01c80638a0dac4a116101c8578063bfa4c00c11610104578063ec344f9e116100a2578063f2dfbf661161007c578063f2dfbf6614610801578063f2fde38b14610814578063f30878c114610827578063f4d0508a1461083a57600080fd5b8063ec344f9e146107dc578063f1f8c61f146107e5578063f2979b75146107ee57600080fd5b8063c8a2ba0a116100de578063c8a2ba0a1461077e578063cdf456e114610791578063d901b19a146107b8578063e30c3978146107cb57600080fd5b8063bfa4c00c14610717578063c09bc5e71461073e578063c454b6131461076957600080fd5b8063a27b1edb11610171578063ac06ba051161014b578063ac06ba05146106ca578063ada655c6146106de578063ada7a7d1146106f1578063bafb798d1461070457600080fd5b8063a27b1edb14610691578063a5158299146106a4578063ab919ee3146106b757600080fd5b806392801230116101a2578063928012301461063057806396964a22146106575780639e4c9ebd1461067e57600080fd5b80638a0dac4a146105f95780638a1d37951461060c5780638da5cb5b1461061f57600080fd5b80635b75ad78116102a257806372c9ab3c1161024057806379ba50971161021a57806379ba5097146105c25780637a6640ef146105ca5780637ecbf012146105d357806381609552146105e657600080fd5b806372c9ab3c1461057557806372fc6b8314610588578063779e50121461059b57600080fd5b806361a9d4b81161027c57806361a9d4b814610512578063623bb445146105325780636691bc0414610545578063715018a61461056d57600080fd5b80635b75ad78146104b55780635cd93cf3146104d85780635d935799146104ff57600080fd5b806334f959571161030f578063452a9320116102e9578063452a93201461046557806351dd58ce14610478578063555449ad1461048b578063559501821461049e57600080fd5b806334f959571461040c5780633c792cec1461041f5780633f210eea1461043257600080fd5b806318c5ff191161034057806318c5ff19146103d35780632976993e146103e657806331a7e4d9146103f957600080fd5b8063010035af146103675780630dfe9868146103ab5780630ef960fd146103c0575b600080fd5b61038e7f000000000000000000000000000000000000000000000000000000000000000081565b6040516001600160a01b0390911681526020015b60405180910390f35b6103be6103b93660046147b4565b61084d565b005b6103be6103ce3660046147ed565b6108b9565b6103be6103e136600461480a565b610916565b6103be6103f43660046147ed565b610982565b6103be610407366004614823565b6109d8565b6103be61041a36600461480a565b610a38565b6103be61042d36600461484f565b610aff565b6104556104403660046147ed565b600a6020526000908152604090205460ff1681565b60405190151581526020016103a2565b60065461038e906001600160a01b031681565b6103be61048636600461488a565b610d1e565b60125461038e906001600160a01b031681565b6104a760075481565b6040519081526020016103a2565b6104556104c33660046147ed565b600c6020526000908152604090205460ff1681565b61038e7f000000000000000000000000000000000000000000000000000000000000000081565b6103be61050d36600461480a565b610db1565b61052561052036600461480a565b610dde565b6040516103a29190614aa8565b6104a7610540366004614abb565b610eef565b610558610553366004614ae0565b610fe6565b604080519283526020830191909152016103a2565b6103be6111ae565b6103be61058336600461480a565b6111c2565b600f5461038e906001600160a01b031681565b61038e7f000000000000000000000000000000000000000000000000000000000000000081565b6103be61122d565b6104a760135481565b60105461038e906001600160a01b031681565b6103be6105f43660046147b4565b6112bd565b6103be6106073660046147ed565b611321565b6103be61061a3660046147ed565b611377565b6000546001600160a01b031661038e565b61038e7f000000000000000000000000000000000000000000000000000000000000000081565b6104a77f000000000000000000000000000000000000000000000000000000000000000081565b6103be61068c366004614c5f565b6113cd565b6103be61069f36600461480a565b611788565b6103be6106b2366004614daa565b6117f0565b6103be6106c53660046147ed565b611a03565b60065461045590600160a01b900460ff1681565b6103be6106ec3660046147ed565b611a80565b6103be6106ff366004614e6a565b611ad6565b6103be6107123660046147ed565b611b19565b61038e7f000000000000000000000000000000000000000000000000000000000000000081565b6104a761074c366004614e96565b600860209081526000928352604080842090915290825290205481565b610771611b6f565b6040516103a29190614f35565b600e5461038e906001600160a01b031681565b61038e7f000000000000000000000000000000000000000000000000000000000000000081565b6103be6107c636600461480a565b611c11565b6001546001600160a01b031661038e565b6104a760055481565b6104a760045481565b6103be6107fc3660046147b4565b611d08565b60025461038e906001600160a01b031681565b6103be6108223660046147ed565b611d65565b60035461038e906001600160a01b031681565b60115461038e906001600160a01b031681565b610855611e26565b6001600160a01b0382166000818152600a6020908152604091829020805460ff19168515159081179091558251938452908301527ffe22902e101a7d32772c344b8b3b712867377b636a6f475c1f3dc1ff1e400a8591015b60405180910390a15050565b6108c1611e26565b601280546001600160a01b0319166001600160a01b0383169081179091556040519081527ff85f7d4f807a71bc2b53099542745c7baff0f7a5334bea36ccf1c678a36b18ca906020015b60405180910390a150565b61091e611e26565b6013548111158061092f5750601e81115b1561094d57604051630272ee0160e21b815260040160405180910390fd5b60138190556040518181527f520b49625076bfb12eef67bed24aff3e10e13f167ab1b8f8435bbd2e96ebb7939060200161090b565b61098a611e26565b600e80546001600160a01b0319166001600160a01b0383169081179091556040519081527f3211cac5b55f404fa2b229afea47bb8de6ea68f8a8a9718411e34a40643eca8b9060200161090b565b7f00000000000000000000000000000000000000000000000000000000000000006001600160a01b0316826001600160a01b031614610a2a57604051630d8a76e760e31b815260040160405180910390fd5b610a348282611e80565b5050565b610a40611e26565b6040516331a9108f60e11b8152600481018290527f00000000000000000000000000000000000000000000000000000000000000006001600160a01b031690636352211e90602401602060405180830381865afa158015610aa5573d6000803e3d6000fd5b505050506040513d601f19601f82011682018060405250810190610ac99190614f48565b5060058190556040518181527f6188b2fb9e3b84fa4dcf3d2bcaa36307428592228e6c84f2dca669d01e33b5b49060200161090b565b6002546001600160a01b03163314610b2a5760405163640c523760e11b815260040160405180910390fd5b670de0b6b3a7640000831115610b5357604051631f75638760e11b815260040160405180910390fd5b60405163c756970160e01b8152600481018690526000907f00000000000000000000000000000000000000000000000000000000000000006001600160a01b03169063c756970190602401600060405180830381865afa158015610bbb573d6000803e3d6000fd5b505050506040513d6000823e601f3d908101601f19168201604052610be39190810190614f65565b905060005b8151811015610ce15760007f00000000000000000000000000000000000000000000000000000000000000006001600160a01b0316838381518110610c2f57610c2f61502c565b6020026020010151600001516001600160a01b031603610c5557610c5284612381565b90505b610cce8888858581518110610c6c57610c6c61502c565b602002602001015160000151868681518110610c8a57610c8a61502c565b602002602001015160200151610cc98b878a8a81518110610cad57610cad61502c565b602002602001015160400151610cc39190615058565b9061241d565b612446565b5080610cd98161507f565b915050610be8565b508215610d1657610d1685877f0000000000000000000000000000000000000000000000000000000000000000600087612446565b505050505050565b6006546001600160a01b03163314610d4957604051636185c77160e01b815260040160405180910390fd5b60068054821515600160a01b027fffffffffffffffffffffff00ffffffffffffffffffffffffffffffffffffffff9091161790556040517f3360d551bcfe073c6757f77fbd04ace2c3116867f1e161f1a1402944ba4b23e99061090b90831515815260200190565b610ddb7f000000000000000000000000000000000000000000000000000000000000000082612634565b50565b610e50604051806101c0016040528060008152602001600081526020016000815260200160008152602001606081526020016000815260200160008152602001600081526020016000815260200160008152602001600081526020016000815260200160008152602001600081525090565b60405163c756970160e01b815260048101839052610ee99083906001600160a01b037f0000000000000000000000000000000000000000000000000000000000000000169063c7569701906024015b600060405180830381865afa158015610ebc573d6000803e3d6000fd5b505050506040513d6000823e601f3d908101601f19168201604052610ee49190810190614f65565b612698565b92915050565b600080610f44847f00000000000000000000000000000000000000000000000000000000000000006001600160a01b031663c7569701876040518263ffffffff1660e01b8152600401610e9f91815260200190565b905060007f00000000000000000000000000000000000000000000000000000000000000006001600160a01b0316636a259c7a838660146040518463ffffffff1660e01b8152600401610f9993929190615098565b606060405180830381865afa158015610fb6573d6000803e3d6000fd5b505050506040513d601f19601f82011682018060405250810190610fda9190615118565b50909695505050505050565b600080600061103d867f00000000000000000000000000000000000000000000000000000000000000006001600160a01b031663c7569701896040518263ffffffff1660e01b8152600401610e9f91815260200190565b60408051600180825281830190925291925060009190816020015b6040805180820190915260008082526020820152815260200190600190039081611058579050509050601485815481106110945761109461502c565b9060005260206000209060020201604051806040016040529081600082015481526020016001820160009054906101000a900460ff1660028111156110db576110db614eb8565b60028111156110ec576110ec614eb8565b81525050816000815181106111035761110361502c565b6020908102919091010152604051633512ce3d60e11b81526001600160a01b037f00000000000000000000000000000000000000000000000000000000000000001690636a259c7a9061115e9085908a908690600401615146565b606060405180830381865afa15801561117b573d6000803e3d6000fd5b505050506040513d601f19601f8201168201806040525081019061119f9190615118565b50909890975095505050505050565b6111b6611e26565b6111c06000612a27565b565b6111ca611e26565b60088110806111da57506101f481115b156111f857604051633f1499b560e11b815260040160405180910390fd5b60048190556040518181527fa5bdc74d2265a65a385ad0a92f7eb657b8a57fd18f5219252d88c0625eef72a89060200161090b565b60015433906001600160a01b031681146112b45760405162461bcd60e51b815260206004820152602960248201527f4f776e61626c6532537465703a2063616c6c6572206973206e6f74207468652060448201527f6e6577206f776e6572000000000000000000000000000000000000000000000060648201526084015b60405180910390fd5b610ddb81612a27565b6112c5611e26565b6001600160a01b0382166000818152600c6020908152604091829020805460ff19168515159081179091558251938452908301527f9d6e57eceb8eee5486a53878b18931c26d8f8963be71557d11fda70f1d3cad4791016108ad565b611329611e26565b600680546001600160a01b0319166001600160a01b0383169081179091556040519081527fe6c09ffe4572dc9ceaa5ddde4ae41befa655d6fdfe8052077af0970f700e942e9060200161090b565b61137f611e26565b600f80546001600160a01b0319166001600160a01b0383169081179091556040519081527f7d477364690418969d2f6491a83c9484610f0c46e22ea3df3c26cc1b41e3ca399060200161090b565b336001600160a01b037f0000000000000000000000000000000000000000000000000000000000000000161461141657604051637593f62d60e11b815260040160405180910390fd5b61141e612a40565b61142c868686868686612a99565b61143586612b44565b6000805b845181101561162f577f00000000000000000000000000000000000000000000000000000000000000006001600160a01b031685828151811061147e5761147e61502c565b6020026020010151600001516001600160a01b0316036114cb576114c27f000000000000000000000000000000000000000000000000000000000000000089612bcf565b6001915061161d565b7f00000000000000000000000000000000000000000000000000000000000000006001600160a01b03168582815181106115075761150761502c565b6020026020010151600001516001600160a01b03161415801561157957507f00000000000000000000000000000000000000000000000000000000000000006001600160a01b03168582815181106115615761156161502c565b6020026020010151600001516001600160a01b031614155b80156115d457507f00000000000000000000000000000000000000000000000000000000000000006001600160a01b03168582815181106115bc576115bc61502c565b6020026020010151600001516001600160a01b031614155b156115f257604051630d8a76e760e31b815260040160405180910390fd5b60008582815181106116065761160661502c565b602002602001015160400151121561161d57600191505b806116278161507f565b915050611439565b5060405163c756970160e01b8152600481018890526000907f00000000000000000000000000000000000000000000000000000000000000006001600160a01b03169063c756970190602401600060405180830381865afa158015611698573d6000803e3d6000fd5b505050506040513d6000823e601f3d908101601f191682016040526116c09190810190614f65565b9050600454815111801561174657508051600354604051633c1300ad60e11b81526001600160a01b0390911690637826015a906117039085908a90600401615173565b602060405180830381865afa158015611720573d6000803e3d6000fd5b505050506040513d601f19601f820116820180604052508101906117449190615234565b105b15611764576040516399a3048560e01b815260040160405180910390fd5b8161177057505061177e565b61177b868983612de0565b50505b610d166001600d55565b611790611e26565b69021e19e0c9bab24000008111156117bb576040516341223a1160e01b815260040160405180910390fd5b60078190556040518181527fe3631fec67d43d2a999ccd93a63bb27d3212a076d248804ff91659e1d55b48909060200161090b565b6117f8611e26565b80511580611807575060288151115b1561182557604051637027693d60e01b815260040160405180910390fd5b60005b815181101561197c576729a2241af62c000082828151811061184c5761184c61502c565b60200260200101516000015111156118775760405163a64fd28760e01b815260040160405180910390fd5b60145481106118f35760148282815181106118945761189461502c565b6020908102919091018101518254600181810185556000948552938390208251600292830290910190815592820151838501805493959193909260ff19909116919084908111156118e7576118e7614eb8565b0217905550505061196a565b8181815181106119055761190561502c565b6020026020010151601482815481106119205761192061502c565b90600052602060002090600202016000820151816000015560208201518160010160006101000a81548160ff0219169083600281111561196257611962614eb8565b021790555050505b806119748161507f565b915050611828565b5060145481515b818110156119d357601480548061199c5761199c61524d565b600082815260208120600260001990930192830201908155600101805460ff191690559055806119cb8161507f565b915050611983565b507f7f7690a00e29674f73d0b3cc104203d77f221faee6da93a98fdf34951fd3d7d1826040516108ad9190614f35565b611a0b611e26565b6001600160a01b038116611a3257604051632fada7c960e21b815260040160405180910390fd5b600280546001600160a01b0319166001600160a01b0383169081179091556040519081527fb42211a759ba7ea2ad7cb3759d646b525d87e1eac61aad629bf9ec51dd1e16889060200161090b565b611a88611e26565b601080546001600160a01b0319166001600160a01b0383169081179091556040519081527f7bcc92b277e317d410c1ee832676307f55ffa68d97669669ce94710c4ccc81f09060200161090b565b6002546001600160a01b03163314611b015760405163640c523760e11b815260040160405180910390fd5b611b148383611b0f84612381565b613185565b505050565b611b21611e26565b601180546001600160a01b0319166001600160a01b0383169081179091556040519081527f56350b5af3e9d3edbabc6b2f8478a39ed6e0a7ed59a682bf3049201b9be932ab9060200161090b565b60606014805480602002602001604051908101604052809291908181526020016000905b82821015611c085783829060005260206000209060020201604051806040016040529081600082015481526020016001820160009054906101000a900460ff166002811115611be457611be4614eb8565b6002811115611bf557611bf5614eb8565b8152505081526020019060010190611b93565b50505050905090565b6040805160a0810182528281526001600160a01b037f000000000000000000000000000000000000000000000000000000000000000081166020830190815260008385018181526060850182815260808601928352955163b99b453360e01b8152945160048601529151831660248501529051604484015292516064830152915160848201527f00000000000000000000000000000000000000000000000000000000000000009091169063b99b45339060a4016020604051808303816000875af1158015611ce4573d6000803e3d6000fd5b505050506040513d601f19601f82011682018060405250810190610a349190615234565b611d10611e26565b6001600160a01b0382166000818152600b6020908152604091829020805460ff191685151517905590519182527f9334f1cf560b8678d242a97ff8aa0f60f61c40b3b7e3bd1a1b6759bb0cec6b9e91016108ad565b611d6d611e26565b600180546001600160a01b0383166001600160a01b03199091168117909155611d9e6000546001600160a01b031690565b6001600160a01b03167f38d16b8cac22d99fc7c124b9cd0de2d3fa1faef420bfe791d8c362d765e2270060405160405180910390a350565b600080546001600160a01b038381166001600160a01b0319831681178455604051919092169283917f8be0079c531659141344cd1fd0a4f28419497f9722a3daafe3b4186f6b6457e09190a35050565b6000546001600160a01b031633146111c05760405162461bcd60e51b815260206004820181905260248201527f4f776e61626c653a2063616c6c6572206973206e6f7420746865206f776e657260448201526064016112ab565b60405163c756970160e01b8152600481018290526000907f00000000000000000000000000000000000000000000000000000000000000006001600160a01b03169063c756970190602401600060405180830381865afa158015611ee8573d6000803e3d6000fd5b505050506040513d6000823e601f3d908101601f19168201604052611f109190810190614f65565b90506000805b825181101561220857846001600160a01b0316838281518110611f3b57611f3b61502c565b6020026020010151600001516001600160a01b0316036121f657600080866001600160a01b0316633a420c75868581518110611f7957611f7961502c565b602002602001015160200151878681518110611f9757611f9761502c565b6020026020010151604001516040518363ffffffff1660e01b8152600401611fc9929190918252602082015260400190565b6040805180830381865afa158015611fe5573d6000803e3d6000fd5b505050506040513d601f19601f820116820180604052508101906120099190615263565b91509150806120195750506121f6565b6120238285615288565b93507f00000000000000000000000000000000000000000000000000000000000000006001600160a01b031663b99b45336040518060a001604052808981526020018a6001600160a01b031681526020018887815181106120865761208661502c565b60200260200101516020015181526020018887815181106120a9576120a961502c565b6020026020010151604001516120be906152b0565b815260006020918201526040805160e085901b6001600160e01b031916815283516004820152918301516001600160a01b03166024830152820151604482015260608201516064820152608090910151608482015260a4016020604051808303816000875af1158015612135573d6000803e3d6000fd5b505050506040513d601f19601f820116820180604052508101906121599190615234565b50857fd20a68b2eb88f6253c7ea7a4295e50e29e78bb75bdcc708abf30969d67116b7a8887868151811061218f5761218f61502c565b6020026020010151602001518887815181106121ad576121ad61502c565b602002602001015160400151866040516121eb94939291906001600160a01b0394909416845260208401929092526040830152606082015260800190565b60405180910390a250505b806122008161507f565b915050611f16565b506040805160a0810182528481526001600160a01b037f000000000000000000000000000000000000000000000000000000000000000081166020830190815260008385018181526060850187815260808601928352955163b99b453360e01b8152945160048601529151831660248501529051604484015292516064830152915160848201527f00000000000000000000000000000000000000000000000000000000000000009091169063b99b45339060a4016020604051808303816000875af11580156122dc573d6000803e3d6000fd5b505050506040513d601f19601f820116820180604052508101906123009190615234565b5060405163014780ef60e21b8152600481018290527f00000000000000000000000000000000000000000000000000000000000000006001600160a01b03169063051e03bc90602401600060405180830381600087803b15801561236357600080fd5b505af1158015612377573d6000803e3d6000fd5b5050505050505050565b60007f7fffffffffffffffffffffffffffffffffffffffffffffffffffffffffffffff8211156124195760405162461bcd60e51b815260206004820152602860248201527f53616665436173743a2076616c756520646f65736e27742066697420696e206160448201527f6e20696e7432353600000000000000000000000000000000000000000000000060648201526084016112ab565b5090565b600061242b6012600a6153b0565b61243583856153bc565b61243f91906153ec565b9392505050565b7f00000000000000000000000000000000000000000000000000000000000000006001600160a01b031663b99b45336040518060a00160405280888152602001866001600160a01b03168152602001856bffffffffffffffffffffffff168152602001846124b3906152b0565b815260006020918201526040805160e085901b6001600160e01b031916815283516004820152918301516001600160a01b03166024830152820151604482015260608201516064820152608090910151608482015260a4016020604051808303816000875af115801561252a573d6000803e3d6000fd5b505050506040513d601f19601f8201168201806040525081019061254e9190615234565b506040805160a0810182528581526001600160a01b03858116602083019081526bffffffffffffffffffffffff861683850190815260608401868152600060808601908152955163b99b453360e01b815294516004860152915183166024850152516044840152516064830152915160848201527f00000000000000000000000000000000000000000000000000000000000000009091169063b99b45339060a4015b6020604051808303816000875af1158015612610573d6000803e3d6000fd5b505050506040513d601f19601f82011682018060405250810190610d169190615234565b60405163b6baa38960e01b8152600481018290526001600160a01b0383169063b6baa38990602401600060405180830381600087803b15801561267657600080fd5b505af115801561268a573d6000803e3d6000fd5b50505050610a348282612bcf565b61270a604051806101c0016040528060008152602001600081526020016000815260200160008152602001606081526020016000815260200160008152602001600081526020016000815260200160008152602001600081526020016000815260200160008152602001600081525090565b60008061271684613644565b915091508167ffffffffffffffff81111561273357612733614b18565b6040519080825280602002602001820160405280156127d657816020015b6127c3604051806101c0016040528060008152602001600081526020016060815260200160008152602001600081526020016000815260200160008152602001600081526020016000815260200160008152602001600081526020016000815260200160008152602001600081525090565b8152602001906001900390816127515790505b506080840152600e5460408051630acdc9a760e21b815281516001600160a01b0390931692632b37269c926004808401939192918290030181865afa158015612823573d6000803e3d6000fd5b505050506040513d601f19601f820116820180604052508101906128479190615428565b610180850152835260115460408051630acdc9a760e21b815281516000936001600160a01b031692632b37269c92600480820193918290030181865afa158015612895573d6000803e3d6000fd5b505050506040513d601f19601f820116820180604052508101906128b99190615428565b506040850181905290506128cd848361384d565b6128d986858785613bae565b60a08401511561298c576000807f00000000000000000000000000000000000000000000000000000000000000006001600160a01b03166390f76b186040518163ffffffff1660e01b81526004016040805180830381865afa158015612943573d6000803e3d6000fd5b505050506040513d601f19601f820116820180604052508101906129679190615428565b6020880182905261018088015191935091506129839082613f53565b61018087015250505b60405163d176159f60e01b81526001600160a01b037f0000000000000000000000000000000000000000000000000000000000000000169063d176159f906129d8908790600401614aa8565b600060405180830381865afa1580156129f5573d6000803e3d6000fd5b505050506040513d6000823e601f3d908101601f19168201604052612a1d919081019061565c565b9695505050505050565b600180546001600160a01b0319169055610ddb81611dd6565b6002600d5403612a925760405162461bcd60e51b815260206004820152601f60248201527f5265656e7472616e637947756172643a207265656e7472616e742063616c6c0060448201526064016112ab565b6002600d55565b600654600160a01b900460ff1615612ac4576040516383d3980b60e01b815260040160405180910390fd5b612acf858383613f69565b600354604051632e5579f160e21b815230600482015260248101889052604481018790526001600160a01b039091169063b955e7c49060640160006040518083038186803b158015612b2057600080fd5b505afa158015612b34573d6000803e3d6000fd5b50505050610d16848787866140a8565b60025460405163c9008b4360e01b8152600481018390526001600160a01b039091169063c9008b4390602401602060405180830381865afa158015612b8d573d6000803e3d6000fd5b505050506040513d601f19601f82011682018060405250810190612bb19190615754565b15610ddb57604051633969adab60e11b815260040160405180910390fd5b604051637540fec360e01b81526004810182905260009081906001600160a01b03851690637540fec39060240160408051808303816000875af1158015612c1a573d6000803e3d6000fd5b505050506040513d601f19601f82011682018060405250810190612c3e9190615428565b90925090506000612c4f8284615288565b604080516001600160a01b03881681526020810186905290810184905290915084907fc599cf717cd036b5d2f5cbf8668ba551a23391949e9e796508447eb17fb010139060600160405180910390a280600003612cad575050505050565b60405163014780ef60e21b8152600481018290527f00000000000000000000000000000000000000000000000000000000000000006001600160a01b03169063051e03bc90602401600060405180830381600087803b158015612d0f57600080fd5b505af1158015612d23573d6000803e3d6000fd5b50506040805160a0810182528781526001600160a01b037f000000000000000000000000000000000000000000000000000000000000000081166020830190815260008385018181526060850189815260808601928352955163b99b453360e01b8152945160048601529151831660248501529051604484015292516064830152915160848201527f0000000000000000000000000000000000000000000000000000000000000000909116925063b99b4533915060a4016125f1565b6000612dec8383612698565b6001600160a01b0385166000908152600c602052604090205490915060ff16156130c15760007f00000000000000000000000000000000000000000000000000000000000000006001600160a01b0316636a259c7a8360007f00000000000000000000000000000000000000000000000000000000000000006001600160a01b031663b8d806146040518163ffffffff1660e01b8152600401600060405180830381865afa158015612ea2573d6000803e3d6000fd5b505050506040513d6000823e601f3d908101601f19168201604052612eca9190810190615771565b6040518463ffffffff1660e01b8152600401612ee893929190615146565b606060405180830381865afa158015612f05573d6000803e3d6000fd5b505050506040513d601f19601f82011682018060405250810190612f299190615118565b5050905060007f00000000000000000000000000000000000000000000000000000000000000006001600160a01b0316636a259c7a84600060146040518463ffffffff1660e01b8152600401612f8193929190615098565b606060405180830381865afa158015612f9e573d6000803e3d6000fd5b505050506040513d601f19601f82011682018060405250810190612fc29190615118565b5050905060007f00000000000000000000000000000000000000000000000000000000000000006001600160a01b0316636a259c7a85600160146040518463ffffffff1660e01b815260040161301a93929190615098565b606060405180830381865afa158015613037573d6000803e3d6000fd5b505050506040513d601f19601f8201168201806040525081019061305b9190615118565b50506040805188815260208101869052908101849052606081018290529091507fc26ba324e4bcbd198e6ef66babdadbea8bcab03ef07d040397ee00fe6d60e8ac9060800160405180910390a1600083126130b95750505050505050565b50505061316c565b604051633512ce3d60e11b81526000906001600160a01b037f00000000000000000000000000000000000000000000000000000000000000001690636a259c7a90613116908590600190601490600401615098565b606060405180830381865afa158015613133573d6000803e3d6000fd5b505050506040513d601f19601f820116820180604052508101906131579190615118565b505090506000811261316a575050505050565b505b604051630a40457b60e01b815260040160405180910390fd5b7f00000000000000000000000000000000000000000000000000000000000000006001600160a01b031663b99b45336040518060a001604052808681526020017f00000000000000000000000000000000000000000000000000000000000000006001600160a01b031681526020016000815260200184613205906152b0565b815260006020918201526040805160e085901b6001600160e01b031916815283516004820152918301516001600160a01b03166024830152820151604482015260608201516064820152608090910151608482015260a4016020604051808303816000875af115801561327c573d6000803e3d6000fd5b505050506040513d601f19601f820116820180604052508101906132a09190615234565b50604051635298145760e01b81526004810183905230906001600160a01b037f00000000000000000000000000000000000000000000000000000000000000001690635298145790602401602060405180830381865afa158015613308573d6000803e3d6000fd5b505050506040513d601f19601f8201168201806040525081019061332c9190614f48565b6001600160a01b031603613438576040805160a0810182528381526001600160a01b037f000000000000000000000000000000000000000000000000000000000000000081166020830190815260008385018181526060850187815260808601928352955163b99b453360e01b8152945160048601529151831660248501529051604484015292516064830152915160848201527f00000000000000000000000000000000000000000000000000000000000000009091169063b99b45339060a4015b6020604051808303816000875af115801561340e573d6000803e3d6000fd5b505050506040513d601f19601f820116820180604052508101906134329190615234565b50505050565b6040805160a0810182527f000000000000000000000000000000000000000000000000000000000000000081526001600160a01b037f000000000000000000000000000000000000000000000000000000000000000081166020830190815260008385018181526060850187815260808601928352955163b99b453360e01b8152945160048601529151831660248501529051604484015292516064830152915160848201527f00000000000000000000000000000000000000000000000000000000000000009091169063b99b45339060a4016020604051808303816000875af115801561352b573d6000803e3d6000fd5b505050506040513d601f19601f8201168201806040525081019061354f9190615234565b506040805160c0810182527f00000000000000000000000000000000000000000000000000000000000000008152602081018481526001600160a01b037f000000000000000000000000000000000000000000000000000000000000000081168385019081526000606085018181526080860188815260a0870183815297516315a3e7ff60e31b815296516004880152945160248701529151831660448601529051606485015291516084840152925160a483015260e060c483015260e48201527f00000000000000000000000000000000000000000000000000000000000000009091169063ad1f3ff890610104016133ef565b8051601354600091606091811061365d5760135461365f565b805b67ffffffffffffffff81111561367757613677614b18565b6040519080825280602002602001820160405280156136bc57816020015b60408051808201909152600080825260208201528152602001906001900390816136955790505b50915060005b818110156138465760008582815181106136de576136de61502c565b602002602001015190507f00000000000000000000000000000000000000000000000000000000000000006001600160a01b031681600001516001600160a01b03160361383557600061373c613737836020015161428e565b614312565b505090506000805b878110156137c3578287828151811061375f5761375f61502c565b60200260200101516000015167ffffffffffffffff16036137b15786818151811061378c5761378c61502c565b602002602001015160200180518091906137a59061507f565b905250600191506137c3565b806137bb8161507f565b915050613744565b50806138325760135487036137eb5760405163e0d70cbf60e01b815260040160405180910390fd5b6040805180820190915267ffffffffffffffff831681526001602082015286886138148161507f565b9950815181106138265761382661502c565b60200260200101819052505b50505b5061383f8161507f565b90506136c2565b5050915091565b60005b826080015151811015611b14576012548251600091829182916001600160a01b0316906380f1d2669087908790811061388b5761388b61502c565b6020908102919091010151516040516001600160e01b031960e084901b16815267ffffffffffffffff9091166004820152602401606060405180830381865afa1580156138dc573d6000803e3d6000fd5b505050506040513d601f19601f820116820180604052508101906139009190615118565b600f548851939650919450925060009182916001600160a01b03169063b0487ff6908990899081106139345761393461502c565b6020908102919091010151516040516001600160e01b031960e084901b16815267ffffffffffffffff90911660048201526024016040805180830381865afa158015613984573d6000803e3d6000fd5b505050506040513d601f19601f820116820180604052508101906139a89190615428565b9150915060006139b88483613f53565b905060004267ffffffffffffffff168989815181106139d9576139d961502c565b60200260200101516000015167ffffffffffffffff16116139fb576000613a2e565b42898981518110613a0e57613a0e61502c565b60200260200101516000015167ffffffffffffffff16613a2e9190615826565b9050604051806101c001604052808a8a81518110613a4e57613a4e61502c565b60200260200101516000015167ffffffffffffffff1681526020018267ffffffffffffffff1681526020018a8a81518110613a8b57613a8b61502c565b60200260200101516020015167ffffffffffffffff811115613aaf57613aaf614b18565b604051908082528060200260200182016040528015613b1657816020015b613b036040518060a001604052806000815260200160008152602001600081526020016000151581526020016000151581525090565b815260200190600190039081613acd5790505b508152602001888152602001878152602001613b3b613b3660008861434b565b61435a565b815260200183815260200160008152602001600081526020016000815260200160008152602001600081526020016000815260200160008152508a608001518981518110613b8b57613b8b61502c565b60200260200101819052505050505050505080613ba79061507f565b9050613850565b60005b8251811015613f4c576000838281518110613bce57613bce61502c565b602002602001015190507f00000000000000000000000000000000000000000000000000000000000000006001600160a01b031681600001516001600160a01b031603613de0576000806000613c2a613737856020015161428e565b9250925092506000613c468960800151858b60800151516143ac565b9050600089608001518281518110613c6057613c6061502c565b602090810291909101015160105490915060009081906001600160a01b03166396159550613c8d88614405565b613c968a61448d565b6040516001600160e01b031960e085901b1681526fffffffffffffffffffffffffffffffff909216600483015267ffffffffffffffff1660248201526044016040805180830381865afa158015613cf1573d6000803e3d6000fd5b505050506040513d601f19601f82011682018060405250810190613d159190615428565b91509150613d27818460c00151613f53565b60c08401526040880151613d3a9061450d565b8360e001818151613d4b9190615839565b90525089516000908b9086908110613d6557613d6561502c565b60200260200101516020018051613d7b9061584c565b908181525090506040518060a001604052808881526020018481526020018a60400151815260200187151581526020016000151581525084604001518281518110613dc857613dc861502c565b60200260200101819052505050505050505050613f3b565b80516001600160a01b037f00000000000000000000000000000000000000000000000000000000000000008116911603613e235760408101516060860152613f3b565b80516001600160a01b037f00000000000000000000000000000000000000000000000000000000000000008116911603613ef45760408181015160a087015251633d26161d60e11b8152600481018790527f00000000000000000000000000000000000000000000000000000000000000006001600160a01b031690637a4c2c3a90602401602060405180830381865afa158015613ec5573d6000803e3d6000fd5b505050506040513d601f19601f82011682018060405250810190613ee99190615234565b6101a0860152613f3b565b80516001600160a01b037f00000000000000000000000000000000000000000000000000000000000000008116911603613f3b57613f35816040015161435a565b60c08601525b50613f458161507f565b9050613bb1565b5050505050565b6000818310613f62578161243f565b5090919050565b801580613f77575082600954145b15613f8157505050565b60098390556000613f9482840184615863565b905060005b8151811015613f4c57600b6000838381518110613fb857613fb861502c565b602090810291909101810151516001600160a01b031682528101919091526040016000205460ff16613ffd5760405163319f196160e21b815260040160405180910390fd5b81818151811061400f5761400f61502c565b6020026020010151600001516001600160a01b0316636f13e0ac83838151811061403b5761403b61502c565b6020026020010151602001516040518263ffffffff1660e01b815260040161406391906159b1565b600060405180830381600087803b15801561407d57600080fd5b505af1158015614091573d6000803e3d6000fd5b5050505080806140a09061507f565b915050613f99565b6001600160a01b0384166000908152600a602052604090205460ff16613432576000805b8251811015614283577f00000000000000000000000000000000000000000000000000000000000000006001600160a01b03168382815181106141115761411161502c565b6020026020010151600001516001600160a01b0316036141c6576141b57f0000000000000000000000000000000000000000000000000000000000000000601260009054906101000a90046001600160a01b03168584815181106141775761417761502c565b6020026020010151604001518685815181106141955761419561502c565b6020026020010151602001516bffffffffffffffffffffffff1688614520565b6141bf9083615839565b9150614271565b7f00000000000000000000000000000000000000000000000000000000000000006001600160a01b03168382815181106142025761420261502c565b6020026020010151600001516001600160a01b031603614271576142647f00000000000000000000000000000000000000000000000000000000000000008483815181106142525761425261502c565b60200260200101516040015186614641565b61426e9083615839565b91505b8061427b8161507f565b9150506140cc565b50613f4c848261473b565b60006bffffffffffffffffffffffff8211156124195760405162461bcd60e51b815260206004820152602660248201527f53616665436173743a2076616c756520646f65736e27742066697420696e203960448201527f362062697473000000000000000000000000000000000000000000000000000060648201526084016112ab565b63ffffffff8116600080614339602085901c677fffffffffffffff166402540be4006159ff565b92949293605f1c600116151592915050565b6000818313613f62578161243f565b6000808212156124195760405162461bcd60e51b815260206004820181905260248201527f53616665436173743a2076616c7565206d75737420626520706f73697469766560448201526064016112ab565b6000805b828110156143eb57838582815181106143cb576143cb61502c565b602002602001015160000151036143e357905061243f565b6001016143b0565b50604051631865561760e11b815260040160405180910390fd5b60006fffffffffffffffffffffffffffffffff8211156124195760405162461bcd60e51b815260206004820152602760248201527f53616665436173743a2076616c756520646f65736e27742066697420696e203160448201527f323820626974730000000000000000000000000000000000000000000000000060648201526084016112ab565b600067ffffffffffffffff8211156124195760405162461bcd60e51b815260206004820152602660248201527f53616665436173743a2076616c756520646f65736e27742066697420696e203660448201527f342062697473000000000000000000000000000000000000000000000000000060648201526084016112ab565b6000808212156124195781600003610ee9565b60008061452f6137378561428e565b50506040516359a7971b60e11b815267ffffffffffffffff821660048201529091506000906001600160a01b0388169063b34f2e36906024016040805180830381865afa158015614584573d6000803e3d6000fd5b505050506040513d601f19601f820116820180604052508101906145a89190615428565b50600354604051633699645560e01b81526001600160a01b038b8116600483015260248201899052604482018a9052606482018890526084820184905292935091169063369964559060a401602060405180830381865afa158015614611573d6000803e3d6000fd5b505050506040513d601f19601f820116820180604052508101906146359190615234565b98975050505050505050565b600080846001600160a01b03166390f76b186040518163ffffffff1660e01b81526004016040805180830381865afa158015614681573d6000803e3d6000fd5b505050506040513d601f19601f820116820180604052508101906146a59190615428565b50600354604051633699645560e01b81526001600160a01b0388811660048301526000602483015260448201889052606482018790526084820184905292935091169063369964559060a401602060405180830381865afa15801561470e573d6000803e3d6000fd5b505050506040513d601f19601f820116820180604052508101906147329190615234565b95945050505050565b8015806147485750600554155b15614751575050565b610a34826005547f00000000000000000000000000000000000000000000000000000000000000006000610cc9866007546000818311613f62578161243f565b6001600160a01b0381168114610ddb57600080fd5b8015158114610ddb57600080fd5b600080604083850312156147c757600080fd5b82356147d281614791565b915060208301356147e2816147a6565b809150509250929050565b6000602082840312156147ff57600080fd5b813561243f81614791565b60006020828403121561481c57600080fd5b5035919050565b6000806040838503121561483657600080fd5b823561484181614791565b946020939093013593505050565b600080600080600060a0868803121561486757600080fd5b505083359560208501359550604085013594606081013594506080013592509050565b60006020828403121561489c57600080fd5b813561243f816147a6565b600081518084526020808501945080840160005b838110156149055781518051885283810151848901526040808201519089015260608082015115159089015260809081015115159088015260a090960195908201906001016148bb565b509495945050505050565b600082825180855260208086019550808260051b84010181860160005b848110156149f157601f1986840301895281516101c08151855285820151868601526040808301518282880152614966838801826148a7565b606085810151908901526080808601519089015260a0808601519089015260c0808601519089015260e08086015190890152610100808601519089015261012080860151908901526101408086015190890152610160808601519089015261018080860151908901526101a0948501519490970193909352505050978301979083019060010161492d565b5090979650505050505050565b60006101c0825184526020830151602085015260408301516040850152606083015160608501526080830151816080860152614a3c82860182614910565b60a0858101519087015260c0808601519087015260e08086015190870152610100808601519087015261012080860151908701526101408086015190870152610160808601519087015261018080860151908701526101a0948501519490950193909352509192915050565b60208152600061243f60208301846149fe565b60008060408385031215614ace57600080fd5b8235915060208301356147e2816147a6565b600080600060608486031215614af557600080fd5b833592506020840135614b07816147a6565b929592945050506040919091013590565b634e487b7160e01b600052604160045260246000fd5b6040516060810167ffffffffffffffff81118282101715614b5157614b51614b18565b60405290565b6040805190810167ffffffffffffffff81118282101715614b5157614b51614b18565b60405160a0810167ffffffffffffffff81118282101715614b5157614b51614b18565b6040516101c0810167ffffffffffffffff81118282101715614b5157614b51614b18565b604051601f8201601f1916810167ffffffffffffffff81118282101715614bea57614bea614b18565b604052919050565b600067ffffffffffffffff821115614c0c57614c0c614b18565b5060051b60200190565b60008083601f840112614c2857600080fd5b50813567ffffffffffffffff811115614c4057600080fd5b602083019150836020828501011115614c5857600080fd5b9250929050565b60008060008060008060a08789031215614c7857600080fd5b8635955060208088013595506040880135614c9281614791565b9450606088013567ffffffffffffffff80821115614caf57600080fd5b818a0191508a601f830112614cc357600080fd5b8135614cd6614cd182614bf2565b614bc1565b81815260609091028301840190848101908d831115614cf457600080fd5b938501935b82851015614d65576060858f031215614d125760008081fd5b614d1a614b2e565b8535614d2581614791565b8152858701356bffffffffffffffffffffffff81168114614d465760008081fd5b8188015260408681013590820152825260609094019390850190614cf9565b9750505060808a0135925080831115614d7d57600080fd5b5050614d8b89828a01614c16565b979a9699509497509295939492505050565b60038110610ddb57600080fd5b60006020808385031215614dbd57600080fd5b823567ffffffffffffffff811115614dd457600080fd5b8301601f81018513614de557600080fd5b8035614df3614cd182614bf2565b81815260069190911b82018301908381019087831115614e1257600080fd5b928401925b82841015614e5f5760408489031215614e305760008081fd5b614e38614b57565b8435815285850135614e4981614d9d565b8187015282526040939093019290840190614e17565b979650505050505050565b600080600060608486031215614e7f57600080fd5b505081359360208301359350604090920135919050565b60008060408385031215614ea957600080fd5b50508035926020909101359150565b634e487b7160e01b600052602160045260246000fd5b60038110614eec57634e487b7160e01b600052602160045260246000fd5b9052565b600081518084526020808501945080840160005b8381101561490557815180518852830151614f2184890182614ece565b506040969096019590820190600101614f04565b60208152600061243f6020830184614ef0565b600060208284031215614f5a57600080fd5b815161243f81614791565b60006020808385031215614f7857600080fd5b825167ffffffffffffffff811115614f8f57600080fd5b8301601f81018513614fa057600080fd5b8051614fae614cd182614bf2565b81815260609182028301840191848201919088841115614fcd57600080fd5b938501935b838510156150205780858a031215614fea5760008081fd5b614ff2614b2e565b8551614ffd81614791565b815285870151878201526040808701519082015283529384019391850191614fd2565b50979650505050505050565b634e487b7160e01b600052603260045260246000fd5b634e487b7160e01b600052601160045260246000fd5b818103600083128015838313168383128216171561507857615078615042565b5092915050565b60006001820161509157615091615042565b5060010190565b6060815260006150ab60608301866149fe565b60208515158185015260408483038186015282865480855283850191508760005283600020945060005b81811015615109578554835260ff6001870154166150f586850182614ece565b5060029590950194918301916001016150d5565b50909998505050505050505050565b60008060006060848603121561512d57600080fd5b8351925060208401519150604084015190509250925092565b60608152600061515960608301866149fe565b84151560208401528281036040840152612a1d8185614ef0565b6040808252835182820181905260009190606090818501906020808901865b838110156151c857815180516001600160a01b031686528381015184870152870151878601529385019390820190600101615192565b5050868303818801528751808452888201938201925060005b8181101561522557845180516001600160a01b03168552838101516bffffffffffffffffffffffff16848601528701518785015293820193928501926001016151e1565b50919998505050505050505050565b60006020828403121561524657600080fd5b5051919050565b634e487b7160e01b600052603160045260246000fd5b6000806040838503121561527657600080fd5b8251915060208301516147e2816147a6565b80820182811260008312801582168215821617156152a8576152a8615042565b505092915050565b6000600160ff1b82016152c5576152c5615042565b5060000390565b600181815b808511156153075781600019048211156152ed576152ed615042565b808516156152fa57918102915b93841c93908002906152d1565b509250929050565b60008261531e57506001610ee9565b8161532b57506000610ee9565b8160018114615341576002811461534b57615367565b6001915050610ee9565b60ff84111561535c5761535c615042565b50506001821b610ee9565b5060208310610133831016604e8410600b841016171561538a575081810a610ee9565b61539483836152cc565b80600019048211156153a8576153a8615042565b029392505050565b600061243f838361530f565b80820260008212600160ff1b841416156153d8576153d8615042565b8181058314821517610ee957610ee9615042565b60008261540957634e487b7160e01b600052601260045260246000fd5b600160ff1b82146000198414161561542357615423615042565b500590565b6000806040838503121561543b57600080fd5b505080516020909101519092909150565b600082601f83011261545d57600080fd5b8151602061546d614cd183614bf2565b82815260a0928302850182019282820191908785111561548c57600080fd5b8387015b858110156149f15781818a0312156154a85760008081fd5b6154b0614b7a565b815181528582015186820152604080830151908201526060808301516154d5816147a6565b908201526080828101516154e8816147a6565b908201528452928401928101615490565b600082601f83011261550a57600080fd5b8151602061551a614cd183614bf2565b82815260059290921b8401810191818101908684111561553957600080fd5b8286015b8481101561565157805167ffffffffffffffff8082111561555e5760008081fd5b908801906101c0828b03601f19018113156155795760008081fd5b615581614b9d565b87840151815260408085015189830152606080860151858111156155a55760008081fd5b6155b38f8c838a010161544c565b8385015250608094508486015181840152505060a0808501518483015260c0935083850151818301525060e08085015184830152610100935083850151818301525061012080850151848301526101409350838501518183015250610160808501518483015261018093508385015181830152506101a08085015184830152828501518183015250808752505050508383019250838101905061553d565b509695505050505050565b60006020828403121561566e57600080fd5b815167ffffffffffffffff8082111561568657600080fd5b908301906101c0828603121561569b57600080fd5b6156a3614b9d565b825181526020830151602082015260408301516040820152606083015160608201526080830151828111156156d757600080fd5b6156e3878286016154f9565b60808301525060a0838101519082015260c0808401519082015260e08084015190820152610100808401519082015261012080840151908201526101408084015190820152610160808401519082015261018080840151908201526101a09283015192810192909252509392505050565b60006020828403121561576657600080fd5b815161243f816147a6565b6000602080838503121561578457600080fd5b825167ffffffffffffffff81111561579b57600080fd5b8301601f810185136157ac57600080fd5b80516157ba614cd182614bf2565b81815260069190911b820183019083810190878311156157d957600080fd5b928401925b82841015614e5f57604084890312156157f75760008081fd5b6157ff614b57565b845181528585015161581081614d9d565b81870152825260409390930192908401906157de565b81810381811115610ee957610ee9615042565b80820180821115610ee957610ee9615042565b60008161585b5761585b615042565b506000190190565b6000602080838503121561587657600080fd5b823567ffffffffffffffff8082111561588e57600080fd5b818501915085601f8301126158a257600080fd5b81356158b0614cd182614bf2565b81815260059190911b830184019084810190888311156158cf57600080fd5b8585015b838110156159a4578035858111156158eb5760008081fd5b86016040601f19828d0381018213156159045760008081fd5b61590c614b57565b8a84013561591981614791565b8152838301358981111561592d5760008081fd5b8085019450508d603f8501126159435760008081fd5b8a8401358981111561595757615957614b18565b6159678c84601f84011601614bc1565b92508083528e8482870101111561597e5760008081fd5b808486018d85013760009083018c0152808b0191909152855250509186019186016158d3565b5098975050505050505050565b600060208083528351808285015260005b818110156159de578581018301518582016040015282016159c2565b506000604082860101526040601f19601f8301168501019250505092915050565b8082028115828204841417610ee957610ee961504256fea164736f6c6343000812000a","linkReferences":{}},"methodIdentifiers":{"accId()":"96964a22","acceptOwnership()":"79ba5097","adjustmentsPaused()":"ac06ba05","arrangePortfolio(uint256)":"61a9d4b8","baseAsset()":"cdf456e1","cashAsset()":"5cd93cf3","executeBid(uint256,uint256,uint256,uint256,uint256)":"3c792cec","feeBypassedCaller(address)":"3f210eea","feeCharged(uint256,uint256)":"c09bc5e7","feeRecipientAcc()":"ec344f9e","forwardFeed()":"555449ad","getMargin(uint256,bool)":"623bb445","getMarginAndMarkToMarket(uint256,bool,uint256)":"6691bc04","getScenarios()":"c454b613","guardian()":"452a9320","handleAdjustment(uint256,uint256,address,(address,uint96,int256)[],bytes)":"9e4c9ebd","interestRateFeed()":"72fc6b83","lib()":"92801230","liquidation()":"f2dfbf66","maxAccountSize()":"f1f8c61f","maxExpiries()":"7a6640ef","minOIFee()":"55950182","option()":"010035af","owner()":"8da5cb5b","payLiquidationFee(uint256,uint256,uint256)":"ada7a7d1","pendingOwner()":"e30c3978","perp()":"bfa4c00c","renounceOwnership()":"715018a6","setAdjustmentsPaused(bool)":"51dd58ce","setFeeBypassedCaller(address,bool)":"0dfe9868","setFeeRecipient(uint256)":"34f95957","setForwardFeed(address)":"0ef960fd","setGuardian(address)":"8a0dac4a","setInterestRateFeed(address)":"8a1d3795","setLiquidation(address)":"ab919ee3","setMaxAccountSize(uint256)":"72c9ab3c","setMaxExpiries(uint256)":"18c5ff19","setMinOIFee(uint256)":"a27b1edb","setScenarios((uint256,uint8)[])":"a5158299","setSpotFeed(address)":"2976993e","setStableFeed(address)":"bafb798d","setTrustedRiskAssessor(address,bool)":"81609552","setVolFeed(address)":"ada655c6","setWhitelistedCallee(address,bool)":"f2979b75","settleInterest(uint256)":"d901b19a","settleOptions(address,uint256)":"31a7e4d9","settlePerpsWithIndex(uint256)":"5d935799","spotFeed()":"c8a2ba0a","stableFeed()":"f4d0508a","subAccounts()":"779e5012","transferOwnership(address)":"f2fde38b","trustedRiskAssessor(address)":"5b75ad78","viewer()":"f30878c1","volFeed()":"7ecbf012"},"id":38}