{"abi":[{"type":"constructor","inputs":[{"name":"_subAccounts","type":"address","internalType":"contract ISubAccounts"}],"stateMutability":"nonpayable"},{"type":"function","name":"WITHDRAW_COOLDOWN","inputs":[],"outputs":[{"name":"","type":"uint256","internalType":"uint256"}],"stateMutability":"view"},{"type":"function","name":"acceptOwnership","inputs":[],"outputs":[],"stateMutability":"nonpayable"},{"type":"function","name":"completeWithdrawAccount","inputs":[{"name":"accountId","type":"uint256","internalType":"uint256"}],"outputs":[],"stateMutability":"nonpayable"},{"type":"function","name":"createSubAccount","inputs":[{"name":"manager","type":"address","internalType":"contract IManager"}],"outputs":[{"name":"accountId","type":"uint256","internalType":"uint256"}],"stateMutability":"nonpayable"},{"type":"function","name":"depositSubAccount","inputs":[{"name":"accountId","type":"uint256","internalType":"uint256"}],"outputs":[],"stateMutability":"nonpayable"},{"type":"function","name":"depositSubAccountFor","inputs":[{"name":"accountId","type":"uint256","internalType":"uint256"},{"name":"recipient","type":"address","internalType":"address"}],"outputs":[],"stateMutability":"nonpayable"},{"type":"function","name":"owner","inputs":[],"outputs":[{"name":"","type":"address","internalType":"address"}],"stateMutability":"view"},{"type":"function","name":"pendingOwner","inputs":[],"outputs":[{"name":"","type":"address","internalType":"address"}],"stateMutability":"view"},{"type":"function","name":"renounceOwnership","inputs":[],"outputs":[],"stateMutability":"nonpayable"},{"type":"function","name":"requestWithdrawAccount","inputs":[{"name":"accountId","type":"uint256","internalType":"uint256"}],"outputs":[],"stateMutability":"nonpayable"},{"type":"function","name":"subAccountToOwner","inputs":[{"name":"","type":"uint256","internalType":"uint256"}],"outputs":[{"name":"","type":"address","internalType":"address"}],"stateMutability":"view"},{"type":"function","name":"subAccounts","inputs":[],"outputs":[{"name":"","type":"address","internalType":"contract ISubAccounts"}],"stateMutability":"view"},{"type":"function","name":"transferOwnership","inputs":[{"name":"newOwner","type":"address","internalType":"address"}],"outputs":[],"stateMutability":"nonpayable"},{"type":"function","name":"withdrawTimestamp","inputs":[{"name":"","type":"uint256","internalType":"uint256"}],"outputs":[{"name":"","type":"uint256","internalType":"uint256"}],"stateMutability":"view"},{"type":"event","name":"DepositedSubAccount","inputs":[{"name":"accountId","type":"uint256","indexed":true,"internalType":"uint256"},{"name":"owner","type":"address","indexed":true,"internalType":"address"}],"anonymous":false},{"type":"event","name":"OwnershipTransferStarted","inputs":[{"name":"previousOwner","type":"address","indexed":true,"internalType":"address"},{"name":"newOwner","type":"address","indexed":true,"internalType":"address"}],"anonymous":false},{"type":"event","name":"OwnershipTransferred","inputs":[{"name":"previousOwner","type":"address","indexed":true,"internalType":"address"},{"name":"newOwner","type":"address","indexed":true,"internalType":"address"}],"anonymous":false},{"type":"event","name":"WithdrawAccountCooldown","inputs":[{"name":"accountId","type":"uint256","indexed":true,"internalType":"uint256"},{"name":"user","type":"address","indexed":false,"internalType":"address"}],"anonymous":false},{"type":"event","name":"WithdrewSubAccount","inputs":[{"name":"accountId","type":"uint256","indexed":true,"internalType":"uint256"}],"anonymous":false},{"type":"error","name":"SAM_AlreadyRequestedWithdraw","inputs":[]},{"type":"error","name":"SAM_CooldownNotElapsed","inputs":[]},{"type":"error","name":"SAM_CooldownNotStarted","inputs":[]},{"type":"error","name":"SAM_NotOwnerAddress","inputs":[]}],"bytecode":{"object":"0x60a060405234801561001057600080fd5b50604051610aac380380610aac83398101604081905261002f916100c0565b61003833610049565b6001600160a01b03166080526100f0565b600180546001600160a01b031916905561006d81610070602090811b6107f317901c565b50565b600080546001600160a01b038381166001600160a01b0319831681178455604051919092169283917f8be0079c531659141344cd1fd0a4f28419497f9722a3daafe3b4186f6b6457e09190a35050565b6000602082840312156100d257600080fd5b81516001600160a01b03811681146100e957600080fd5b9392505050565b608051610985610127600039600081816101ab0152818161038e01528181610462015281816105ed01526106d001526109856000f3fe608060405234801561001057600080fd5b50600436106100ea5760003560e01c806379ba50971161008c578063ae60186b11610066578063ae60186b146101ef578063d41e4b7614610202578063e30c397814610215578063f2fde38b1461022657600080fd5b806379ba5097146101cd5780638da5cb5b146101d5578063950d91e9146101e657600080fd5b80636c6011ba116100c85780636c6011ba1461015d5780636d91228614610170578063715018a61461019e578063779e5012146101a657600080fd5b80630297d921146100ef5780631b0c2f031461010457806363f1ddaa14610117575b600080fd5b6101026100fd3660046108b6565b610239565b005b6101026101123660046108b6565b6102e7565b6101406101253660046108b6565b6002602052600090815260409020546001600160a01b031681565b6040516001600160a01b0390911681526020015b60405180910390f35b61010261016b3660046108e4565b610440565b61019061017e3660046108b6565b60036020526000908152604090205481565b604051908152602001610154565b61010261051e565b6101407f000000000000000000000000000000000000000000000000000000000000000081565b610102610532565b6000546001600160a01b0316610140565b61019061070881565b6101906101fd366004610914565b6105c5565b6101026102103660046108b6565b6106ae565b6001546001600160a01b0316610140565b610102610234366004610914565b610782565b6000818152600260205260409020546001600160a01b031633146102705760405163ce98768760e01b815260040160405180910390fd5b6000818152600360205260409020541561029d576040516305c20b0160e11b815260040160405180910390fd5b600081815260036020908152604091829020429055905133815282917f1e0acd1913e8ff4293f4b45b7e95b02a89e010b62bbe5e496a13738a2d25c1db910160405180910390a250565b600081815260036020526040812054900361031557604051635c12bd3560e01b815260040160405180910390fd5b60008181526003602052604090205442906103339061070890610938565b111561035257604051637816e9ed60e01b815260040160405180910390fd5b600081815260026020526040908190205490516323b872dd60e01b81523060048201526001600160a01b039182166024820152604481018390527f0000000000000000000000000000000000000000000000000000000000000000909116906323b872dd90606401600060405180830381600087803b1580156103d457600080fd5b505af11580156103e8573d6000803e3d6000fd5b5050506000828152600360209081526040808320839055600290915280822080546001600160a01b0319169055518392507f53a0f15ecd2c4989821244d3c7363d7de154e125eac5b2a7c9bb008152778de19190a250565b6040516323b872dd60e01b8152336004820152306024820152604481018390527f00000000000000000000000000000000000000000000000000000000000000006001600160a01b0316906323b872dd90606401600060405180830381600087803b1580156104ae57600080fd5b505af11580156104c2573d6000803e3d6000fd5b50505060008381526002602052604080822080546001600160a01b0319166001600160a01b038616908117909155905190925084917f043a568d47b1a65cdc989ff14c921411b62abf40132dc4b5e78675ba8d0bc9df91a35050565b610526610843565b610530600061089d565b565b60015433906001600160a01b031681146105b95760405162461bcd60e51b815260206004820152602960248201527f4f776e61626c6532537465703a2063616c6c6572206973206e6f74207468652060448201527f6e6577206f776e6572000000000000000000000000000000000000000000000060648201526084015b60405180910390fd5b6105c28161089d565b50565b60405163099ab95d60e11b81523060048201526001600160a01b0382811660248301526000917f00000000000000000000000000000000000000000000000000000000000000009091169063133572ba906044016020604051808303816000875af1158015610638573d6000803e3d6000fd5b505050506040513d601f19601f8201168201806040525081019061065c919061095f565b60008181526002602052604080822080546001600160a01b0319163390811790915590519293509183917f043a568d47b1a65cdc989ff14c921411b62abf40132dc4b5e78675ba8d0bc9df91a3919050565b6040516323b872dd60e01b8152336004820152306024820152604481018290527f00000000000000000000000000000000000000000000000000000000000000006001600160a01b0316906323b872dd90606401600060405180830381600087803b15801561071c57600080fd5b505af1158015610730573d6000803e3d6000fd5b50505060008281526002602052604080822080546001600160a01b03191633908117909155905190925083917f043a568d47b1a65cdc989ff14c921411b62abf40132dc4b5e78675ba8d0bc9df91a350565b61078a610843565b600180546001600160a01b0383166001600160a01b031990911681179091556107bb6000546001600160a01b031690565b6001600160a01b03167f38d16b8cac22d99fc7c124b9cd0de2d3fa1faef420bfe791d8c362d765e2270060405160405180910390a350565b600080546001600160a01b038381166001600160a01b0319831681178455604051919092169283917f8be0079c531659141344cd1fd0a4f28419497f9722a3daafe3b4186f6b6457e09190a35050565b6000546001600160a01b031633146105305760405162461bcd60e51b815260206004820181905260248201527f4f776e61626c653a2063616c6c6572206973206e6f7420746865206f776e657260448201526064016105b0565b600180546001600160a01b03191690556105c2816107f3565b6000602082840312156108c857600080fd5b5035919050565b6001600160a01b03811681146105c257600080fd5b600080604083850312156108f757600080fd5b823591506020830135610909816108cf565b809150509250929050565b60006020828403121561092657600080fd5b8135610931816108cf565b9392505050565b8082018082111561095957634e487b7160e01b600052601160045260246000fd5b92915050565b60006020828403121561097157600080fd5b505191905056fea164736f6c6343000812000a","linkReferences":{}},"methodIdentifiers":{"WITHDRAW_COOLDOWN()":"950d91e9","acceptOwnership()":"79ba5097","completeWithdrawAccount(uint256)":"1b0c2f03","createSubAccount(address)":"ae60186b","depositSubAccount(uint256)":"d41e4b76","depositSubAccountFor(uint256,address)":"6c6011ba","owner()":"8da5cb5b","pendingOwner()":"e30c3978","renounceOwnership()":"715018a6","requestWithdrawAccount(uint256)":"0297d921","subAccountToOwner(uint256)":"63f1ddaa","subAccounts()":"779e5012","transferOwnership(address)":"f2fde38b","withdrawTimestamp(uint256)":"6d912286"},"id":20}